{
	"data": {
		"bytecode": {
			"linkReferences": {},
			"object": "60806040526040518060400160405280600381526020017f4e5a5400000000000000000000000000000000000000000000000000000000008152506003908051906020019062000051929190620000e2565b503480156200005f57600080fd5b50336000806101000a81548173ffffffffffffffffffffffffffffffffffffffff021916908373ffffffffffffffffffffffffffffffffffffffff1602179055507f5c486528ec3e3f0ea91181cff8116f02bfa350e03b8b6f12e00765adbb5af85c600033604051620000d4929190620001a3565b60405180910390a162000269565b828054620000f09062000204565b90600052602060002090601f01602090048101928262000114576000855562000160565b82601f106200012f57805160ff191683800117855562000160565b8280016001018555821562000160579182015b828111156200015f57825182559160200191906001019062000142565b5b5090506200016f919062000173565b5090565b5b808211156200018e57600081600090555060010162000174565b5090565b6200019d81620001d0565b82525050565b6000604082019050620001ba600083018562000192565b620001c9602083018462000192565b9392505050565b6000620001dd82620001e4565b9050919050565b600073ffffffffffffffffffffffffffffffffffffffff82169050919050565b600060028204905060018216806200021d57607f821691505b602082108114156200023457620002336200023a565b5b50919050565b7f4e487b7100000000000000000000000000000000000000000000000000000000600052602260045260246000fd5b61596680620002796000396000f3fe60806040523480156200001157600080fd5b5060043610620002085760003560e01c806389535803116200011d578063a9059cbb11620000b1578063c57981b5116200007b578063c57981b51462000653578063dd62ed3e1462000675578063fa7e8dc714620006ab578063ff12bbf414620006cd5762000208565b8063a9059cbb14620005a7578063b00cf04914620005dd578063bbac11931462000613578063c47f002714620006335762000208565b80638da5cb5b11620000f35780638da5cb5b146200052157806395d89b411462000543578063a12ab7701462000565578063a486309d14620005875762000208565b806389535803146200049557806389f3546814620004cb5780638cec999314620005015762000208565b806323b872dd11620001a157806343684b21116200016b57806343684b2114620003e45780634849f5c8146200041a57806370a08231146200043d5780637c32cdd114620004735762000208565b806323b872dd146200034a578063313ce56714620003805780633767e33914620003a2578063399ae72414620003c45762000208565b8063095ea7b311620001e3578063095ea7b3146200029c57806313af403514620002d257806316b627d114620002f257806318160ddd14620003285762000208565b806306fdde03146200020d57806308acece2146200022f57806308eaae4d1462000265575b600080fd5b62000217620006ed565b6040516200022691906200332e565b60405180910390f35b6200024d600480360381019062000247919062002b7e565b62000783565b6040516200025c919062003260565b60405180910390f35b6200028360048036038101906200027d919062002ca1565b6200085e565b6040516200029392919062003233565b60405180910390f35b620002ba6004803603810190620002b4919062002b7e565b6200091a565b604051620002c9919062003260565b60405180910390f35b620002f06004803603810190620002ea919062002a4e565b6200099a565b005b6200031060048036038101906200030a919062002a4e565b62000ac9565b6040516200031f919062003260565b60405180910390f35b6200033262000ae9565b6040516200034191906200349f565b60405180910390f35b62000368600480360381019062000362919062002ae7565b62000aef565b60405162000377919062003260565b60405180910390f35b6200038a62000bcb565b604051620003999190620034e9565b60405180910390f35b620003ac62000bd0565b604051620003bb91906200349f565b60405180910390f35b620003e26004803603810190620003dc919062002b7e565b62000bd6565b005b620004026004803603810190620003fc919062002a4e565b62000e85565b60405162000411919062003260565b60405180910390f35b6200042462000ea5565b6040516200043492919062003233565b60405180910390f35b6200045b600480360381019062000455919062002a4e565b62000f53565b6040516200046a91906200349f565b60405180910390f35b6200047d62000f67565b6040516200048c91906200349f565b60405180910390f35b620004b36004803603810190620004ad919062002b7e565b62001012565b604051620004c291906200349f565b60405180910390f35b620004e96004803603810190620004e3919062002ae7565b62001028565b604051620004f8919062003260565b60405180910390f35b6200051f600480360381019062000519919062002ca1565b62001104565b005b6200052b620011dc565b6040516200053a9190620031bc565b60405180910390f35b6200054d62001200565b6040516200055c91906200332e565b60405180910390f35b6200056f62001239565b6040516200057e9190620032c7565b60405180910390f35b620005a560048036038101906200059f919062002b3d565b6200125f565b005b620005c56004803603810190620005bf919062002b7e565b62001386565b604051620005d4919062003260565b60405180910390f35b620005fb6004803603810190620005f5919062002a4e565b62001461565b6040516200060a91906200349f565b60405180910390f35b6200063160048036038101906200062b919062002c2c565b6200151b565b005b6200065160048036038101906200064b919062002c58565b6200164d565b005b6200065d62001734565b6040516200066c91906200349f565b60405180910390f35b6200069360048036038101906200068d919062002aa6565b62001739565b604051620006a291906200349f565b60405180910390f35b620006b56200174f565b604051620006c491906200349f565b60405180910390f35b620006eb6004803603810190620006e5919062002b3d565b620017fa565b005b60038054620006fc90620037ab565b80601f01602080910402602001604051908101604052809291908181526020018280546200072a90620037ab565b80156200077b5780601f106200074f576101008083540402835291602001916200077b565b820191906000526020600020905b8154815290600101906020018083116200075d57829003601f168201915b505050505081565b600060075460003a1480620007975750455a115b15620008425760005a9050620007b233338787600162001921565b6001925060005a82620007c691906200364e565b9050600060648483620007da9190620035ed565b620007e69190620035b5565b90505a92505b805a84620007fb91906200364e565b1015620008395760015460405160200162000817919062003132565b60405160208183030381529060405280519060200120600181905550620007ec565b50505062000857565b6200085233338686600162001921565b600191505b5092915050565b600080600660009054906101000a900473ffffffffffffffffffffffffffffffffffffffff1673ffffffffffffffffffffffffffffffffffffffff1663e2095c07846040518263ffffffff1660e01b8152600401620008be91906200349f565b604080518083038186803b158015620008d657600080fd5b505afa158015620008eb573d6000803e3d6000fd5b505050506040513d601f19601f8201168201806040525081019062000911919062002bbf565b91509150915091565b60008273ffffffffffffffffffffffffffffffffffffffff163373ffffffffffffffffffffffffffffffffffffffff167f8c5be1e5ebec7d5bd14f71427d1e84f3dd0314c0f7b2291e5b200ac8c7c3b925846040516200097b91906200349f565b60405180910390a36200099033848462001dd4565b6001905092915050565b60008054906101000a900473ffffffffffffffffffffffffffffffffffffffff1673ffffffffffffffffffffffffffffffffffffffff163373ffffffffffffffffffffffffffffffffffffffff161462000a2b576040517f08c379a000000000000000000000000000000000000000000000000000000000815260040162000a22906200347d565b60405180910390fd5b7f5c486528ec3e3f0ea91181cff8116f02bfa350e03b8b6f12e00765adbb5af85c60008054906101000a900473ffffffffffffffffffffffffffffffffffffffff168260405162000a7e929190620031d9565b60405180910390a1806000806101000a81548173ffffffffffffffffffffffffffffffffffffffff021916908373ffffffffffffffffffffffffffffffffffffffff16021790555050565b60056020528060005260406000206000915054906101000a900460ff1681565b60025481565b600060075460003a148062000b035750455a115b1562000bae5760005a905062000b1e33878787600062001921565b6001925060005a8262000b3291906200364e565b905060006064848362000b469190620035ed565b62000b529190620035b5565b90505a92505b805a8462000b6791906200364e565b101562000ba55760015460405160200162000b83919062003132565b6040516020818303038152906040528051906020012060018190555062000b58565b50505062000bc3565b62000bbe33868686600062001921565b600191505b509392505050565b601281565b60075481565b600860009054906101000a900460ff161562000c1b577f4e487b7100000000000000000000000000000000000000000000000000000000600052600160045260246000fd5b6001600860006101000a81548160ff02191690831515021790555060006002541462000c70577f4e487b7100000000000000000000000000000000000000000000000000000000600052600160045260246000fd5b600073ffffffffffffffffffffffffffffffffffffffff16600660009054906101000a900473ffffffffffffffffffffffffffffffffffffffff1673ffffffffffffffffffffffffffffffffffffffff161462000cf6577f4e487b7100000000000000000000000000000000000000000000000000000000600052600160045260246000fd5b60405162000d049062002894565b604051809103906000f08015801562000d21573d6000803e3d6000fd5b50600660006101000a81548173ffffffffffffffffffffffffffffffffffffffff021916908373ffffffffffffffffffffffffffffffffffffffff1602179055507f4b388b1aa01b2653af632da9d80cca5cfe489300086d04070fca9dc860629d4f6000600660009054906101000a900473ffffffffffffffffffffffffffffffffffffffff1660405162000db8929190620031d9565b60405180910390a1600f6007819055507fcc8f22bdbd4465d62f4861f9dcc3c020cbf6f3ede75c5d0eebf924f06f23b1c9600060075460405162000dfe92919062003301565b60405180910390a18173ffffffffffffffffffffffffffffffffffffffff16600073ffffffffffffffffffffffffffffffffffffffff167fddf252ad1be2c89b69c2b068fc378daa952ba7f163c4a11628f55a4df523b3ef8360405162000e6691906200349f565b60405180910390a362000e7a828262001e25565b806002819055505050565b60046020528060005260406000206000915054906101000a900460ff1681565b600080600660009054906101000a900473ffffffffffffffffffffffffffffffffffffffff1673ffffffffffffffffffffffffffffffffffffffff1663fe6dcdba6040518163ffffffff1660e01b8152600401604080518083038186803b15801562000f1057600080fd5b505afa15801562000f25573d6000803e3d6000fd5b505050506040513d601f19601f8201168201806040525081019062000f4b919062002bbf565b915091509091565b600062000f608262001f00565b9050919050565b6000600660009054906101000a900473ffffffffffffffffffffffffffffffffffffffff1673ffffffffffffffffffffffffffffffffffffffff16637c32cdd16040518163ffffffff1660e01b815260040160206040518083038186803b15801562000fd257600080fd5b505afa15801562000fe7573d6000803e3d6000fd5b505050506040513d601f19601f820116820180604052508101906200100d919062002ccd565b905090565b600062001020838362001f4b565b905092915050565b600060075460003a14806200103c5750455a115b15620010e75760005a90506200105733878787600162001921565b6001925060005a826200106b91906200364e565b90506000606484836200107f9190620035ed565b6200108b9190620035b5565b90505a92505b805a84620010a091906200364e565b1015620010de57600154604051602001620010bc919062003132565b6040516020818303038152906040528051906020012060018190555062001091565b505050620010fc565b620010f733868686600162001921565b600191505b509392505050565b60008054906101000a900473ffffffffffffffffffffffffffffffffffffffff1673ffffffffffffffffffffffffffffffffffffffff163373ffffffffffffffffffffffffffffffffffffffff161462001195576040517f08c379a00000000000000000000000000000000000000000000000000000000081526004016200118c906200347d565b60405180910390fd5b7fcc8f22bdbd4465d62f4861f9dcc3c020cbf6f3ede75c5d0eebf924f06f23b1c960075482604051620011ca929190620034bc565b60405180910390a18060078190555050565b60008054906101000a900473ffffffffffffffffffffffffffffffffffffffff1681565b6040518060400160405280600381526020017f4e5a54000000000000000000000000000000000000000000000000000000000081525081565b600660009054906101000a900473ffffffffffffffffffffffffffffffffffffffff1681565b60008054906101000a900473ffffffffffffffffffffffffffffffffffffffff1673ffffffffffffffffffffffffffffffffffffffff163373ffffffffffffffffffffffffffffffffffffffff1614620012f0576040517f08c379a0000000000000000000000000000000000000000000000000000000008152600401620012e7906200347d565b60405180910390fd5b7f88cf9b943f64811022537ee9f0141770d85e612eae3a3a39241abe5ca9f1138282826040516200132392919062003206565b60405180910390a180600560008473ffffffffffffffffffffffffffffffffffffffff1673ffffffffffffffffffffffffffffffffffffffff16815260200190815260200160002060006101000a81548160ff0219169083151502179055505050565b600060075460003a14806200139a5750455a115b15620014455760005a9050620013b533338787600062001921565b6001925060005a82620013c991906200364e565b9050600060648483620013dd9190620035ed565b620013e99190620035b5565b90505a92505b805a84620013fe91906200364e565b10156200143c576001546040516020016200141a919062003132565b60405160208183030381529060405280519060200120600181905550620013ef565b5050506200145a565b6200145533338686600062001921565b600191505b5092915050565b6000600660009054906101000a900473ffffffffffffffffffffffffffffffffffffffff1673ffffffffffffffffffffffffffffffffffffffff1663fd6aad25836040518263ffffffff1660e01b8152600401620014c09190620031bc565b60206040518083038186803b158015620014d957600080fd5b505afa158015620014ee573d6000803e3d6000fd5b505050506040513d601f19601f8201168201806040525081019062001514919062002ccd565b9050919050565b60008054906101000a900473ffffffffffffffffffffffffffffffffffffffff1673ffffffffffffffffffffffffffffffffffffffff163373ffffffffffffffffffffffffffffffffffffffff1614620015ac576040517f08c379a0000000000000000000000000000000000000000000000000000000008152600401620015a3906200347d565b60405180910390fd5b7f4b388b1aa01b2653af632da9d80cca5cfe489300086d04070fca9dc860629d4f600660009054906101000a900473ffffffffffffffffffffffffffffffffffffffff168260405162001601929190620031d9565b60405180910390a180600660006101000a81548173ffffffffffffffffffffffffffffffffffffffff021916908373ffffffffffffffffffffffffffffffffffffffff16021790555050565b60008054906101000a900473ffffffffffffffffffffffffffffffffffffffff1673ffffffffffffffffffffffffffffffffffffffff163373ffffffffffffffffffffffffffffffffffffffff1614620016de576040517f08c379a0000000000000000000000000000000000000000000000000000000008152600401620016d5906200347d565b60405180910390fd5b7fbcfc2e8e6857ca26084ba5543a45251aaf7690f73043fff1d18c7d5f80e5cbb160038383604051620017149392919062003352565b60405180910390a18181600391906200172f929190620028a2565b505050565b606481565b600062001747838362001f9f565b905092915050565b6000600660009054906101000a900473ffffffffffffffffffffffffffffffffffffffff1673ffffffffffffffffffffffffffffffffffffffff1663949d225d6040518163ffffffff1660e01b815260040160206040518083038186803b158015620017ba57600080fd5b505afa158015620017cf573d6000803e3d6000fd5b505050506040513d601f19601f82011682018060405250810190620017f5919062002ccd565b905090565b60008054906101000a900473ffffffffffffffffffffffffffffffffffffffff1673ffffffffffffffffffffffffffffffffffffffff163373ffffffffffffffffffffffffffffffffffffffff16146200188b576040517f08c379a000000000000000000000000000000000000000000000000000000000815260040162001882906200347d565b60405180910390fd5b7fc3d26c130d120a4bb874de56c8b5fb727ad2cfc3551ca49cd42ef248e893b69a8282604051620018be92919062003206565b60405180910390a180600460008473ffffffffffffffffffffffffffffffffffffffff1673ffffffffffffffffffffffffffffffffffffffff16815260200190815260200160002060006101000a81548160ff0219169083151502179055505050565b600082141562001999578273ffffffffffffffffffffffffffffffffffffffff168473ffffffffffffffffffffffffffffffffffffffff167fddf252ad1be2c89b69c2b068fc378daa952ba7f163c4a11628f55a4df523b3ef60006040516200198b9190620032e4565b60405180910390a362001dcd565b6000620019a68562001f00565b905082811015620019ee576040517f08c379a0000000000000000000000000000000000000000000000000000000008152600401620019e590620033b1565b60405180910390fd5b8573ffffffffffffffffffffffffffffffffffffffff168573ffffffffffffffffffffffffffffffffffffffff161462001ac457600062001a30868862001f9f565b90507fffffffffffffffffffffffffffffffffffffffffffffffffffffffffffffffff811462001ac2578381101562001aa0576040517f08c379a000000000000000000000000000000000000000000000000000000000815260040162001a979062003439565b60405180910390fd5b62001ac1868862001abb878562001ff390919063ffffffff16565b62001dd4565b5b505b600083905060008062001aec8862001ae6888762001ff390919063ffffffff16565b62001e25565b848062001b02575062001b00888862002051565b155b1562001cd85762001b1e606487620020fd90919063ffffffff16565b91506001861462001b30578162001b33565b60005b905062001b5e62001b4e82846200218990919063ffffffff16565b8462001ff390919063ffffffff16565b925062001b778260025462001ff390919063ffffffff16565b600281905550600073ffffffffffffffffffffffffffffffffffffffff168873ffffffffffffffffffffffffffffffffffffffff167fddf252ad1be2c89b69c2b068fc378daa952ba7f163c4a11628f55a4df523b3ef8460405162001bdd91906200349f565b60405180910390a3600062001bf38988620021ec565b905062001c1f8162001c198462001c0a8562001f00565b6200218990919063ffffffff16565b62001e25565b8073ffffffffffffffffffffffffffffffffffffffff167f9c2270628a9b29d30ae96b6c4c14ed646ee134febdce38a5b77f2bde9cea2e208360405162001c6791906200349f565b60405180910390a28073ffffffffffffffffffffffffffffffffffffffff168973ffffffffffffffffffffffffffffffffffffffff167fddf252ad1be2c89b69c2b068fc378daa952ba7f163c4a11628f55a4df523b3ef8460405162001cce91906200349f565b60405180910390a3505b8562001d028462001cf384866200218990919063ffffffff16565b6200218990919063ffffffff16565b1462001d37577f4e487b7100000000000000000000000000000000000000000000000000000000600052600160045260246000fd5b62001d618762001d5b8562001d4c8b62001f00565b6200218990919063ffffffff16565b62001e25565b8673ffffffffffffffffffffffffffffffffffffffff168873ffffffffffffffffffffffffffffffffffffffff167fddf252ad1be2c89b69c2b068fc378daa952ba7f163c4a11628f55a4df523b3ef8560405162001dc091906200349f565b60405180910390a3505050505b5050505050565b62001e208260405160200162001deb919062003192565b604051602081830303815290604052805190602001208260001b62001e1086620023a0565b620023c39092919063ffffffff16565b505050565b62001e697fea06f38f7e4f15e87567361213c28f235cccdaa1d7fd34c9db1dfe9489c6a0918260001b62001e5985620023a0565b620023c39092919063ffffffff16565b600660009054906101000a900473ffffffffffffffffffffffffffffffffffffffff1673ffffffffffffffffffffffffffffffffffffffff1663a2d83b5e83836040518363ffffffff1660e01b815260040162001ec892919062003233565b600060405180830381600087803b15801562001ee357600080fd5b505af115801562001ef8573d6000803e3d6000fd5b505050505050565b600062001f417fea06f38f7e4f15e87567361213c28f235cccdaa1d7fd34c9db1dfe9489c6a09162001f3284620023a0565b6200252290919063ffffffff16565b60001c9050919050565b600062001f948260405160200162001f64919062003168565b6040516020818303038152906040528051906020012062001f8585620023a0565b6200252290919063ffffffff16565b60001c905092915050565b600062001fe88260405160200162001fb8919062003192565b6040516020818303038152906040528051906020012062001fd985620023a0565b6200252290919063ffffffff16565b60001c905092915050565b6000818310156200203b576040517f08c379a00000000000000000000000000000000000000000000000000000000081526004016200203290620033f5565b60405180910390fd5b81836200204991906200364e565b905092915050565b6000600460008473ffffffffffffffffffffffffffffffffffffffff1673ffffffffffffffffffffffffffffffffffffffff16815260200190815260200160002060009054906101000a900460ff1680620020f55750600560008373ffffffffffffffffffffffffffffffffffffffff1673ffffffffffffffffffffffffffffffffffffffff16815260200190815260200160002060009054906101000a900460ff165b905092915050565b60008082141562002145576040517f08c379a00000000000000000000000000000000000000000000000000000000081526004016200213c906200338f565b60405180910390fd5b60008284620021559190620035b5565b90506000838562002167919062003875565b146200217f576001816200217c919062003558565b90505b8091505092915050565b60008082846200219a919062003558565b905083811015620021e2576040517f08c379a0000000000000000000000000000000000000000000000000000000008152600401620021d9906200345b565b60405180910390fd5b8091505092915050565b600080620021fa836200269c565b905060006200220a858362001f4b565b905062002227858360018462002221919062003558565b620026fd565b600660009054906101000a900473ffffffffffffffffffffffffffffffffffffffff1673ffffffffffffffffffffffffffffffffffffffff16630af2b3e5620023248784866001600660009054906101000a900473ffffffffffffffffffffffffffffffffffffffff1673ffffffffffffffffffffffffffffffffffffffff1663949d225d6040518163ffffffff1660e01b815260040160206040518083038186803b158015620022d757600080fd5b505afa158015620022ec573d6000803e3d6000fd5b505050506040513d601f19601f8201168201806040525081019062002312919062002ccd565b6200231e91906200364e565b6200274e565b6040518263ffffffff1660e01b81526004016200234291906200349f565b60206040518083038186803b1580156200235b57600080fd5b505afa15801562002370573d6000803e3d6000fd5b505050506040513d601f19601f8201168201806040525081019062002396919062002a7a565b9250505092915050565b60008173ffffffffffffffffffffffffffffffffffffffff1660001b9050919050565b6000620023d084620027aa565b9050620023dd8162002815565b620023ee57620023ed846200285b565b5b60008173ffffffffffffffffffffffffffffffffffffffff1663e2e52ec160e01b8585604051602401620024249291906200329a565b604051602081830303815290604052907bffffffffffffffffffffffffffffffffffffffffffffffffffffffff19166020820180517bffffffffffffffffffffffffffffffffffffffffffffffffffffffff83818316178352505050506040516200249091906200314f565b6000604051808303816000865af19150503d8060008114620024cf576040519150601f19603f3d011682016040523d82523d6000602084013e620024d4565b606091505b50509050806200251b576040517f08c379a0000000000000000000000000000000000000000000000000000000008152600401620025129062003417565b60405180910390fd5b5050505050565b6000806200253084620027aa565b90506200253d8162002815565b6200254f576000801b91505062002696565b6000808273ffffffffffffffffffffffffffffffffffffffff166361da143960e01b866040516024016200258491906200327d565b604051602081830303815290604052907bffffffffffffffffffffffffffffffffffffffffffffffffffffffff19166020820180517bffffffffffffffffffffffffffffffffffffffffffffffffffffffff8381831617835250505050604051620025f091906200314f565b600060405180830381855afa9150503d80600081146200262d576040519150601f19603f3d011682016040523d82523d6000602084013e62002632565b606091505b5091509150816200267a576040517f08c379a00000000000000000000000000000000000000000000000000000000081526004016200267190620033d3565b60405180910390fd5b8080602001905181019062002690919062002c00565b93505050505b92915050565b6000807fffffffffffffffffffffffffffffffffffffffffffffffffffffffffffffffff905060008390505b600a81620026d79190620035b5565b90508180620026e690620037e1565b9250506000811415620026c8578192505050919050565b620027498260405160200162002714919062003168565b604051602081830303815290604052805190602001208260001b6200273986620023a0565b620023c39092919063ffffffff16565b505050565b600080858585604051602001620027689392919062003099565b6040516020818303038152906040528051906020012060001c905060018362002792919062003558565b816200279f919062003875565b915050949350505050565b600060ff60f81b308360405180602001620027c59062002933565b6020820181038252601f19601f8201166040525080519060200120604051602001620027f59493929190620030dc565b6040516020818303038152906040528051906020012060001c9050919050565b600080823f90506000801b81141580156200285357507fc5d2460186f7233c927e7db2dcc703c0e500b653ca82273b7bfad8045d85a47060001b8114155b915050919050565b6000604051806020016200286f9062002933565b6020820181038252601f19601f820116604052509050818151602083016000f5505050565b611b498062003b7583390190565b828054620028b090620037ab565b90600052602060002090601f016020900481019282620028d4576000855562002920565b82601f10620028ef57803560ff191683800117855562002920565b8280016001018555821562002920579182015b828111156200291f57823582559160200191906001019062002902565b5b5090506200292f919062002941565b5090565b61027380620056be83390190565b5b808211156200295c57600081600090555060010162002942565b5090565b600081359050620029718162003af2565b92915050565b600081519050620029888162003af2565b92915050565b6000813590506200299f8162003b0c565b92915050565b600081519050620029b68162003b26565b92915050565b600081359050620029cd8162003b40565b92915050565b60008083601f840112620029e657600080fd5b8235905067ffffffffffffffff81111562002a0057600080fd5b60208301915083600182028301111562002a1957600080fd5b9250929050565b60008135905062002a318162003b5a565b92915050565b60008151905062002a488162003b5a565b92915050565b60006020828403121562002a6157600080fd5b600062002a718482850162002960565b91505092915050565b60006020828403121562002a8d57600080fd5b600062002a9d8482850162002977565b91505092915050565b6000806040838503121562002aba57600080fd5b600062002aca8582860162002960565b925050602062002add8582860162002960565b9150509250929050565b60008060006060848603121562002afd57600080fd5b600062002b0d8682870162002960565b935050602062002b208682870162002960565b925050604062002b338682870162002a20565b9150509250925092565b6000806040838503121562002b5157600080fd5b600062002b618582860162002960565b925050602062002b74858286016200298e565b9150509250929050565b6000806040838503121562002b9257600080fd5b600062002ba28582860162002960565b925050602062002bb58582860162002a20565b9150509250929050565b6000806040838503121562002bd357600080fd5b600062002be38582860162002977565b925050602062002bf68582860162002a37565b9150509250929050565b60006020828403121562002c1357600080fd5b600062002c2384828501620029a5565b91505092915050565b60006020828403121562002c3f57600080fd5b600062002c4f84828501620029bc565b91505092915050565b6000806020838503121562002c6c57600080fd5b600083013567ffffffffffffffff81111562002c8757600080fd5b62002c9585828601620029d3565b92509250509250929050565b60006020828403121562002cb457600080fd5b600062002cc48482850162002a20565b91505092915050565b60006020828403121562002ce057600080fd5b600062002cf08482850162002a37565b91505092915050565b62002d048162003689565b82525050565b62002d1f62002d198262003689565b6200382f565b82525050565b62002d30816200369d565b82525050565b62002d4b62002d4582620036a9565b62003843565b82525050565b62002d5c81620036d5565b82525050565b62002d7762002d7182620036d5565b6200384d565b82525050565b600062002d8a826200351b565b62002d96818562003531565b935062002da881856020860162003775565b80840191505092915050565b62002dbf816200372a565b82525050565b62002dd08162003752565b82525050565b600062002de483856200353c565b935062002df383858462003766565b62002dfe836200393a565b840190509392505050565b600062002e168262003526565b62002e2281856200353c565b935062002e3481856020860162003775565b62002e3f816200393a565b840191505092915050565b6000815462002e5981620037ab565b62002e6581866200353c565b9450600182166000811462002e83576001811462002e965762002ecd565b60ff198316865260208601935062002ecd565b62002ea18562003506565b60005b8381101562002ec55781548189015260018201915060208101905062002ea4565b808801955050505b50505092915050565b600062002ee5600b836200353c565b915062002ef28262003958565b602082019050919050565b600062002f0c6012836200353c565b915062002f198262003981565b602082019050919050565b600062002f336015836200353c565b915062002f4082620039aa565b602082019050919050565b600062002f5a600d836200353c565b915062002f6782620039d3565b602082019050919050565b600062002f816015836200353c565b915062002f8e82620039fc565b602082019050919050565b600062002fa86005836200354d565b915062002fb58262003a25565b600582019050919050565b600062002fcf6014836200353c565b915062002fdc8262003a4e565b602082019050919050565b600062002ff6600c836200353c565b9150620030038262003a77565b602082019050919050565b60006200301d600a836200353c565b91506200302a8262003aa0565b602082019050919050565b6000620030446009836200354d565b9150620030518262003ac9565b600982019050919050565b620030678162003713565b82525050565b620030826200307c8262003713565b6200386b565b82525050565b62003093816200371d565b82525050565b6000620030a7828662002d0a565b601482019150620030b982856200306d565b602082019150620030cb82846200306d565b602082019150819050949350505050565b6000620030ea828762002d36565b600182019150620030fc828662002d0a565b6014820191506200310e828562002d62565b60208201915062003120828462002d62565b60208201915081905095945050505050565b600062003140828462002d62565b60208201915081905092915050565b60006200315d828462002d7d565b915081905092915050565b6000620031758262002f99565b91506200318382846200306d565b60208201915081905092915050565b60006200319f8262003035565b9150620031ad828462002d0a565b60148201915081905092915050565b6000602082019050620031d3600083018462002cf9565b92915050565b6000604082019050620031f0600083018562002cf9565b620031ff602083018462002cf9565b9392505050565b60006040820190506200321d600083018562002cf9565b6200322c602083018462002d25565b9392505050565b60006040820190506200324a600083018562002cf9565b6200325960208301846200305c565b9392505050565b600060208201905062003277600083018462002d25565b92915050565b600060208201905062003294600083018462002d51565b92915050565b6000604082019050620032b1600083018562002d51565b620032c0602083018462002d51565b9392505050565b6000602082019050620032de600083018462002db4565b92915050565b6000602082019050620032fb600083018462002dc5565b92915050565b600060408201905062003318600083018562002dc5565b6200332760208301846200305c565b9392505050565b600060208201905081810360008301526200334a818462002e09565b905092915050565b600060408201905081810360008301526200336e818662002e4a565b905081810360208301526200338581848662002dd6565b9050949350505050565b60006020820190508181036000830152620033aa8162002ed6565b9050919050565b60006020820190508181036000830152620033cc8162002efd565b9050919050565b60006020820190508181036000830152620033ee8162002f24565b9050919050565b60006020820190508181036000830152620034108162002f4b565b9050919050565b60006020820190508181036000830152620034328162002f72565b9050919050565b60006020820190508181036000830152620034548162002fc0565b9050919050565b60006020820190508181036000830152620034768162002fe7565b9050919050565b6000602082019050818103600083015262003498816200300e565b9050919050565b6000602082019050620034b660008301846200305c565b92915050565b6000604082019050620034d360008301856200305c565b620034e260208301846200305c565b9392505050565b600060208201905062003500600083018462003088565b92915050565b60008190508160005260206000209050919050565b600081519050919050565b600081519050919050565b600081905092915050565b600082825260208201905092915050565b600081905092915050565b6000620035658262003713565b9150620035728362003713565b9250827fffffffffffffffffffffffffffffffffffffffffffffffffffffffffffffffff03821115620035aa57620035a9620038ad565b5b828201905092915050565b6000620035c28262003713565b9150620035cf8362003713565b925082620035e257620035e1620038dc565b5b828204905092915050565b6000620035fa8262003713565b9150620036078362003713565b9250817fffffffffffffffffffffffffffffffffffffffffffffffffffffffffffffffff0483118215151615620036435762003642620038ad565b5b828202905092915050565b60006200365b8262003713565b9150620036688362003713565b9250828210156200367e576200367d620038ad565b5b828203905092915050565b60006200369682620036f3565b9050919050565b60008115159050919050565b60007fff0000000000000000000000000000000000000000000000000000000000000082169050919050565b6000819050919050565b6000620036ec8262003689565b9050919050565b600073ffffffffffffffffffffffffffffffffffffffff82169050919050565b6000819050919050565b600060ff82169050919050565b600062003737826200373e565b9050919050565b60006200374b82620036f3565b9050919050565b60006200375f8262003713565b9050919050565b82818337600083830152505050565b60005b838110156200379557808201518184015260208101905062003778565b83811115620037a5576000848401525b50505050565b60006002820490506001821680620037c457607f821691505b60208210811415620037db57620037da6200390b565b5b50919050565b6000620037ee8262003713565b91507fffffffffffffffffffffffffffffffffffffffffffffffffffffffffffffffff821415620038245762003823620038ad565b5b600182019050919050565b60006200383c8262003857565b9050919050565b6000819050919050565b6000819050919050565b600062003864826200394b565b9050919050565b6000819050919050565b6000620038828262003713565b91506200388f8362003713565b925082620038a257620038a1620038dc565b5b828206905092915050565b7f4e487b7100000000000000000000000000000000000000000000000000000000600052601160045260246000fd5b7f4e487b7100000000000000000000000000000000000000000000000000000000600052601260045260246000fd5b7f4e487b7100000000000000000000000000000000000000000000000000000000600052602260045260246000fd5b6000601f19601f8301169050919050565b60008160601b9050919050565b7f446976206279207a65726f000000000000000000000000000000000000000000600082015250565b7f62616c616e6365206e6f7420656e6f7567680000000000000000000000000000600082015250565b7f6572726f722072656164696e672073746f726167650000000000000000000000600082015250565b7f53756220756e646572666c6f7700000000000000000000000000000000000000600082015250565b7f6572726f722077726974696e672073746f726167650000000000000000000000600082015250565b7f6e6f6e6365000000000000000000000000000000000000000000000000000000600082015250565b7f616c6c6f77616e6365206e6f7420656e6f756768000000000000000000000000600082015250565b7f416464206f766572666c6f770000000000000000000000000000000000000000600082015250565b7f6f6e6c79206f776e657200000000000000000000000000000000000000000000600082015250565b7f616c6c6f77616e63650000000000000000000000000000000000000000000000600082015250565b62003afd8162003689565b811462003b0957600080fd5b50565b62003b17816200369d565b811462003b2357600080fd5b50565b62003b3181620036d5565b811462003b3d57600080fd5b50565b62003b4b81620036df565b811462003b5757600080fd5b50565b62003b658162003713565b811462003b7157600080fd5b5056fe60806040523480156200001157600080fd5b50336000806101000a81548173ffffffffffffffffffffffffffffffffffffffff021916908373ffffffffffffffffffffffffffffffffffffffff1602179055507f5c486528ec3e3f0ea91181cff8116f02bfa350e03b8b6f12e00765adbb5af85c600033604051620000869291906200015f565b60405180910390a1620000a56001620000ab60201b620006cb1760201c565b6200021c565b6000816000018054905014620000f8576040517f08c379a0000000000000000000000000000000000000000000000000000000008152600401620000ef906200018c565b60405180910390fd5b806000016000908060018154018082558091505060019003906000526020600020016000909190919091505550565b6200013281620001bf565b82525050565b600062000147601383620001ae565b91506200015482620001f3565b602082019050919050565b600060408201905062000176600083018562000127565b62000185602083018462000127565b9392505050565b60006020820190508181036000830152620001a78162000138565b9050919050565b600082825260208201905092915050565b6000620001cc82620001d3565b9050919050565b600073ffffffffffffffffffffffffffffffffffffffff82169050919050565b7f616c726561647920696e697469616c697a656400000000000000000000000000600082015250565b61191d806200022c6000396000f3fe608060405234801561001057600080fd5b506004361061009e5760003560e01c8063949d225d11610066578063949d225d14610149578063a2d83b5e14610167578063e2095c0714610183578063fd6aad25146101b4578063fe6dcdba146101e45761009e565b80630af2b3e5146100a357806313af4035146100d357806331fb7127146100ef5780637c32cdd11461010d5780638da5cb5b1461012b575b600080fd5b6100bd60048036038101906100b89190611372565b610203565b6040516100ca9190611477565b60405180910390f35b6100ed60048036038101906100e8919061130d565b610223565b005b6100f761034d565b60405161010491906115ad565b60405180910390f35b610115610353565b60405161012291906115ad565b60405180910390f35b61013361035d565b6040516101409190611477565b60405180910390f35b610151610381565b60405161015e91906115ad565b60405180910390f35b610181600480360381019061017c9190611336565b610392565b005b61019d60048036038101906101989190611372565b61064b565b6040516101ab9291906114bb565b60405180910390f35b6101ce60048036038101906101c9919061130d565b61066b565b6040516101db91906115ad565b60405180910390f35b6101ec6106b6565b6040516101fa9291906114bb565b60405180910390f35b600061021982600161074490919063ffffffff16565b5080915050919050565b60008054906101000a900473ffffffffffffffffffffffffffffffffffffffff1673ffffffffffffffffffffffffffffffffffffffff163373ffffffffffffffffffffffffffffffffffffffff16146102b1576040517f08c379a00000000000000000000000000000000000000000000000000000000081526004016102a89061156d565b60405180910390fd5b7f5c486528ec3e3f0ea91181cff8116f02bfa350e03b8b6f12e00765adbb5af85c60008054906101000a900473ffffffffffffffffffffffffffffffffffffffff1682604051610302929190611492565b60405180910390a1806000806101000a81548173ffffffffffffffffffffffffffffffffffffffff021916908373ffffffffffffffffffffffffffffffffffffffff16021790555050565b61020081565b6000610200905090565b60008054906101000a900473ffffffffffffffffffffffffffffffffffffffff1681565b600061038d60016107ad565b905090565b60008054906101000a900473ffffffffffffffffffffffffffffffffffffffff1673ffffffffffffffffffffffffffffffffffffffff163373ffffffffffffffffffffffffffffffffffffffff1614610420576040517f08c379a00000000000000000000000000000000000000000000000000000000081526004016104179061156d565b60405180910390fd5b600061042c60016107ad565b905060008114156104a4578273ffffffffffffffffffffffffffffffffffffffff167fb7c8eb45e695579273671351c1ee88509af6ec27e061176b10f5f9fb145eff938360006040516104809291906115c8565b60405180910390a261049e838360016107ca9092919063ffffffff16565b50610647565b60006104b06001610903565b9150506104c784600161097c90919063ffffffff16565b1561054e576104e2848460016109cb9092919063ffffffff16565b6000831415610549576104f56001610ba5565b50508373ffffffffffffffffffffffffffffffffffffffff167f61072af1539e7159a567565ab0a7863c5ad61aa8daa91cf3843c3bb8bccb00e76000846040516105409291906114e4565b60405180910390a25b610644565b6000831415801561056a575061020082108061056957508281105b5b156106435761020082106105dc576000806105856001610ba5565b915091508173ffffffffffffffffffffffffffffffffffffffff167f61072af1539e7159a567565ab0a7863c5ad61aa8daa91cf3843c3bb8bccb00e782866040516105d19291906115f1565b60405180910390a250505b6105f2848460016107ca9092919063ffffffff16565b8373ffffffffffffffffffffffffffffffffffffffff167fb7c8eb45e695579273671351c1ee88509af6ec27e061176b10f5f9fb145eff93848460405161063a9291906115f1565b60405180910390a25b5b50505b5050565b60008061066283600161074490919063ffffffff16565b91509150915091565b60006001800160008373ffffffffffffffffffffffffffffffffffffffff1673ffffffffffffffffffffffffffffffffffffffff168152602001908152602001600020549050919050565b6000806106c36001610903565b915091509091565b6000816000018054905014610715576040517f08c379a000000000000000000000000000000000000000000000000000000000815260040161070c9061152d565b60405180910390fd5b806000016000908060018154018082558091505060019003906000526020600020016000909190919091505550565b6000806107a28460000160018561075b919061162b565b81548110610792577f4e487b7100000000000000000000000000000000000000000000000000000000600052603260045260246000fd5b9060005260206000200154610e5b565b915091509250929050565b6000600182600001805490506107c3919061170c565b9050919050565b60008360010160008473ffffffffffffffffffffffffffffffffffffffff1673ffffffffffffffffffffffffffffffffffffffff168152602001908152602001600020541461084e576040517f08c379a00000000000000000000000000000000000000000000000000000000081526004016108459061150d565b60405180910390fd5b600061085a8383610e85565b90508360000181908060018154018082558091505060019003906000526020600020016000909190919091505560006001856000018054905061089d919061170c565b90506108b4818387610eac9092919063ffffffff16565b9050808560010160008673ffffffffffffffffffffffffffffffffffffffff1673ffffffffffffffffffffffffffffffffffffffff168152602001908152602001600020819055505050505050565b6000806002836000018054905010156109225760008091509150610977565b61097283600001600181548110610962577f4e487b7100000000000000000000000000000000000000000000000000000000600052603260045260246000fd5b9060005260206000200154610e5b565b915091505b915091565b6000808360010160008473ffffffffffffffffffffffffffffffffffffffff1673ffffffffffffffffffffffffffffffffffffffff168152602001908152602001600020541415905092915050565b60008360010160008473ffffffffffffffffffffffffffffffffffffffff1673ffffffffffffffffffffffffffffffffffffffff1681526020019081526020016000205490506000811415610a55576040517f08c379a0000000000000000000000000000000000000000000000000000000008152600401610a4c9061158d565b60405180910390fd5b6000610a618484610e85565b90506000856000018381548110610aa1577f4e487b7100000000000000000000000000000000000000000000000000000000600052603260045260246000fd5b90600052602060002001549050600081831015610ad457610acd8484896110919092919063ffffffff16565b9050610b02565b81831115610af857610af1848489610eac9092919063ffffffff16565b9050610b01565b50505050610ba0565b5b82876000018281548110610b3f577f4e487b7100000000000000000000000000000000000000000000000000000000600052603260045260246000fd5b9060005260206000200181905550838114610b9b57808760010160008873ffffffffffffffffffffffffffffffffffffffff1673ffffffffffffffffffffffffffffffffffffffff168152602001908152602001600020819055505b505050505b505050565b60008060008360000180549050905060018111610bf7576040517f08c379a0000000000000000000000000000000000000000000000000000000008152600401610bee9061154d565b60405180910390fd5b610c4784600001600181548110610c37577f4e487b7100000000000000000000000000000000000000000000000000000000600052603260045260246000fd5b9060005260206000200154610e5b565b809350819450505060008460010160008573ffffffffffffffffffffffffffffffffffffffff1673ffffffffffffffffffffffffffffffffffffffff168152602001908152602001600020819055506002811415610cf45783600001805480610cd9577f4e487b7100000000000000000000000000000000000000000000000000000000600052603160045260246000fd5b60019003818190600052602060002001600090559055610e55565b600084600001600183610d07919061170c565b81548110610d3e577f4e487b7100000000000000000000000000000000000000000000000000000000600052603260045260246000fd5b906000526020600020015490508085600001600181548110610d89577f4e487b7100000000000000000000000000000000000000000000000000000000600052603260045260246000fd5b906000526020600020018190555084600001805480610dd1577f4e487b7100000000000000000000000000000000000000000000000000000000600052603160045260246000fd5b60019003818190600052602060002001600090559055600060019050610e028183886110919092919063ffffffff16565b905080866001016000610e14856112c2565b73ffffffffffffffffffffffffffffffffffffffff1673ffffffffffffffffffffffffffffffffffffffff1681526020019081526020016000208190555050505b50915091565b600080821973ffffffffffffffffffffffffffffffffffffffff811692508060a01c915050915091565b60008160a01b8373ffffffffffffffffffffffffffffffffffffffff161719905092915050565b60008290506001811461108a57600084600001600283610ecc9190611681565b81548110610f03577f4e487b7100000000000000000000000000000000000000000000000000000000600052603260045260246000fd5b906000526020600020015490505b8281101561108857828186600001600285610f2c9190611681565b81548110610f63577f4e487b7100000000000000000000000000000000000000000000000000000000600052603260045260246000fd5b906000526020600020016000886000018681548110610fab577f4e487b7100000000000000000000000000000000000000000000000000000000600052603260045260246000fd5b90600052602060002001600084919050558391905055505081856001016000610fd3846112c2565b73ffffffffffffffffffffffffffffffffffffffff1673ffffffffffffffffffffffffffffffffffffffff1681526020019081526020016000208190555060028261101e9190611681565b9150600182141561102e57611088565b8460000160028361103f9190611681565b81548110611076577f4e487b7100000000000000000000000000000000000000000000000000000000600052603260045260246000fd5b90600052602060002001549050610f11565b505b9392505050565b600082905060008460000180549050905060006001826110b1919061170c565b90505b816002846110c291906116b2565b10156112b95760006002846110d791906116b2565b90506000876000018281548110611117577f4e487b7100000000000000000000000000000000000000000000000000000000600052603260045260246000fd5b906000526020600020015490506000828411156111ae57600089600001600185611141919061162b565b81548110611178577f4e487b7100000000000000000000000000000000000000000000000000000000600052603260045260246000fd5b90600052602060002001549050808310156111a45780915060018461119d919061162b565b93506111a8565b8291505b506111b2565b8190505b808711156111c2575050506112b9565b80878a6000018881548110611200577f4e487b7100000000000000000000000000000000000000000000000000000000600052603260045260246000fd5b9060005260206000200160008c6000018781548110611248577f4e487b7100000000000000000000000000000000000000000000000000000000600052603260045260246000fd5b90600052602060002001600084919050558391905055505085896001016000611270846112c2565b73ffffffffffffffffffffffffffffffffffffffff1673ffffffffffffffffffffffffffffffffffffffff168152602001908152602001600020819055508295505050506110b4565b50509392505050565b600073ffffffffffffffffffffffffffffffffffffffff8219169050919050565b6000813590506112f2816118b9565b92915050565b600081359050611307816118d0565b92915050565b60006020828403121561131f57600080fd5b600061132d848285016112e3565b91505092915050565b6000806040838503121561134957600080fd5b6000611357858286016112e3565b9250506020611368858286016112f8565b9150509250929050565b60006020828403121561138457600080fd5b6000611392848285016112f8565b91505092915050565b6113a481611740565b82525050565b6113b38161177c565b82525050565b60006113c660188361161a565b91506113d1826117ec565b602082019050919050565b60006113e960138361161a565b91506113f482611815565b602082019050919050565b600061140c60188361161a565b91506114178261183e565b602082019050919050565b600061142f600a8361161a565b915061143a82611867565b602082019050919050565b600061145260198361161a565b915061145d82611890565b602082019050919050565b61147181611772565b82525050565b600060208201905061148c600083018461139b565b92915050565b60006040820190506114a7600083018561139b565b6114b4602083018461139b565b9392505050565b60006040820190506114d0600083018561139b565b6114dd6020830184611468565b9392505050565b60006040820190506114f960008301856113aa565b6115066020830184611468565b9392505050565b60006020820190508181036000830152611526816113b9565b9050919050565b60006020820190508181036000830152611546816113dc565b9050919050565b60006020820190508181036000830152611566816113ff565b9050919050565b6000602082019050818103600083015261158681611422565b9050919050565b600060208201905081810360008301526115a681611445565b9050919050565b60006020820190506115c26000830184611468565b92915050565b60006040820190506115dd6000830185611468565b6115ea60208301846113aa565b9392505050565b60006040820190506116066000830185611468565b6116136020830184611468565b9392505050565b600082825260208201905092915050565b600061163682611772565b915061164183611772565b9250827fffffffffffffffffffffffffffffffffffffffffffffffffffffffffffffffff038211156116765761167561178e565b5b828201905092915050565b600061168c82611772565b915061169783611772565b9250826116a7576116a66117bd565b5b828204905092915050565b60006116bd82611772565b91506116c883611772565b9250817fffffffffffffffffffffffffffffffffffffffffffffffffffffffffffffffff04831182151516156117015761170061178e565b5b828202905092915050565b600061171782611772565b915061172283611772565b9250828210156117355761173461178e565b5b828203905092915050565b600061174b82611752565b9050919050565b600073ffffffffffffffffffffffffffffffffffffffff82169050919050565b6000819050919050565b600061178782611772565b9050919050565b7f4e487b7100000000000000000000000000000000000000000000000000000000600052601160045260246000fd5b7f4e487b7100000000000000000000000000000000000000000000000000000000600052601260045260246000fd5b7f54686520656e74727920616c7265616479206578697374730000000000000000600082015250565b7f616c726561647920696e697469616c697a656400000000000000000000000000600082015250565b7f546865206865617020646f6573206e6f74206578697374730000000000000000600082015250565b7f6f6e6c79206f776e657200000000000000000000000000000000000000000000600082015250565b7f54686520656e74727920646f6573206e6f742065786973747300000000000000600082015250565b6118c281611740565b81146118cd57600080fd5b50565b6118d981611772565b81146118e457600080fd5b5056fea2646970667358221220491c00ec3511dbb01e2c8f9a0d971d49923a2c89f141cd21c0c7abdc73a4bd0464736f6c63430008020033608060405234801561001057600080fd5b50336000806101000a81548173ffffffffffffffffffffffffffffffffffffffff021916908373ffffffffffffffffffffffffffffffffffffffff160217905550610213806100606000396000f3fe608060405234801561001057600080fd5b50600436106100365760003560e01c806361da14391461003b578063e2e52ec11461006b575b600080fd5b6100556004803603810190610050919061012d565b610087565b60405161006291906101a1565b60405180910390f35b61008560048036038101906100809190610156565b6100a4565b005b600060016000838152602001908152602001600020549050919050565b60008054906101000a900473ffffffffffffffffffffffffffffffffffffffff1673ffffffffffffffffffffffffffffffffffffffff163373ffffffffffffffffffffffffffffffffffffffff16146100fc57600080fd5b8060016000848152602001908152602001600020819055505050565b600081359050610127816101c6565b92915050565b60006020828403121561013f57600080fd5b600061014d84828501610118565b91505092915050565b6000806040838503121561016957600080fd5b600061017785828601610118565b925050602061018885828601610118565b9150509250929050565b61019b816101bc565b82525050565b60006020820190506101b66000830184610192565b92915050565b6000819050919050565b6101cf816101bc565b81146101da57600080fd5b5056fea2646970667358221220c8de1d9b3f19dd5610924ac6e9758b8e6222627a7abdd692ab4cc521365fdee564736f6c63430008020033a2646970667358221220244aee53c80bacf516c09604294ccfc80c804af80aa9af98d694157990ba42a364736f6c63430008020033",
			"opcodes": "PUSH1 0x80 PUSH1 0x40 MSTORE PUSH1 0x40 MLOAD DUP1 PUSH1 0x40 ADD PUSH1 0x40 MSTORE DUP1 PUSH1 0x3 DUP2 MSTORE PUSH1 0x20 ADD PUSH32 0x4E5A540000000000000000000000000000000000000000000000000000000000 DUP2 MSTORE POP PUSH1 0x3 SWAP1 DUP1 MLOAD SWAP1 PUSH1 0x20 ADD SWAP1 PUSH3 0x51 SWAP3 SWAP2 SWAP1 PUSH3 0xE2 JUMP JUMPDEST POP CALLVALUE DUP1 ISZERO PUSH3 0x5F JUMPI PUSH1 0x0 DUP1 REVERT JUMPDEST POP CALLER PUSH1 0x0 DUP1 PUSH2 0x100 EXP DUP2 SLOAD DUP2 PUSH20 0xFFFFFFFFFFFFFFFFFFFFFFFFFFFFFFFFFFFFFFFF MUL NOT AND SWAP1 DUP4 PUSH20 0xFFFFFFFFFFFFFFFFFFFFFFFFFFFFFFFFFFFFFFFF AND MUL OR SWAP1 SSTORE POP PUSH32 0x5C486528EC3E3F0EA91181CFF8116F02BFA350E03B8B6F12E00765ADBB5AF85C PUSH1 0x0 CALLER PUSH1 0x40 MLOAD PUSH3 0xD4 SWAP3 SWAP2 SWAP1 PUSH3 0x1A3 JUMP JUMPDEST PUSH1 0x40 MLOAD DUP1 SWAP2 SUB SWAP1 LOG1 PUSH3 0x269 JUMP JUMPDEST DUP3 DUP1 SLOAD PUSH3 0xF0 SWAP1 PUSH3 0x204 JUMP JUMPDEST SWAP1 PUSH1 0x0 MSTORE PUSH1 0x20 PUSH1 0x0 KECCAK256 SWAP1 PUSH1 0x1F ADD PUSH1 0x20 SWAP1 DIV DUP2 ADD SWAP3 DUP3 PUSH3 0x114 JUMPI PUSH1 0x0 DUP6 SSTORE PUSH3 0x160 JUMP JUMPDEST DUP3 PUSH1 0x1F LT PUSH3 0x12F JUMPI DUP1 MLOAD PUSH1 0xFF NOT AND DUP4 DUP1 ADD OR DUP6 SSTORE PUSH3 0x160 JUMP JUMPDEST DUP3 DUP1 ADD PUSH1 0x1 ADD DUP6 SSTORE DUP3 ISZERO PUSH3 0x160 JUMPI SWAP2 DUP3 ADD JUMPDEST DUP3 DUP2 GT ISZERO PUSH3 0x15F JUMPI DUP3 MLOAD DUP3 SSTORE SWAP2 PUSH1 0x20 ADD SWAP2 SWAP1 PUSH1 0x1 ADD SWAP1 PUSH3 0x142 JUMP JUMPDEST JUMPDEST POP SWAP1 POP PUSH3 0x16F SWAP2 SWAP1 PUSH3 0x173 JUMP JUMPDEST POP SWAP1 JUMP JUMPDEST JUMPDEST DUP1 DUP3 GT ISZERO PUSH3 0x18E JUMPI PUSH1 0x0 DUP2 PUSH1 0x0 SWAP1 SSTORE POP PUSH1 0x1 ADD PUSH3 0x174 JUMP JUMPDEST POP SWAP1 JUMP JUMPDEST PUSH3 0x19D DUP2 PUSH3 0x1D0 JUMP JUMPDEST DUP3 MSTORE POP POP JUMP JUMPDEST PUSH1 0x0 PUSH1 0x40 DUP3 ADD SWAP1 POP PUSH3 0x1BA PUSH1 0x0 DUP4 ADD DUP6 PUSH3 0x192 JUMP JUMPDEST PUSH3 0x1C9 PUSH1 0x20 DUP4 ADD DUP5 PUSH3 0x192 JUMP JUMPDEST SWAP4 SWAP3 POP POP POP JUMP JUMPDEST PUSH1 0x0 PUSH3 0x1DD DUP3 PUSH3 0x1E4 JUMP JUMPDEST SWAP1 POP SWAP2 SWAP1 POP JUMP JUMPDEST PUSH1 0x0 PUSH20 0xFFFFFFFFFFFFFFFFFFFFFFFFFFFFFFFFFFFFFFFF DUP3 AND SWAP1 POP SWAP2 SWAP1 POP JUMP JUMPDEST PUSH1 0x0 PUSH1 0x2 DUP3 DIV SWAP1 POP PUSH1 0x1 DUP3 AND DUP1 PUSH3 0x21D JUMPI PUSH1 0x7F DUP3 AND SWAP2 POP JUMPDEST PUSH1 0x20 DUP3 LT DUP2 EQ ISZERO PUSH3 0x234 JUMPI PUSH3 0x233 PUSH3 0x23A JUMP JUMPDEST JUMPDEST POP SWAP2 SWAP1 POP JUMP JUMPDEST PUSH32 0x4E487B7100000000000000000000000000000000000000000000000000000000 PUSH1 0x0 MSTORE PUSH1 0x22 PUSH1 0x4 MSTORE PUSH1 0x24 PUSH1 0x0 REVERT JUMPDEST PUSH2 0x5966 DUP1 PUSH3 0x279 PUSH1 0x0 CODECOPY PUSH1 0x0 RETURN INVALID PUSH1 0x80 PUSH1 0x40 MSTORE CALLVALUE DUP1 ISZERO PUSH3 0x11 JUMPI PUSH1 0x0 DUP1 REVERT JUMPDEST POP PUSH1 0x4 CALLDATASIZE LT PUSH3 0x208 JUMPI PUSH1 0x0 CALLDATALOAD PUSH1 0xE0 SHR DUP1 PUSH4 0x89535803 GT PUSH3 0x11D JUMPI DUP1 PUSH4 0xA9059CBB GT PUSH3 0xB1 JUMPI DUP1 PUSH4 0xC57981B5 GT PUSH3 0x7B JUMPI DUP1 PUSH4 0xC57981B5 EQ PUSH3 0x653 JUMPI DUP1 PUSH4 0xDD62ED3E EQ PUSH3 0x675 JUMPI DUP1 PUSH4 0xFA7E8DC7 EQ PUSH3 0x6AB JUMPI DUP1 PUSH4 0xFF12BBF4 EQ PUSH3 0x6CD JUMPI PUSH3 0x208 JUMP JUMPDEST DUP1 PUSH4 0xA9059CBB EQ PUSH3 0x5A7 JUMPI DUP1 PUSH4 0xB00CF049 EQ PUSH3 0x5DD JUMPI DUP1 PUSH4 0xBBAC1193 EQ PUSH3 0x613 JUMPI DUP1 PUSH4 0xC47F0027 EQ PUSH3 0x633 JUMPI PUSH3 0x208 JUMP JUMPDEST DUP1 PUSH4 0x8DA5CB5B GT PUSH3 0xF3 JUMPI DUP1 PUSH4 0x8DA5CB5B EQ PUSH3 0x521 JUMPI DUP1 PUSH4 0x95D89B41 EQ PUSH3 0x543 JUMPI DUP1 PUSH4 0xA12AB770 EQ PUSH3 0x565 JUMPI DUP1 PUSH4 0xA486309D EQ PUSH3 0x587 JUMPI PUSH3 0x208 JUMP JUMPDEST DUP1 PUSH4 0x89535803 EQ PUSH3 0x495 JUMPI DUP1 PUSH4 0x89F35468 EQ PUSH3 0x4CB JUMPI DUP1 PUSH4 0x8CEC9993 EQ PUSH3 0x501 JUMPI PUSH3 0x208 JUMP JUMPDEST DUP1 PUSH4 0x23B872DD GT PUSH3 0x1A1 JUMPI DUP1 PUSH4 0x43684B21 GT PUSH3 0x16B JUMPI DUP1 PUSH4 0x43684B21 EQ PUSH3 0x3E4 JUMPI DUP1 PUSH4 0x4849F5C8 EQ PUSH3 0x41A JUMPI DUP1 PUSH4 0x70A08231 EQ PUSH3 0x43D JUMPI DUP1 PUSH4 0x7C32CDD1 EQ PUSH3 0x473 JUMPI PUSH3 0x208 JUMP JUMPDEST DUP1 PUSH4 0x23B872DD EQ PUSH3 0x34A JUMPI DUP1 PUSH4 0x313CE567 EQ PUSH3 0x380 JUMPI DUP1 PUSH4 0x3767E339 EQ PUSH3 0x3A2 JUMPI DUP1 PUSH4 0x399AE724 EQ PUSH3 0x3C4 JUMPI PUSH3 0x208 JUMP JUMPDEST DUP1 PUSH4 0x95EA7B3 GT PUSH3 0x1E3 JUMPI DUP1 PUSH4 0x95EA7B3 EQ PUSH3 0x29C JUMPI DUP1 PUSH4 0x13AF4035 EQ PUSH3 0x2D2 JUMPI DUP1 PUSH4 0x16B627D1 EQ PUSH3 0x2F2 JUMPI DUP1 PUSH4 0x18160DDD EQ PUSH3 0x328 JUMPI PUSH3 0x208 JUMP JUMPDEST DUP1 PUSH4 0x6FDDE03 EQ PUSH3 0x20D JUMPI DUP1 PUSH4 0x8ACECE2 EQ PUSH3 0x22F JUMPI DUP1 PUSH4 0x8EAAE4D EQ PUSH3 0x265 JUMPI JUMPDEST PUSH1 0x0 DUP1 REVERT JUMPDEST PUSH3 0x217 PUSH3 0x6ED JUMP JUMPDEST PUSH1 0x40 MLOAD PUSH3 0x226 SWAP2 SWAP1 PUSH3 0x332E JUMP JUMPDEST PUSH1 0x40 MLOAD DUP1 SWAP2 SUB SWAP1 RETURN JUMPDEST PUSH3 0x24D PUSH1 0x4 DUP1 CALLDATASIZE SUB DUP2 ADD SWAP1 PUSH3 0x247 SWAP2 SWAP1 PUSH3 0x2B7E JUMP JUMPDEST PUSH3 0x783 JUMP JUMPDEST PUSH1 0x40 MLOAD PUSH3 0x25C SWAP2 SWAP1 PUSH3 0x3260 JUMP JUMPDEST PUSH1 0x40 MLOAD DUP1 SWAP2 SUB SWAP1 RETURN JUMPDEST PUSH3 0x283 PUSH1 0x4 DUP1 CALLDATASIZE SUB DUP2 ADD SWAP1 PUSH3 0x27D SWAP2 SWAP1 PUSH3 0x2CA1 JUMP JUMPDEST PUSH3 0x85E JUMP JUMPDEST PUSH1 0x40 MLOAD PUSH3 0x293 SWAP3 SWAP2 SWAP1 PUSH3 0x3233 JUMP JUMPDEST PUSH1 0x40 MLOAD DUP1 SWAP2 SUB SWAP1 RETURN JUMPDEST PUSH3 0x2BA PUSH1 0x4 DUP1 CALLDATASIZE SUB DUP2 ADD SWAP1 PUSH3 0x2B4 SWAP2 SWAP1 PUSH3 0x2B7E JUMP JUMPDEST PUSH3 0x91A JUMP JUMPDEST PUSH1 0x40 MLOAD PUSH3 0x2C9 SWAP2 SWAP1 PUSH3 0x3260 JUMP JUMPDEST PUSH1 0x40 MLOAD DUP1 SWAP2 SUB SWAP1 RETURN JUMPDEST PUSH3 0x2F0 PUSH1 0x4 DUP1 CALLDATASIZE SUB DUP2 ADD SWAP1 PUSH3 0x2EA SWAP2 SWAP1 PUSH3 0x2A4E JUMP JUMPDEST PUSH3 0x99A JUMP JUMPDEST STOP JUMPDEST PUSH3 0x310 PUSH1 0x4 DUP1 CALLDATASIZE SUB DUP2 ADD SWAP1 PUSH3 0x30A SWAP2 SWAP1 PUSH3 0x2A4E JUMP JUMPDEST PUSH3 0xAC9 JUMP JUMPDEST PUSH1 0x40 MLOAD PUSH3 0x31F SWAP2 SWAP1 PUSH3 0x3260 JUMP JUMPDEST PUSH1 0x40 MLOAD DUP1 SWAP2 SUB SWAP1 RETURN JUMPDEST PUSH3 0x332 PUSH3 0xAE9 JUMP JUMPDEST PUSH1 0x40 MLOAD PUSH3 0x341 SWAP2 SWAP1 PUSH3 0x349F JUMP JUMPDEST PUSH1 0x40 MLOAD DUP1 SWAP2 SUB SWAP1 RETURN JUMPDEST PUSH3 0x368 PUSH1 0x4 DUP1 CALLDATASIZE SUB DUP2 ADD SWAP1 PUSH3 0x362 SWAP2 SWAP1 PUSH3 0x2AE7 JUMP JUMPDEST PUSH3 0xAEF JUMP JUMPDEST PUSH1 0x40 MLOAD PUSH3 0x377 SWAP2 SWAP1 PUSH3 0x3260 JUMP JUMPDEST PUSH1 0x40 MLOAD DUP1 SWAP2 SUB SWAP1 RETURN JUMPDEST PUSH3 0x38A PUSH3 0xBCB JUMP JUMPDEST PUSH1 0x40 MLOAD PUSH3 0x399 SWAP2 SWAP1 PUSH3 0x34E9 JUMP JUMPDEST PUSH1 0x40 MLOAD DUP1 SWAP2 SUB SWAP1 RETURN JUMPDEST PUSH3 0x3AC PUSH3 0xBD0 JUMP JUMPDEST PUSH1 0x40 MLOAD PUSH3 0x3BB SWAP2 SWAP1 PUSH3 0x349F JUMP JUMPDEST PUSH1 0x40 MLOAD DUP1 SWAP2 SUB SWAP1 RETURN JUMPDEST PUSH3 0x3E2 PUSH1 0x4 DUP1 CALLDATASIZE SUB DUP2 ADD SWAP1 PUSH3 0x3DC SWAP2 SWAP1 PUSH3 0x2B7E JUMP JUMPDEST PUSH3 0xBD6 JUMP JUMPDEST STOP JUMPDEST PUSH3 0x402 PUSH1 0x4 DUP1 CALLDATASIZE SUB DUP2 ADD SWAP1 PUSH3 0x3FC SWAP2 SWAP1 PUSH3 0x2A4E JUMP JUMPDEST PUSH3 0xE85 JUMP JUMPDEST PUSH1 0x40 MLOAD PUSH3 0x411 SWAP2 SWAP1 PUSH3 0x3260 JUMP JUMPDEST PUSH1 0x40 MLOAD DUP1 SWAP2 SUB SWAP1 RETURN JUMPDEST PUSH3 0x424 PUSH3 0xEA5 JUMP JUMPDEST PUSH1 0x40 MLOAD PUSH3 0x434 SWAP3 SWAP2 SWAP1 PUSH3 0x3233 JUMP JUMPDEST PUSH1 0x40 MLOAD DUP1 SWAP2 SUB SWAP1 RETURN JUMPDEST PUSH3 0x45B PUSH1 0x4 DUP1 CALLDATASIZE SUB DUP2 ADD SWAP1 PUSH3 0x455 SWAP2 SWAP1 PUSH3 0x2A4E JUMP JUMPDEST PUSH3 0xF53 JUMP JUMPDEST PUSH1 0x40 MLOAD PUSH3 0x46A SWAP2 SWAP1 PUSH3 0x349F JUMP JUMPDEST PUSH1 0x40 MLOAD DUP1 SWAP2 SUB SWAP1 RETURN JUMPDEST PUSH3 0x47D PUSH3 0xF67 JUMP JUMPDEST PUSH1 0x40 MLOAD PUSH3 0x48C SWAP2 SWAP1 PUSH3 0x349F JUMP JUMPDEST PUSH1 0x40 MLOAD DUP1 SWAP2 SUB SWAP1 RETURN JUMPDEST PUSH3 0x4B3 PUSH1 0x4 DUP1 CALLDATASIZE SUB DUP2 ADD SWAP1 PUSH3 0x4AD SWAP2 SWAP1 PUSH3 0x2B7E JUMP JUMPDEST PUSH3 0x1012 JUMP JUMPDEST PUSH1 0x40 MLOAD PUSH3 0x4C2 SWAP2 SWAP1 PUSH3 0x349F JUMP JUMPDEST PUSH1 0x40 MLOAD DUP1 SWAP2 SUB SWAP1 RETURN JUMPDEST PUSH3 0x4E9 PUSH1 0x4 DUP1 CALLDATASIZE SUB DUP2 ADD SWAP1 PUSH3 0x4E3 SWAP2 SWAP1 PUSH3 0x2AE7 JUMP JUMPDEST PUSH3 0x1028 JUMP JUMPDEST PUSH1 0x40 MLOAD PUSH3 0x4F8 SWAP2 SWAP1 PUSH3 0x3260 JUMP JUMPDEST PUSH1 0x40 MLOAD DUP1 SWAP2 SUB SWAP1 RETURN JUMPDEST PUSH3 0x51F PUSH1 0x4 DUP1 CALLDATASIZE SUB DUP2 ADD SWAP1 PUSH3 0x519 SWAP2 SWAP1 PUSH3 0x2CA1 JUMP JUMPDEST PUSH3 0x1104 JUMP JUMPDEST STOP JUMPDEST PUSH3 0x52B PUSH3 0x11DC JUMP JUMPDEST PUSH1 0x40 MLOAD PUSH3 0x53A SWAP2 SWAP1 PUSH3 0x31BC JUMP JUMPDEST PUSH1 0x40 MLOAD DUP1 SWAP2 SUB SWAP1 RETURN JUMPDEST PUSH3 0x54D PUSH3 0x1200 JUMP JUMPDEST PUSH1 0x40 MLOAD PUSH3 0x55C SWAP2 SWAP1 PUSH3 0x332E JUMP JUMPDEST PUSH1 0x40 MLOAD DUP1 SWAP2 SUB SWAP1 RETURN JUMPDEST PUSH3 0x56F PUSH3 0x1239 JUMP JUMPDEST PUSH1 0x40 MLOAD PUSH3 0x57E SWAP2 SWAP1 PUSH3 0x32C7 JUMP JUMPDEST PUSH1 0x40 MLOAD DUP1 SWAP2 SUB SWAP1 RETURN JUMPDEST PUSH3 0x5A5 PUSH1 0x4 DUP1 CALLDATASIZE SUB DUP2 ADD SWAP1 PUSH3 0x59F SWAP2 SWAP1 PUSH3 0x2B3D JUMP JUMPDEST PUSH3 0x125F JUMP JUMPDEST STOP JUMPDEST PUSH3 0x5C5 PUSH1 0x4 DUP1 CALLDATASIZE SUB DUP2 ADD SWAP1 PUSH3 0x5BF SWAP2 SWAP1 PUSH3 0x2B7E JUMP JUMPDEST PUSH3 0x1386 JUMP JUMPDEST PUSH1 0x40 MLOAD PUSH3 0x5D4 SWAP2 SWAP1 PUSH3 0x3260 JUMP JUMPDEST PUSH1 0x40 MLOAD DUP1 SWAP2 SUB SWAP1 RETURN JUMPDEST PUSH3 0x5FB PUSH1 0x4 DUP1 CALLDATASIZE SUB DUP2 ADD SWAP1 PUSH3 0x5F5 SWAP2 SWAP1 PUSH3 0x2A4E JUMP JUMPDEST PUSH3 0x1461 JUMP JUMPDEST PUSH1 0x40 MLOAD PUSH3 0x60A SWAP2 SWAP1 PUSH3 0x349F JUMP JUMPDEST PUSH1 0x40 MLOAD DUP1 SWAP2 SUB SWAP1 RETURN JUMPDEST PUSH3 0x631 PUSH1 0x4 DUP1 CALLDATASIZE SUB DUP2 ADD SWAP1 PUSH3 0x62B SWAP2 SWAP1 PUSH3 0x2C2C JUMP JUMPDEST PUSH3 0x151B JUMP JUMPDEST STOP JUMPDEST PUSH3 0x651 PUSH1 0x4 DUP1 CALLDATASIZE SUB DUP2 ADD SWAP1 PUSH3 0x64B SWAP2 SWAP1 PUSH3 0x2C58 JUMP JUMPDEST PUSH3 0x164D JUMP JUMPDEST STOP JUMPDEST PUSH3 0x65D PUSH3 0x1734 JUMP JUMPDEST PUSH1 0x40 MLOAD PUSH3 0x66C SWAP2 SWAP1 PUSH3 0x349F JUMP JUMPDEST PUSH1 0x40 MLOAD DUP1 SWAP2 SUB SWAP1 RETURN JUMPDEST PUSH3 0x693 PUSH1 0x4 DUP1 CALLDATASIZE SUB DUP2 ADD SWAP1 PUSH3 0x68D SWAP2 SWAP1 PUSH3 0x2AA6 JUMP JUMPDEST PUSH3 0x1739 JUMP JUMPDEST PUSH1 0x40 MLOAD PUSH3 0x6A2 SWAP2 SWAP1 PUSH3 0x349F JUMP JUMPDEST PUSH1 0x40 MLOAD DUP1 SWAP2 SUB SWAP1 RETURN JUMPDEST PUSH3 0x6B5 PUSH3 0x174F JUMP JUMPDEST PUSH1 0x40 MLOAD PUSH3 0x6C4 SWAP2 SWAP1 PUSH3 0x349F JUMP JUMPDEST PUSH1 0x40 MLOAD DUP1 SWAP2 SUB SWAP1 RETURN JUMPDEST PUSH3 0x6EB PUSH1 0x4 DUP1 CALLDATASIZE SUB DUP2 ADD SWAP1 PUSH3 0x6E5 SWAP2 SWAP1 PUSH3 0x2B3D JUMP JUMPDEST PUSH3 0x17FA JUMP JUMPDEST STOP JUMPDEST PUSH1 0x3 DUP1 SLOAD PUSH3 0x6FC SWAP1 PUSH3 0x37AB JUMP JUMPDEST DUP1 PUSH1 0x1F ADD PUSH1 0x20 DUP1 SWAP2 DIV MUL PUSH1 0x20 ADD PUSH1 0x40 MLOAD SWAP1 DUP2 ADD PUSH1 0x40 MSTORE DUP1 SWAP3 SWAP2 SWAP1 DUP2 DUP2 MSTORE PUSH1 0x20 ADD DUP3 DUP1 SLOAD PUSH3 0x72A SWAP1 PUSH3 0x37AB JUMP JUMPDEST DUP1 ISZERO PUSH3 0x77B JUMPI DUP1 PUSH1 0x1F LT PUSH3 0x74F JUMPI PUSH2 0x100 DUP1 DUP4 SLOAD DIV MUL DUP4 MSTORE SWAP2 PUSH1 0x20 ADD SWAP2 PUSH3 0x77B JUMP JUMPDEST DUP3 ADD SWAP2 SWAP1 PUSH1 0x0 MSTORE PUSH1 0x20 PUSH1 0x0 KECCAK256 SWAP1 JUMPDEST DUP2 SLOAD DUP2 MSTORE SWAP1 PUSH1 0x1 ADD SWAP1 PUSH1 0x20 ADD DUP1 DUP4 GT PUSH3 0x75D JUMPI DUP3 SWAP1 SUB PUSH1 0x1F AND DUP3 ADD SWAP2 JUMPDEST POP POP POP POP POP DUP2 JUMP JUMPDEST PUSH1 0x0 PUSH1 0x7 SLOAD PUSH1 0x0 GASPRICE EQ DUP1 PUSH3 0x797 JUMPI POP GASLIMIT GAS GT JUMPDEST ISZERO PUSH3 0x842 JUMPI PUSH1 0x0 GAS SWAP1 POP PUSH3 0x7B2 CALLER CALLER DUP8 DUP8 PUSH1 0x1 PUSH3 0x1921 JUMP JUMPDEST PUSH1 0x1 SWAP3 POP PUSH1 0x0 GAS DUP3 PUSH3 0x7C6 SWAP2 SWAP1 PUSH3 0x364E JUMP JUMPDEST SWAP1 POP PUSH1 0x0 PUSH1 0x64 DUP5 DUP4 PUSH3 0x7DA SWAP2 SWAP1 PUSH3 0x35ED JUMP JUMPDEST PUSH3 0x7E6 SWAP2 SWAP1 PUSH3 0x35B5 JUMP JUMPDEST SWAP1 POP GAS SWAP3 POP JUMPDEST DUP1 GAS DUP5 PUSH3 0x7FB SWAP2 SWAP1 PUSH3 0x364E JUMP JUMPDEST LT ISZERO PUSH3 0x839 JUMPI PUSH1 0x1 SLOAD PUSH1 0x40 MLOAD PUSH1 0x20 ADD PUSH3 0x817 SWAP2 SWAP1 PUSH3 0x3132 JUMP JUMPDEST PUSH1 0x40 MLOAD PUSH1 0x20 DUP2 DUP4 SUB SUB DUP2 MSTORE SWAP1 PUSH1 0x40 MSTORE DUP1 MLOAD SWAP1 PUSH1 0x20 ADD KECCAK256 PUSH1 0x1 DUP2 SWAP1 SSTORE POP PUSH3 0x7EC JUMP JUMPDEST POP POP POP PUSH3 0x857 JUMP JUMPDEST PUSH3 0x852 CALLER CALLER DUP7 DUP7 PUSH1 0x1 PUSH3 0x1921 JUMP JUMPDEST PUSH1 0x1 SWAP2 POP JUMPDEST POP SWAP3 SWAP2 POP POP JUMP JUMPDEST PUSH1 0x0 DUP1 PUSH1 0x6 PUSH1 0x0 SWAP1 SLOAD SWAP1 PUSH2 0x100 EXP SWAP1 DIV PUSH20 0xFFFFFFFFFFFFFFFFFFFFFFFFFFFFFFFFFFFFFFFF AND PUSH20 0xFFFFFFFFFFFFFFFFFFFFFFFFFFFFFFFFFFFFFFFF AND PUSH4 0xE2095C07 DUP5 PUSH1 0x40 MLOAD DUP3 PUSH4 0xFFFFFFFF AND PUSH1 0xE0 SHL DUP2 MSTORE PUSH1 0x4 ADD PUSH3 0x8BE SWAP2 SWAP1 PUSH3 0x349F JUMP JUMPDEST PUSH1 0x40 DUP1 MLOAD DUP1 DUP4 SUB DUP2 DUP7 DUP1 EXTCODESIZE ISZERO DUP1 ISZERO PUSH3 0x8D6 JUMPI PUSH1 0x0 DUP1 REVERT JUMPDEST POP GAS STATICCALL ISZERO DUP1 ISZERO PUSH3 0x8EB JUMPI RETURNDATASIZE PUSH1 0x0 DUP1 RETURNDATACOPY RETURNDATASIZE PUSH1 0x0 REVERT JUMPDEST POP POP POP POP PUSH1 0x40 MLOAD RETURNDATASIZE PUSH1 0x1F NOT PUSH1 0x1F DUP3 ADD AND DUP3 ADD DUP1 PUSH1 0x40 MSTORE POP DUP2 ADD SWAP1 PUSH3 0x911 SWAP2 SWAP1 PUSH3 0x2BBF JUMP JUMPDEST SWAP2 POP SWAP2 POP SWAP2 POP SWAP2 JUMP JUMPDEST PUSH1 0x0 DUP3 PUSH20 0xFFFFFFFFFFFFFFFFFFFFFFFFFFFFFFFFFFFFFFFF AND CALLER PUSH20 0xFFFFFFFFFFFFFFFFFFFFFFFFFFFFFFFFFFFFFFFF AND PUSH32 0x8C5BE1E5EBEC7D5BD14F71427D1E84F3DD0314C0F7B2291E5B200AC8C7C3B925 DUP5 PUSH1 0x40 MLOAD PUSH3 0x97B SWAP2 SWAP1 PUSH3 0x349F JUMP JUMPDEST PUSH1 0x40 MLOAD DUP1 SWAP2 SUB SWAP1 LOG3 PUSH3 0x990 CALLER DUP5 DUP5 PUSH3 0x1DD4 JUMP JUMPDEST PUSH1 0x1 SWAP1 POP SWAP3 SWAP2 POP POP JUMP JUMPDEST PUSH1 0x0 DUP1 SLOAD SWAP1 PUSH2 0x100 EXP SWAP1 DIV PUSH20 0xFFFFFFFFFFFFFFFFFFFFFFFFFFFFFFFFFFFFFFFF AND PUSH20 0xFFFFFFFFFFFFFFFFFFFFFFFFFFFFFFFFFFFFFFFF AND CALLER PUSH20 0xFFFFFFFFFFFFFFFFFFFFFFFFFFFFFFFFFFFFFFFF AND EQ PUSH3 0xA2B JUMPI PUSH1 0x40 MLOAD PUSH32 0x8C379A000000000000000000000000000000000000000000000000000000000 DUP2 MSTORE PUSH1 0x4 ADD PUSH3 0xA22 SWAP1 PUSH3 0x347D JUMP JUMPDEST PUSH1 0x40 MLOAD DUP1 SWAP2 SUB SWAP1 REVERT JUMPDEST PUSH32 0x5C486528EC3E3F0EA91181CFF8116F02BFA350E03B8B6F12E00765ADBB5AF85C PUSH1 0x0 DUP1 SLOAD SWAP1 PUSH2 0x100 EXP SWAP1 DIV PUSH20 0xFFFFFFFFFFFFFFFFFFFFFFFFFFFFFFFFFFFFFFFF AND DUP3 PUSH1 0x40 MLOAD PUSH3 0xA7E SWAP3 SWAP2 SWAP1 PUSH3 0x31D9 JUMP JUMPDEST PUSH1 0x40 MLOAD DUP1 SWAP2 SUB SWAP1 LOG1 DUP1 PUSH1 0x0 DUP1 PUSH2 0x100 EXP DUP2 SLOAD DUP2 PUSH20 0xFFFFFFFFFFFFFFFFFFFFFFFFFFFFFFFFFFFFFFFF MUL NOT AND SWAP1 DUP4 PUSH20 0xFFFFFFFFFFFFFFFFFFFFFFFFFFFFFFFFFFFFFFFF AND MUL OR SWAP1 SSTORE POP POP JUMP JUMPDEST PUSH1 0x5 PUSH1 0x20 MSTORE DUP1 PUSH1 0x0 MSTORE PUSH1 0x40 PUSH1 0x0 KECCAK256 PUSH1 0x0 SWAP2 POP SLOAD SWAP1 PUSH2 0x100 EXP SWAP1 DIV PUSH1 0xFF AND DUP2 JUMP JUMPDEST PUSH1 0x2 SLOAD DUP2 JUMP JUMPDEST PUSH1 0x0 PUSH1 0x7 SLOAD PUSH1 0x0 GASPRICE EQ DUP1 PUSH3 0xB03 JUMPI POP GASLIMIT GAS GT JUMPDEST ISZERO PUSH3 0xBAE JUMPI PUSH1 0x0 GAS SWAP1 POP PUSH3 0xB1E CALLER DUP8 DUP8 DUP8 PUSH1 0x0 PUSH3 0x1921 JUMP JUMPDEST PUSH1 0x1 SWAP3 POP PUSH1 0x0 GAS DUP3 PUSH3 0xB32 SWAP2 SWAP1 PUSH3 0x364E JUMP JUMPDEST SWAP1 POP PUSH1 0x0 PUSH1 0x64 DUP5 DUP4 PUSH3 0xB46 SWAP2 SWAP1 PUSH3 0x35ED JUMP JUMPDEST PUSH3 0xB52 SWAP2 SWAP1 PUSH3 0x35B5 JUMP JUMPDEST SWAP1 POP GAS SWAP3 POP JUMPDEST DUP1 GAS DUP5 PUSH3 0xB67 SWAP2 SWAP1 PUSH3 0x364E JUMP JUMPDEST LT ISZERO PUSH3 0xBA5 JUMPI PUSH1 0x1 SLOAD PUSH1 0x40 MLOAD PUSH1 0x20 ADD PUSH3 0xB83 SWAP2 SWAP1 PUSH3 0x3132 JUMP JUMPDEST PUSH1 0x40 MLOAD PUSH1 0x20 DUP2 DUP4 SUB SUB DUP2 MSTORE SWAP1 PUSH1 0x40 MSTORE DUP1 MLOAD SWAP1 PUSH1 0x20 ADD KECCAK256 PUSH1 0x1 DUP2 SWAP1 SSTORE POP PUSH3 0xB58 JUMP JUMPDEST POP POP POP PUSH3 0xBC3 JUMP JUMPDEST PUSH3 0xBBE CALLER DUP7 DUP7 DUP7 PUSH1 0x0 PUSH3 0x1921 JUMP JUMPDEST PUSH1 0x1 SWAP2 POP JUMPDEST POP SWAP4 SWAP3 POP POP POP JUMP JUMPDEST PUSH1 0x12 DUP2 JUMP JUMPDEST PUSH1 0x7 SLOAD DUP2 JUMP JUMPDEST PUSH1 0x8 PUSH1 0x0 SWAP1 SLOAD SWAP1 PUSH2 0x100 EXP SWAP1 DIV PUSH1 0xFF AND ISZERO PUSH3 0xC1B JUMPI PUSH32 0x4E487B7100000000000000000000000000000000000000000000000000000000 PUSH1 0x0 MSTORE PUSH1 0x1 PUSH1 0x4 MSTORE PUSH1 0x24 PUSH1 0x0 REVERT JUMPDEST PUSH1 0x1 PUSH1 0x8 PUSH1 0x0 PUSH2 0x100 EXP DUP2 SLOAD DUP2 PUSH1 0xFF MUL NOT AND SWAP1 DUP4 ISZERO ISZERO MUL OR SWAP1 SSTORE POP PUSH1 0x0 PUSH1 0x2 SLOAD EQ PUSH3 0xC70 JUMPI PUSH32 0x4E487B7100000000000000000000000000000000000000000000000000000000 PUSH1 0x0 MSTORE PUSH1 0x1 PUSH1 0x4 MSTORE PUSH1 0x24 PUSH1 0x0 REVERT JUMPDEST PUSH1 0x0 PUSH20 0xFFFFFFFFFFFFFFFFFFFFFFFFFFFFFFFFFFFFFFFF AND PUSH1 0x6 PUSH1 0x0 SWAP1 SLOAD SWAP1 PUSH2 0x100 EXP SWAP1 DIV PUSH20 0xFFFFFFFFFFFFFFFFFFFFFFFFFFFFFFFFFFFFFFFF AND PUSH20 0xFFFFFFFFFFFFFFFFFFFFFFFFFFFFFFFFFFFFFFFF AND EQ PUSH3 0xCF6 JUMPI PUSH32 0x4E487B7100000000000000000000000000000000000000000000000000000000 PUSH1 0x0 MSTORE PUSH1 0x1 PUSH1 0x4 MSTORE PUSH1 0x24 PUSH1 0x0 REVERT JUMPDEST PUSH1 0x40 MLOAD PUSH3 0xD04 SWAP1 PUSH3 0x2894 JUMP JUMPDEST PUSH1 0x40 MLOAD DUP1 SWAP2 SUB SWAP1 PUSH1 0x0 CREATE DUP1 ISZERO DUP1 ISZERO PUSH3 0xD21 JUMPI RETURNDATASIZE PUSH1 0x0 DUP1 RETURNDATACOPY RETURNDATASIZE PUSH1 0x0 REVERT JUMPDEST POP PUSH1 0x6 PUSH1 0x0 PUSH2 0x100 EXP DUP2 SLOAD DUP2 PUSH20 0xFFFFFFFFFFFFFFFFFFFFFFFFFFFFFFFFFFFFFFFF MUL NOT AND SWAP1 DUP4 PUSH20 0xFFFFFFFFFFFFFFFFFFFFFFFFFFFFFFFFFFFFFFFF AND MUL OR SWAP1 SSTORE POP PUSH32 0x4B388B1AA01B2653AF632DA9D80CCA5CFE489300086D04070FCA9DC860629D4F PUSH1 0x0 PUSH1 0x6 PUSH1 0x0 SWAP1 SLOAD SWAP1 PUSH2 0x100 EXP SWAP1 DIV PUSH20 0xFFFFFFFFFFFFFFFFFFFFFFFFFFFFFFFFFFFFFFFF AND PUSH1 0x40 MLOAD PUSH3 0xDB8 SWAP3 SWAP2 SWAP1 PUSH3 0x31D9 JUMP JUMPDEST PUSH1 0x40 MLOAD DUP1 SWAP2 SUB SWAP1 LOG1 PUSH1 0xF PUSH1 0x7 DUP2 SWAP1 SSTORE POP PUSH32 0xCC8F22BDBD4465D62F4861F9DCC3C020CBF6F3EDE75C5D0EEBF924F06F23B1C9 PUSH1 0x0 PUSH1 0x7 SLOAD PUSH1 0x40 MLOAD PUSH3 0xDFE SWAP3 SWAP2 SWAP1 PUSH3 0x3301 JUMP JUMPDEST PUSH1 0x40 MLOAD DUP1 SWAP2 SUB SWAP1 LOG1 DUP2 PUSH20 0xFFFFFFFFFFFFFFFFFFFFFFFFFFFFFFFFFFFFFFFF AND PUSH1 0x0 PUSH20 0xFFFFFFFFFFFFFFFFFFFFFFFFFFFFFFFFFFFFFFFF AND PUSH32 0xDDF252AD1BE2C89B69C2B068FC378DAA952BA7F163C4A11628F55A4DF523B3EF DUP4 PUSH1 0x40 MLOAD PUSH3 0xE66 SWAP2 SWAP1 PUSH3 0x349F JUMP JUMPDEST PUSH1 0x40 MLOAD DUP1 SWAP2 SUB SWAP1 LOG3 PUSH3 0xE7A DUP3 DUP3 PUSH3 0x1E25 JUMP JUMPDEST DUP1 PUSH1 0x2 DUP2 SWAP1 SSTORE POP POP POP JUMP JUMPDEST PUSH1 0x4 PUSH1 0x20 MSTORE DUP1 PUSH1 0x0 MSTORE PUSH1 0x40 PUSH1 0x0 KECCAK256 PUSH1 0x0 SWAP2 POP SLOAD SWAP1 PUSH2 0x100 EXP SWAP1 DIV PUSH1 0xFF AND DUP2 JUMP JUMPDEST PUSH1 0x0 DUP1 PUSH1 0x6 PUSH1 0x0 SWAP1 SLOAD SWAP1 PUSH2 0x100 EXP SWAP1 DIV PUSH20 0xFFFFFFFFFFFFFFFFFFFFFFFFFFFFFFFFFFFFFFFF AND PUSH20 0xFFFFFFFFFFFFFFFFFFFFFFFFFFFFFFFFFFFFFFFF AND PUSH4 0xFE6DCDBA PUSH1 0x40 MLOAD DUP2 PUSH4 0xFFFFFFFF AND PUSH1 0xE0 SHL DUP2 MSTORE PUSH1 0x4 ADD PUSH1 0x40 DUP1 MLOAD DUP1 DUP4 SUB DUP2 DUP7 DUP1 EXTCODESIZE ISZERO DUP1 ISZERO PUSH3 0xF10 JUMPI PUSH1 0x0 DUP1 REVERT JUMPDEST POP GAS STATICCALL ISZERO DUP1 ISZERO PUSH3 0xF25 JUMPI RETURNDATASIZE PUSH1 0x0 DUP1 RETURNDATACOPY RETURNDATASIZE PUSH1 0x0 REVERT JUMPDEST POP POP POP POP PUSH1 0x40 MLOAD RETURNDATASIZE PUSH1 0x1F NOT PUSH1 0x1F DUP3 ADD AND DUP3 ADD DUP1 PUSH1 0x40 MSTORE POP DUP2 ADD SWAP1 PUSH3 0xF4B SWAP2 SWAP1 PUSH3 0x2BBF JUMP JUMPDEST SWAP2 POP SWAP2 POP SWAP1 SWAP2 JUMP JUMPDEST PUSH1 0x0 PUSH3 0xF60 DUP3 PUSH3 0x1F00 JUMP JUMPDEST SWAP1 POP SWAP2 SWAP1 POP JUMP JUMPDEST PUSH1 0x0 PUSH1 0x6 PUSH1 0x0 SWAP1 SLOAD SWAP1 PUSH2 0x100 EXP SWAP1 DIV PUSH20 0xFFFFFFFFFFFFFFFFFFFFFFFFFFFFFFFFFFFFFFFF AND PUSH20 0xFFFFFFFFFFFFFFFFFFFFFFFFFFFFFFFFFFFFFFFF AND PUSH4 0x7C32CDD1 PUSH1 0x40 MLOAD DUP2 PUSH4 0xFFFFFFFF AND PUSH1 0xE0 SHL DUP2 MSTORE PUSH1 0x4 ADD PUSH1 0x20 PUSH1 0x40 MLOAD DUP1 DUP4 SUB DUP2 DUP7 DUP1 EXTCODESIZE ISZERO DUP1 ISZERO PUSH3 0xFD2 JUMPI PUSH1 0x0 DUP1 REVERT JUMPDEST POP GAS STATICCALL ISZERO DUP1 ISZERO PUSH3 0xFE7 JUMPI RETURNDATASIZE PUSH1 0x0 DUP1 RETURNDATACOPY RETURNDATASIZE PUSH1 0x0 REVERT JUMPDEST POP POP POP POP PUSH1 0x40 MLOAD RETURNDATASIZE PUSH1 0x1F NOT PUSH1 0x1F DUP3 ADD AND DUP3 ADD DUP1 PUSH1 0x40 MSTORE POP DUP2 ADD SWAP1 PUSH3 0x100D SWAP2 SWAP1 PUSH3 0x2CCD JUMP JUMPDEST SWAP1 POP SWAP1 JUMP JUMPDEST PUSH1 0x0 PUSH3 0x1020 DUP4 DUP4 PUSH3 0x1F4B JUMP JUMPDEST SWAP1 POP SWAP3 SWAP2 POP POP JUMP JUMPDEST PUSH1 0x0 PUSH1 0x7 SLOAD PUSH1 0x0 GASPRICE EQ DUP1 PUSH3 0x103C JUMPI POP GASLIMIT GAS GT JUMPDEST ISZERO PUSH3 0x10E7 JUMPI PUSH1 0x0 GAS SWAP1 POP PUSH3 0x1057 CALLER DUP8 DUP8 DUP8 PUSH1 0x1 PUSH3 0x1921 JUMP JUMPDEST PUSH1 0x1 SWAP3 POP PUSH1 0x0 GAS DUP3 PUSH3 0x106B SWAP2 SWAP1 PUSH3 0x364E JUMP JUMPDEST SWAP1 POP PUSH1 0x0 PUSH1 0x64 DUP5 DUP4 PUSH3 0x107F SWAP2 SWAP1 PUSH3 0x35ED JUMP JUMPDEST PUSH3 0x108B SWAP2 SWAP1 PUSH3 0x35B5 JUMP JUMPDEST SWAP1 POP GAS SWAP3 POP JUMPDEST DUP1 GAS DUP5 PUSH3 0x10A0 SWAP2 SWAP1 PUSH3 0x364E JUMP JUMPDEST LT ISZERO PUSH3 0x10DE JUMPI PUSH1 0x1 SLOAD PUSH1 0x40 MLOAD PUSH1 0x20 ADD PUSH3 0x10BC SWAP2 SWAP1 PUSH3 0x3132 JUMP JUMPDEST PUSH1 0x40 MLOAD PUSH1 0x20 DUP2 DUP4 SUB SUB DUP2 MSTORE SWAP1 PUSH1 0x40 MSTORE DUP1 MLOAD SWAP1 PUSH1 0x20 ADD KECCAK256 PUSH1 0x1 DUP2 SWAP1 SSTORE POP PUSH3 0x1091 JUMP JUMPDEST POP POP POP PUSH3 0x10FC JUMP JUMPDEST PUSH3 0x10F7 CALLER DUP7 DUP7 DUP7 PUSH1 0x1 PUSH3 0x1921 JUMP JUMPDEST PUSH1 0x1 SWAP2 POP JUMPDEST POP SWAP4 SWAP3 POP POP POP JUMP JUMPDEST PUSH1 0x0 DUP1 SLOAD SWAP1 PUSH2 0x100 EXP SWAP1 DIV PUSH20 0xFFFFFFFFFFFFFFFFFFFFFFFFFFFFFFFFFFFFFFFF AND PUSH20 0xFFFFFFFFFFFFFFFFFFFFFFFFFFFFFFFFFFFFFFFF AND CALLER PUSH20 0xFFFFFFFFFFFFFFFFFFFFFFFFFFFFFFFFFFFFFFFF AND EQ PUSH3 0x1195 JUMPI PUSH1 0x40 MLOAD PUSH32 0x8C379A000000000000000000000000000000000000000000000000000000000 DUP2 MSTORE PUSH1 0x4 ADD PUSH3 0x118C SWAP1 PUSH3 0x347D JUMP JUMPDEST PUSH1 0x40 MLOAD DUP1 SWAP2 SUB SWAP1 REVERT JUMPDEST PUSH32 0xCC8F22BDBD4465D62F4861F9DCC3C020CBF6F3EDE75C5D0EEBF924F06F23B1C9 PUSH1 0x7 SLOAD DUP3 PUSH1 0x40 MLOAD PUSH3 0x11CA SWAP3 SWAP2 SWAP1 PUSH3 0x34BC JUMP JUMPDEST PUSH1 0x40 MLOAD DUP1 SWAP2 SUB SWAP1 LOG1 DUP1 PUSH1 0x7 DUP2 SWAP1 SSTORE POP POP JUMP JUMPDEST PUSH1 0x0 DUP1 SLOAD SWAP1 PUSH2 0x100 EXP SWAP1 DIV PUSH20 0xFFFFFFFFFFFFFFFFFFFFFFFFFFFFFFFFFFFFFFFF AND DUP2 JUMP JUMPDEST PUSH1 0x40 MLOAD DUP1 PUSH1 0x40 ADD PUSH1 0x40 MSTORE DUP1 PUSH1 0x3 DUP2 MSTORE PUSH1 0x20 ADD PUSH32 0x4E5A540000000000000000000000000000000000000000000000000000000000 DUP2 MSTORE POP DUP2 JUMP JUMPDEST PUSH1 0x6 PUSH1 0x0 SWAP1 SLOAD SWAP1 PUSH2 0x100 EXP SWAP1 DIV PUSH20 0xFFFFFFFFFFFFFFFFFFFFFFFFFFFFFFFFFFFFFFFF AND DUP2 JUMP JUMPDEST PUSH1 0x0 DUP1 SLOAD SWAP1 PUSH2 0x100 EXP SWAP1 DIV PUSH20 0xFFFFFFFFFFFFFFFFFFFFFFFFFFFFFFFFFFFFFFFF AND PUSH20 0xFFFFFFFFFFFFFFFFFFFFFFFFFFFFFFFFFFFFFFFF AND CALLER PUSH20 0xFFFFFFFFFFFFFFFFFFFFFFFFFFFFFFFFFFFFFFFF AND EQ PUSH3 0x12F0 JUMPI PUSH1 0x40 MLOAD PUSH32 0x8C379A000000000000000000000000000000000000000000000000000000000 DUP2 MSTORE PUSH1 0x4 ADD PUSH3 0x12E7 SWAP1 PUSH3 0x347D JUMP JUMPDEST PUSH1 0x40 MLOAD DUP1 SWAP2 SUB SWAP1 REVERT JUMPDEST PUSH32 0x88CF9B943F64811022537EE9F0141770D85E612EAE3A3A39241ABE5CA9F11382 DUP3 DUP3 PUSH1 0x40 MLOAD PUSH3 0x1323 SWAP3 SWAP2 SWAP1 PUSH3 0x3206 JUMP JUMPDEST PUSH1 0x40 MLOAD DUP1 SWAP2 SUB SWAP1 LOG1 DUP1 PUSH1 0x5 PUSH1 0x0 DUP5 PUSH20 0xFFFFFFFFFFFFFFFFFFFFFFFFFFFFFFFFFFFFFFFF AND PUSH20 0xFFFFFFFFFFFFFFFFFFFFFFFFFFFFFFFFFFFFFFFF AND DUP2 MSTORE PUSH1 0x20 ADD SWAP1 DUP2 MSTORE PUSH1 0x20 ADD PUSH1 0x0 KECCAK256 PUSH1 0x0 PUSH2 0x100 EXP DUP2 SLOAD DUP2 PUSH1 0xFF MUL NOT AND SWAP1 DUP4 ISZERO ISZERO MUL OR SWAP1 SSTORE POP POP POP JUMP JUMPDEST PUSH1 0x0 PUSH1 0x7 SLOAD PUSH1 0x0 GASPRICE EQ DUP1 PUSH3 0x139A JUMPI POP GASLIMIT GAS GT JUMPDEST ISZERO PUSH3 0x1445 JUMPI PUSH1 0x0 GAS SWAP1 POP PUSH3 0x13B5 CALLER CALLER DUP8 DUP8 PUSH1 0x0 PUSH3 0x1921 JUMP JUMPDEST PUSH1 0x1 SWAP3 POP PUSH1 0x0 GAS DUP3 PUSH3 0x13C9 SWAP2 SWAP1 PUSH3 0x364E JUMP JUMPDEST SWAP1 POP PUSH1 0x0 PUSH1 0x64 DUP5 DUP4 PUSH3 0x13DD SWAP2 SWAP1 PUSH3 0x35ED JUMP JUMPDEST PUSH3 0x13E9 SWAP2 SWAP1 PUSH3 0x35B5 JUMP JUMPDEST SWAP1 POP GAS SWAP3 POP JUMPDEST DUP1 GAS DUP5 PUSH3 0x13FE SWAP2 SWAP1 PUSH3 0x364E JUMP JUMPDEST LT ISZERO PUSH3 0x143C JUMPI PUSH1 0x1 SLOAD PUSH1 0x40 MLOAD PUSH1 0x20 ADD PUSH3 0x141A SWAP2 SWAP1 PUSH3 0x3132 JUMP JUMPDEST PUSH1 0x40 MLOAD PUSH1 0x20 DUP2 DUP4 SUB SUB DUP2 MSTORE SWAP1 PUSH1 0x40 MSTORE DUP1 MLOAD SWAP1 PUSH1 0x20 ADD KECCAK256 PUSH1 0x1 DUP2 SWAP1 SSTORE POP PUSH3 0x13EF JUMP JUMPDEST POP POP POP PUSH3 0x145A JUMP JUMPDEST PUSH3 0x1455 CALLER CALLER DUP7 DUP7 PUSH1 0x0 PUSH3 0x1921 JUMP JUMPDEST PUSH1 0x1 SWAP2 POP JUMPDEST POP SWAP3 SWAP2 POP POP JUMP JUMPDEST PUSH1 0x0 PUSH1 0x6 PUSH1 0x0 SWAP1 SLOAD SWAP1 PUSH2 0x100 EXP SWAP1 DIV PUSH20 0xFFFFFFFFFFFFFFFFFFFFFFFFFFFFFFFFFFFFFFFF AND PUSH20 0xFFFFFFFFFFFFFFFFFFFFFFFFFFFFFFFFFFFFFFFF AND PUSH4 0xFD6AAD25 DUP4 PUSH1 0x40 MLOAD DUP3 PUSH4 0xFFFFFFFF AND PUSH1 0xE0 SHL DUP2 MSTORE PUSH1 0x4 ADD PUSH3 0x14C0 SWAP2 SWAP1 PUSH3 0x31BC JUMP JUMPDEST PUSH1 0x20 PUSH1 0x40 MLOAD DUP1 DUP4 SUB DUP2 DUP7 DUP1 EXTCODESIZE ISZERO DUP1 ISZERO PUSH3 0x14D9 JUMPI PUSH1 0x0 DUP1 REVERT JUMPDEST POP GAS STATICCALL ISZERO DUP1 ISZERO PUSH3 0x14EE JUMPI RETURNDATASIZE PUSH1 0x0 DUP1 RETURNDATACOPY RETURNDATASIZE PUSH1 0x0 REVERT JUMPDEST POP POP POP POP PUSH1 0x40 MLOAD RETURNDATASIZE PUSH1 0x1F NOT PUSH1 0x1F DUP3 ADD AND DUP3 ADD DUP1 PUSH1 0x40 MSTORE POP DUP2 ADD SWAP1 PUSH3 0x1514 SWAP2 SWAP1 PUSH3 0x2CCD JUMP JUMPDEST SWAP1 POP SWAP2 SWAP1 POP JUMP JUMPDEST PUSH1 0x0 DUP1 SLOAD SWAP1 PUSH2 0x100 EXP SWAP1 DIV PUSH20 0xFFFFFFFFFFFFFFFFFFFFFFFFFFFFFFFFFFFFFFFF AND PUSH20 0xFFFFFFFFFFFFFFFFFFFFFFFFFFFFFFFFFFFFFFFF AND CALLER PUSH20 0xFFFFFFFFFFFFFFFFFFFFFFFFFFFFFFFFFFFFFFFF AND EQ PUSH3 0x15AC JUMPI PUSH1 0x40 MLOAD PUSH32 0x8C379A000000000000000000000000000000000000000000000000000000000 DUP2 MSTORE PUSH1 0x4 ADD PUSH3 0x15A3 SWAP1 PUSH3 0x347D JUMP JUMPDEST PUSH1 0x40 MLOAD DUP1 SWAP2 SUB SWAP1 REVERT JUMPDEST PUSH32 0x4B388B1AA01B2653AF632DA9D80CCA5CFE489300086D04070FCA9DC860629D4F PUSH1 0x6 PUSH1 0x0 SWAP1 SLOAD SWAP1 PUSH2 0x100 EXP SWAP1 DIV PUSH20 0xFFFFFFFFFFFFFFFFFFFFFFFFFFFFFFFFFFFFFFFF AND DUP3 PUSH1 0x40 MLOAD PUSH3 0x1601 SWAP3 SWAP2 SWAP1 PUSH3 0x31D9 JUMP JUMPDEST PUSH1 0x40 MLOAD DUP1 SWAP2 SUB SWAP1 LOG1 DUP1 PUSH1 0x6 PUSH1 0x0 PUSH2 0x100 EXP DUP2 SLOAD DUP2 PUSH20 0xFFFFFFFFFFFFFFFFFFFFFFFFFFFFFFFFFFFFFFFF MUL NOT AND SWAP1 DUP4 PUSH20 0xFFFFFFFFFFFFFFFFFFFFFFFFFFFFFFFFFFFFFFFF AND MUL OR SWAP1 SSTORE POP POP JUMP JUMPDEST PUSH1 0x0 DUP1 SLOAD SWAP1 PUSH2 0x100 EXP SWAP1 DIV PUSH20 0xFFFFFFFFFFFFFFFFFFFFFFFFFFFFFFFFFFFFFFFF AND PUSH20 0xFFFFFFFFFFFFFFFFFFFFFFFFFFFFFFFFFFFFFFFF AND CALLER PUSH20 0xFFFFFFFFFFFFFFFFFFFFFFFFFFFFFFFFFFFFFFFF AND EQ PUSH3 0x16DE JUMPI PUSH1 0x40 MLOAD PUSH32 0x8C379A000000000000000000000000000000000000000000000000000000000 DUP2 MSTORE PUSH1 0x4 ADD PUSH3 0x16D5 SWAP1 PUSH3 0x347D JUMP JUMPDEST PUSH1 0x40 MLOAD DUP1 SWAP2 SUB SWAP1 REVERT JUMPDEST PUSH32 0xBCFC2E8E6857CA26084BA5543A45251AAF7690F73043FFF1D18C7D5F80E5CBB1 PUSH1 0x3 DUP4 DUP4 PUSH1 0x40 MLOAD PUSH3 0x1714 SWAP4 SWAP3 SWAP2 SWAP1 PUSH3 0x3352 JUMP JUMPDEST PUSH1 0x40 MLOAD DUP1 SWAP2 SUB SWAP1 LOG1 DUP2 DUP2 PUSH1 0x3 SWAP2 SWAP1 PUSH3 0x172F SWAP3 SWAP2 SWAP1 PUSH3 0x28A2 JUMP JUMPDEST POP POP POP JUMP JUMPDEST PUSH1 0x64 DUP2 JUMP JUMPDEST PUSH1 0x0 PUSH3 0x1747 DUP4 DUP4 PUSH3 0x1F9F JUMP JUMPDEST SWAP1 POP SWAP3 SWAP2 POP POP JUMP JUMPDEST PUSH1 0x0 PUSH1 0x6 PUSH1 0x0 SWAP1 SLOAD SWAP1 PUSH2 0x100 EXP SWAP1 DIV PUSH20 0xFFFFFFFFFFFFFFFFFFFFFFFFFFFFFFFFFFFFFFFF AND PUSH20 0xFFFFFFFFFFFFFFFFFFFFFFFFFFFFFFFFFFFFFFFF AND PUSH4 0x949D225D PUSH1 0x40 MLOAD DUP2 PUSH4 0xFFFFFFFF AND PUSH1 0xE0 SHL DUP2 MSTORE PUSH1 0x4 ADD PUSH1 0x20 PUSH1 0x40 MLOAD DUP1 DUP4 SUB DUP2 DUP7 DUP1 EXTCODESIZE ISZERO DUP1 ISZERO PUSH3 0x17BA JUMPI PUSH1 0x0 DUP1 REVERT JUMPDEST POP GAS STATICCALL ISZERO DUP1 ISZERO PUSH3 0x17CF JUMPI RETURNDATASIZE PUSH1 0x0 DUP1 RETURNDATACOPY RETURNDATASIZE PUSH1 0x0 REVERT JUMPDEST POP POP POP POP PUSH1 0x40 MLOAD RETURNDATASIZE PUSH1 0x1F NOT PUSH1 0x1F DUP3 ADD AND DUP3 ADD DUP1 PUSH1 0x40 MSTORE POP DUP2 ADD SWAP1 PUSH3 0x17F5 SWAP2 SWAP1 PUSH3 0x2CCD JUMP JUMPDEST SWAP1 POP SWAP1 JUMP JUMPDEST PUSH1 0x0 DUP1 SLOAD SWAP1 PUSH2 0x100 EXP SWAP1 DIV PUSH20 0xFFFFFFFFFFFFFFFFFFFFFFFFFFFFFFFFFFFFFFFF AND PUSH20 0xFFFFFFFFFFFFFFFFFFFFFFFFFFFFFFFFFFFFFFFF AND CALLER PUSH20 0xFFFFFFFFFFFFFFFFFFFFFFFFFFFFFFFFFFFFFFFF AND EQ PUSH3 0x188B JUMPI PUSH1 0x40 MLOAD PUSH32 0x8C379A000000000000000000000000000000000000000000000000000000000 DUP2 MSTORE PUSH1 0x4 ADD PUSH3 0x1882 SWAP1 PUSH3 0x347D JUMP JUMPDEST PUSH1 0x40 MLOAD DUP1 SWAP2 SUB SWAP1 REVERT JUMPDEST PUSH32 0xC3D26C130D120A4BB874DE56C8B5FB727AD2CFC3551CA49CD42EF248E893B69A DUP3 DUP3 PUSH1 0x40 MLOAD PUSH3 0x18BE SWAP3 SWAP2 SWAP1 PUSH3 0x3206 JUMP JUMPDEST PUSH1 0x40 MLOAD DUP1 SWAP2 SUB SWAP1 LOG1 DUP1 PUSH1 0x4 PUSH1 0x0 DUP5 PUSH20 0xFFFFFFFFFFFFFFFFFFFFFFFFFFFFFFFFFFFFFFFF AND PUSH20 0xFFFFFFFFFFFFFFFFFFFFFFFFFFFFFFFFFFFFFFFF AND DUP2 MSTORE PUSH1 0x20 ADD SWAP1 DUP2 MSTORE PUSH1 0x20 ADD PUSH1 0x0 KECCAK256 PUSH1 0x0 PUSH2 0x100 EXP DUP2 SLOAD DUP2 PUSH1 0xFF MUL NOT AND SWAP1 DUP4 ISZERO ISZERO MUL OR SWAP1 SSTORE POP POP POP JUMP JUMPDEST PUSH1 0x0 DUP3 EQ ISZERO PUSH3 0x1999 JUMPI DUP3 PUSH20 0xFFFFFFFFFFFFFFFFFFFFFFFFFFFFFFFFFFFFFFFF AND DUP5 PUSH20 0xFFFFFFFFFFFFFFFFFFFFFFFFFFFFFFFFFFFFFFFF AND PUSH32 0xDDF252AD1BE2C89B69C2B068FC378DAA952BA7F163C4A11628F55A4DF523B3EF PUSH1 0x0 PUSH1 0x40 MLOAD PUSH3 0x198B SWAP2 SWAP1 PUSH3 0x32E4 JUMP JUMPDEST PUSH1 0x40 MLOAD DUP1 SWAP2 SUB SWAP1 LOG3 PUSH3 0x1DCD JUMP JUMPDEST PUSH1 0x0 PUSH3 0x19A6 DUP6 PUSH3 0x1F00 JUMP JUMPDEST SWAP1 POP DUP3 DUP2 LT ISZERO PUSH3 0x19EE JUMPI PUSH1 0x40 MLOAD PUSH32 0x8C379A000000000000000000000000000000000000000000000000000000000 DUP2 MSTORE PUSH1 0x4 ADD PUSH3 0x19E5 SWAP1 PUSH3 0x33B1 JUMP JUMPDEST PUSH1 0x40 MLOAD DUP1 SWAP2 SUB SWAP1 REVERT JUMPDEST DUP6 PUSH20 0xFFFFFFFFFFFFFFFFFFFFFFFFFFFFFFFFFFFFFFFF AND DUP6 PUSH20 0xFFFFFFFFFFFFFFFFFFFFFFFFFFFFFFFFFFFFFFFF AND EQ PUSH3 0x1AC4 JUMPI PUSH1 0x0 PUSH3 0x1A30 DUP7 DUP9 PUSH3 0x1F9F JUMP JUMPDEST SWAP1 POP PUSH32 0xFFFFFFFFFFFFFFFFFFFFFFFFFFFFFFFFFFFFFFFFFFFFFFFFFFFFFFFFFFFFFFFF DUP2 EQ PUSH3 0x1AC2 JUMPI DUP4 DUP2 LT ISZERO PUSH3 0x1AA0 JUMPI PUSH1 0x40 MLOAD PUSH32 0x8C379A000000000000000000000000000000000000000000000000000000000 DUP2 MSTORE PUSH1 0x4 ADD PUSH3 0x1A97 SWAP1 PUSH3 0x3439 JUMP JUMPDEST PUSH1 0x40 MLOAD DUP1 SWAP2 SUB SWAP1 REVERT JUMPDEST PUSH3 0x1AC1 DUP7 DUP9 PUSH3 0x1ABB DUP8 DUP6 PUSH3 0x1FF3 SWAP1 SWAP2 SWAP1 PUSH4 0xFFFFFFFF AND JUMP JUMPDEST PUSH3 0x1DD4 JUMP JUMPDEST JUMPDEST POP JUMPDEST PUSH1 0x0 DUP4 SWAP1 POP PUSH1 0x0 DUP1 PUSH3 0x1AEC DUP9 PUSH3 0x1AE6 DUP9 DUP8 PUSH3 0x1FF3 SWAP1 SWAP2 SWAP1 PUSH4 0xFFFFFFFF AND JUMP JUMPDEST PUSH3 0x1E25 JUMP JUMPDEST DUP5 DUP1 PUSH3 0x1B02 JUMPI POP PUSH3 0x1B00 DUP9 DUP9 PUSH3 0x2051 JUMP JUMPDEST ISZERO JUMPDEST ISZERO PUSH3 0x1CD8 JUMPI PUSH3 0x1B1E PUSH1 0x64 DUP8 PUSH3 0x20FD SWAP1 SWAP2 SWAP1 PUSH4 0xFFFFFFFF AND JUMP JUMPDEST SWAP2 POP PUSH1 0x1 DUP7 EQ PUSH3 0x1B30 JUMPI DUP2 PUSH3 0x1B33 JUMP JUMPDEST PUSH1 0x0 JUMPDEST SWAP1 POP PUSH3 0x1B5E PUSH3 0x1B4E DUP3 DUP5 PUSH3 0x2189 SWAP1 SWAP2 SWAP1 PUSH4 0xFFFFFFFF AND JUMP JUMPDEST DUP5 PUSH3 0x1FF3 SWAP1 SWAP2 SWAP1 PUSH4 0xFFFFFFFF AND JUMP JUMPDEST SWAP3 POP PUSH3 0x1B77 DUP3 PUSH1 0x2 SLOAD PUSH3 0x1FF3 SWAP1 SWAP2 SWAP1 PUSH4 0xFFFFFFFF AND JUMP JUMPDEST PUSH1 0x2 DUP2 SWAP1 SSTORE POP PUSH1 0x0 PUSH20 0xFFFFFFFFFFFFFFFFFFFFFFFFFFFFFFFFFFFFFFFF AND DUP9 PUSH20 0xFFFFFFFFFFFFFFFFFFFFFFFFFFFFFFFFFFFFFFFF AND PUSH32 0xDDF252AD1BE2C89B69C2B068FC378DAA952BA7F163C4A11628F55A4DF523B3EF DUP5 PUSH1 0x40 MLOAD PUSH3 0x1BDD SWAP2 SWAP1 PUSH3 0x349F JUMP JUMPDEST PUSH1 0x40 MLOAD DUP1 SWAP2 SUB SWAP1 LOG3 PUSH1 0x0 PUSH3 0x1BF3 DUP10 DUP9 PUSH3 0x21EC JUMP JUMPDEST SWAP1 POP PUSH3 0x1C1F DUP2 PUSH3 0x1C19 DUP5 PUSH3 0x1C0A DUP6 PUSH3 0x1F00 JUMP JUMPDEST PUSH3 0x2189 SWAP1 SWAP2 SWAP1 PUSH4 0xFFFFFFFF AND JUMP JUMPDEST PUSH3 0x1E25 JUMP JUMPDEST DUP1 PUSH20 0xFFFFFFFFFFFFFFFFFFFFFFFFFFFFFFFFFFFFFFFF AND PUSH32 0x9C2270628A9B29D30AE96B6C4C14ED646EE134FEBDCE38A5B77F2BDE9CEA2E20 DUP4 PUSH1 0x40 MLOAD PUSH3 0x1C67 SWAP2 SWAP1 PUSH3 0x349F JUMP JUMPDEST PUSH1 0x40 MLOAD DUP1 SWAP2 SUB SWAP1 LOG2 DUP1 PUSH20 0xFFFFFFFFFFFFFFFFFFFFFFFFFFFFFFFFFFFFFFFF AND DUP10 PUSH20 0xFFFFFFFFFFFFFFFFFFFFFFFFFFFFFFFFFFFFFFFF AND PUSH32 0xDDF252AD1BE2C89B69C2B068FC378DAA952BA7F163C4A11628F55A4DF523B3EF DUP5 PUSH1 0x40 MLOAD PUSH3 0x1CCE SWAP2 SWAP1 PUSH3 0x349F JUMP JUMPDEST PUSH1 0x40 MLOAD DUP1 SWAP2 SUB SWAP1 LOG3 POP JUMPDEST DUP6 PUSH3 0x1D02 DUP5 PUSH3 0x1CF3 DUP5 DUP7 PUSH3 0x2189 SWAP1 SWAP2 SWAP1 PUSH4 0xFFFFFFFF AND JUMP JUMPDEST PUSH3 0x2189 SWAP1 SWAP2 SWAP1 PUSH4 0xFFFFFFFF AND JUMP JUMPDEST EQ PUSH3 0x1D37 JUMPI PUSH32 0x4E487B7100000000000000000000000000000000000000000000000000000000 PUSH1 0x0 MSTORE PUSH1 0x1 PUSH1 0x4 MSTORE PUSH1 0x24 PUSH1 0x0 REVERT JUMPDEST PUSH3 0x1D61 DUP8 PUSH3 0x1D5B DUP6 PUSH3 0x1D4C DUP12 PUSH3 0x1F00 JUMP JUMPDEST PUSH3 0x2189 SWAP1 SWAP2 SWAP1 PUSH4 0xFFFFFFFF AND JUMP JUMPDEST PUSH3 0x1E25 JUMP JUMPDEST DUP7 PUSH20 0xFFFFFFFFFFFFFFFFFFFFFFFFFFFFFFFFFFFFFFFF AND DUP9 PUSH20 0xFFFFFFFFFFFFFFFFFFFFFFFFFFFFFFFFFFFFFFFF AND PUSH32 0xDDF252AD1BE2C89B69C2B068FC378DAA952BA7F163C4A11628F55A4DF523B3EF DUP6 PUSH1 0x40 MLOAD PUSH3 0x1DC0 SWAP2 SWAP1 PUSH3 0x349F JUMP JUMPDEST PUSH1 0x40 MLOAD DUP1 SWAP2 SUB SWAP1 LOG3 POP POP POP POP JUMPDEST POP POP POP POP POP JUMP JUMPDEST PUSH3 0x1E20 DUP3 PUSH1 0x40 MLOAD PUSH1 0x20 ADD PUSH3 0x1DEB SWAP2 SWAP1 PUSH3 0x3192 JUMP JUMPDEST PUSH1 0x40 MLOAD PUSH1 0x20 DUP2 DUP4 SUB SUB DUP2 MSTORE SWAP1 PUSH1 0x40 MSTORE DUP1 MLOAD SWAP1 PUSH1 0x20 ADD KECCAK256 DUP3 PUSH1 0x0 SHL PUSH3 0x1E10 DUP7 PUSH3 0x23A0 JUMP JUMPDEST PUSH3 0x23C3 SWAP1 SWAP3 SWAP2 SWAP1 PUSH4 0xFFFFFFFF AND JUMP JUMPDEST POP POP POP JUMP JUMPDEST PUSH3 0x1E69 PUSH32 0xEA06F38F7E4F15E87567361213C28F235CCCDAA1D7FD34C9DB1DFE9489C6A091 DUP3 PUSH1 0x0 SHL PUSH3 0x1E59 DUP6 PUSH3 0x23A0 JUMP JUMPDEST PUSH3 0x23C3 SWAP1 SWAP3 SWAP2 SWAP1 PUSH4 0xFFFFFFFF AND JUMP JUMPDEST PUSH1 0x6 PUSH1 0x0 SWAP1 SLOAD SWAP1 PUSH2 0x100 EXP SWAP1 DIV PUSH20 0xFFFFFFFFFFFFFFFFFFFFFFFFFFFFFFFFFFFFFFFF AND PUSH20 0xFFFFFFFFFFFFFFFFFFFFFFFFFFFFFFFFFFFFFFFF AND PUSH4 0xA2D83B5E DUP4 DUP4 PUSH1 0x40 MLOAD DUP4 PUSH4 0xFFFFFFFF AND PUSH1 0xE0 SHL DUP2 MSTORE PUSH1 0x4 ADD PUSH3 0x1EC8 SWAP3 SWAP2 SWAP1 PUSH3 0x3233 JUMP JUMPDEST PUSH1 0x0 PUSH1 0x40 MLOAD DUP1 DUP4 SUB DUP2 PUSH1 0x0 DUP8 DUP1 EXTCODESIZE ISZERO DUP1 ISZERO PUSH3 0x1EE3 JUMPI PUSH1 0x0 DUP1 REVERT JUMPDEST POP GAS CALL ISZERO DUP1 ISZERO PUSH3 0x1EF8 JUMPI RETURNDATASIZE PUSH1 0x0 DUP1 RETURNDATACOPY RETURNDATASIZE PUSH1 0x0 REVERT JUMPDEST POP POP POP POP POP POP JUMP JUMPDEST PUSH1 0x0 PUSH3 0x1F41 PUSH32 0xEA06F38F7E4F15E87567361213C28F235CCCDAA1D7FD34C9DB1DFE9489C6A091 PUSH3 0x1F32 DUP5 PUSH3 0x23A0 JUMP JUMPDEST PUSH3 0x2522 SWAP1 SWAP2 SWAP1 PUSH4 0xFFFFFFFF AND JUMP JUMPDEST PUSH1 0x0 SHR SWAP1 POP SWAP2 SWAP1 POP JUMP JUMPDEST PUSH1 0x0 PUSH3 0x1F94 DUP3 PUSH1 0x40 MLOAD PUSH1 0x20 ADD PUSH3 0x1F64 SWAP2 SWAP1 PUSH3 0x3168 JUMP JUMPDEST PUSH1 0x40 MLOAD PUSH1 0x20 DUP2 DUP4 SUB SUB DUP2 MSTORE SWAP1 PUSH1 0x40 MSTORE DUP1 MLOAD SWAP1 PUSH1 0x20 ADD KECCAK256 PUSH3 0x1F85 DUP6 PUSH3 0x23A0 JUMP JUMPDEST PUSH3 0x2522 SWAP1 SWAP2 SWAP1 PUSH4 0xFFFFFFFF AND JUMP JUMPDEST PUSH1 0x0 SHR SWAP1 POP SWAP3 SWAP2 POP POP JUMP JUMPDEST PUSH1 0x0 PUSH3 0x1FE8 DUP3 PUSH1 0x40 MLOAD PUSH1 0x20 ADD PUSH3 0x1FB8 SWAP2 SWAP1 PUSH3 0x3192 JUMP JUMPDEST PUSH1 0x40 MLOAD PUSH1 0x20 DUP2 DUP4 SUB SUB DUP2 MSTORE SWAP1 PUSH1 0x40 MSTORE DUP1 MLOAD SWAP1 PUSH1 0x20 ADD KECCAK256 PUSH3 0x1FD9 DUP6 PUSH3 0x23A0 JUMP JUMPDEST PUSH3 0x2522 SWAP1 SWAP2 SWAP1 PUSH4 0xFFFFFFFF AND JUMP JUMPDEST PUSH1 0x0 SHR SWAP1 POP SWAP3 SWAP2 POP POP JUMP JUMPDEST PUSH1 0x0 DUP2 DUP4 LT ISZERO PUSH3 0x203B JUMPI PUSH1 0x40 MLOAD PUSH32 0x8C379A000000000000000000000000000000000000000000000000000000000 DUP2 MSTORE PUSH1 0x4 ADD PUSH3 0x2032 SWAP1 PUSH3 0x33F5 JUMP JUMPDEST PUSH1 0x40 MLOAD DUP1 SWAP2 SUB SWAP1 REVERT JUMPDEST DUP2 DUP4 PUSH3 0x2049 SWAP2 SWAP1 PUSH3 0x364E JUMP JUMPDEST SWAP1 POP SWAP3 SWAP2 POP POP JUMP JUMPDEST PUSH1 0x0 PUSH1 0x4 PUSH1 0x0 DUP5 PUSH20 0xFFFFFFFFFFFFFFFFFFFFFFFFFFFFFFFFFFFFFFFF AND PUSH20 0xFFFFFFFFFFFFFFFFFFFFFFFFFFFFFFFFFFFFFFFF AND DUP2 MSTORE PUSH1 0x20 ADD SWAP1 DUP2 MSTORE PUSH1 0x20 ADD PUSH1 0x0 KECCAK256 PUSH1 0x0 SWAP1 SLOAD SWAP1 PUSH2 0x100 EXP SWAP1 DIV PUSH1 0xFF AND DUP1 PUSH3 0x20F5 JUMPI POP PUSH1 0x5 PUSH1 0x0 DUP4 PUSH20 0xFFFFFFFFFFFFFFFFFFFFFFFFFFFFFFFFFFFFFFFF AND PUSH20 0xFFFFFFFFFFFFFFFFFFFFFFFFFFFFFFFFFFFFFFFF AND DUP2 MSTORE PUSH1 0x20 ADD SWAP1 DUP2 MSTORE PUSH1 0x20 ADD PUSH1 0x0 KECCAK256 PUSH1 0x0 SWAP1 SLOAD SWAP1 PUSH2 0x100 EXP SWAP1 DIV PUSH1 0xFF AND JUMPDEST SWAP1 POP SWAP3 SWAP2 POP POP JUMP JUMPDEST PUSH1 0x0 DUP1 DUP3 EQ ISZERO PUSH3 0x2145 JUMPI PUSH1 0x40 MLOAD PUSH32 0x8C379A000000000000000000000000000000000000000000000000000000000 DUP2 MSTORE PUSH1 0x4 ADD PUSH3 0x213C SWAP1 PUSH3 0x338F JUMP JUMPDEST PUSH1 0x40 MLOAD DUP1 SWAP2 SUB SWAP1 REVERT JUMPDEST PUSH1 0x0 DUP3 DUP5 PUSH3 0x2155 SWAP2 SWAP1 PUSH3 0x35B5 JUMP JUMPDEST SWAP1 POP PUSH1 0x0 DUP4 DUP6 PUSH3 0x2167 SWAP2 SWAP1 PUSH3 0x3875 JUMP JUMPDEST EQ PUSH3 0x217F JUMPI PUSH1 0x1 DUP2 PUSH3 0x217C SWAP2 SWAP1 PUSH3 0x3558 JUMP JUMPDEST SWAP1 POP JUMPDEST DUP1 SWAP2 POP POP SWAP3 SWAP2 POP POP JUMP JUMPDEST PUSH1 0x0 DUP1 DUP3 DUP5 PUSH3 0x219A SWAP2 SWAP1 PUSH3 0x3558 JUMP JUMPDEST SWAP1 POP DUP4 DUP2 LT ISZERO PUSH3 0x21E2 JUMPI PUSH1 0x40 MLOAD PUSH32 0x8C379A000000000000000000000000000000000000000000000000000000000 DUP2 MSTORE PUSH1 0x4 ADD PUSH3 0x21D9 SWAP1 PUSH3 0x345B JUMP JUMPDEST PUSH1 0x40 MLOAD DUP1 SWAP2 SUB SWAP1 REVERT JUMPDEST DUP1 SWAP2 POP POP SWAP3 SWAP2 POP POP JUMP JUMPDEST PUSH1 0x0 DUP1 PUSH3 0x21FA DUP4 PUSH3 0x269C JUMP JUMPDEST SWAP1 POP PUSH1 0x0 PUSH3 0x220A DUP6 DUP4 PUSH3 0x1F4B JUMP JUMPDEST SWAP1 POP PUSH3 0x2227 DUP6 DUP4 PUSH1 0x1 DUP5 PUSH3 0x2221 SWAP2 SWAP1 PUSH3 0x3558 JUMP JUMPDEST PUSH3 0x26FD JUMP JUMPDEST PUSH1 0x6 PUSH1 0x0 SWAP1 SLOAD SWAP1 PUSH2 0x100 EXP SWAP1 DIV PUSH20 0xFFFFFFFFFFFFFFFFFFFFFFFFFFFFFFFFFFFFFFFF AND PUSH20 0xFFFFFFFFFFFFFFFFFFFFFFFFFFFFFFFFFFFFFFFF AND PUSH4 0xAF2B3E5 PUSH3 0x2324 DUP8 DUP5 DUP7 PUSH1 0x1 PUSH1 0x6 PUSH1 0x0 SWAP1 SLOAD SWAP1 PUSH2 0x100 EXP SWAP1 DIV PUSH20 0xFFFFFFFFFFFFFFFFFFFFFFFFFFFFFFFFFFFFFFFF AND PUSH20 0xFFFFFFFFFFFFFFFFFFFFFFFFFFFFFFFFFFFFFFFF AND PUSH4 0x949D225D PUSH1 0x40 MLOAD DUP2 PUSH4 0xFFFFFFFF AND PUSH1 0xE0 SHL DUP2 MSTORE PUSH1 0x4 ADD PUSH1 0x20 PUSH1 0x40 MLOAD DUP1 DUP4 SUB DUP2 DUP7 DUP1 EXTCODESIZE ISZERO DUP1 ISZERO PUSH3 0x22D7 JUMPI PUSH1 0x0 DUP1 REVERT JUMPDEST POP GAS STATICCALL ISZERO DUP1 ISZERO PUSH3 0x22EC JUMPI RETURNDATASIZE PUSH1 0x0 DUP1 RETURNDATACOPY RETURNDATASIZE PUSH1 0x0 REVERT JUMPDEST POP POP POP POP PUSH1 0x40 MLOAD RETURNDATASIZE PUSH1 0x1F NOT PUSH1 0x1F DUP3 ADD AND DUP3 ADD DUP1 PUSH1 0x40 MSTORE POP DUP2 ADD SWAP1 PUSH3 0x2312 SWAP2 SWAP1 PUSH3 0x2CCD JUMP JUMPDEST PUSH3 0x231E SWAP2 SWAP1 PUSH3 0x364E JUMP JUMPDEST PUSH3 0x274E JUMP JUMPDEST PUSH1 0x40 MLOAD DUP3 PUSH4 0xFFFFFFFF AND PUSH1 0xE0 SHL DUP2 MSTORE PUSH1 0x4 ADD PUSH3 0x2342 SWAP2 SWAP1 PUSH3 0x349F JUMP JUMPDEST PUSH1 0x20 PUSH1 0x40 MLOAD DUP1 DUP4 SUB DUP2 DUP7 DUP1 EXTCODESIZE ISZERO DUP1 ISZERO PUSH3 0x235B JUMPI PUSH1 0x0 DUP1 REVERT JUMPDEST POP GAS STATICCALL ISZERO DUP1 ISZERO PUSH3 0x2370 JUMPI RETURNDATASIZE PUSH1 0x0 DUP1 RETURNDATACOPY RETURNDATASIZE PUSH1 0x0 REVERT JUMPDEST POP POP POP POP PUSH1 0x40 MLOAD RETURNDATASIZE PUSH1 0x1F NOT PUSH1 0x1F DUP3 ADD AND DUP3 ADD DUP1 PUSH1 0x40 MSTORE POP DUP2 ADD SWAP1 PUSH3 0x2396 SWAP2 SWAP1 PUSH3 0x2A7A JUMP JUMPDEST SWAP3 POP POP POP SWAP3 SWAP2 POP POP JUMP JUMPDEST PUSH1 0x0 DUP2 PUSH20 0xFFFFFFFFFFFFFFFFFFFFFFFFFFFFFFFFFFFFFFFF AND PUSH1 0x0 SHL SWAP1 POP SWAP2 SWAP1 POP JUMP JUMPDEST PUSH1 0x0 PUSH3 0x23D0 DUP5 PUSH3 0x27AA JUMP JUMPDEST SWAP1 POP PUSH3 0x23DD DUP2 PUSH3 0x2815 JUMP JUMPDEST PUSH3 0x23EE JUMPI PUSH3 0x23ED DUP5 PUSH3 0x285B JUMP JUMPDEST JUMPDEST PUSH1 0x0 DUP2 PUSH20 0xFFFFFFFFFFFFFFFFFFFFFFFFFFFFFFFFFFFFFFFF AND PUSH4 0xE2E52EC1 PUSH1 0xE0 SHL DUP6 DUP6 PUSH1 0x40 MLOAD PUSH1 0x24 ADD PUSH3 0x2424 SWAP3 SWAP2 SWAP1 PUSH3 0x329A JUMP JUMPDEST PUSH1 0x40 MLOAD PUSH1 0x20 DUP2 DUP4 SUB SUB DUP2 MSTORE SWAP1 PUSH1 0x40 MSTORE SWAP1 PUSH28 0xFFFFFFFFFFFFFFFFFFFFFFFFFFFFFFFFFFFFFFFFFFFFFFFFFFFFFFFF NOT AND PUSH1 0x20 DUP3 ADD DUP1 MLOAD PUSH28 0xFFFFFFFFFFFFFFFFFFFFFFFFFFFFFFFFFFFFFFFFFFFFFFFFFFFFFFFF DUP4 DUP2 DUP4 AND OR DUP4 MSTORE POP POP POP POP PUSH1 0x40 MLOAD PUSH3 0x2490 SWAP2 SWAP1 PUSH3 0x314F JUMP JUMPDEST PUSH1 0x0 PUSH1 0x40 MLOAD DUP1 DUP4 SUB DUP2 PUSH1 0x0 DUP7 GAS CALL SWAP2 POP POP RETURNDATASIZE DUP1 PUSH1 0x0 DUP2 EQ PUSH3 0x24CF JUMPI PUSH1 0x40 MLOAD SWAP2 POP PUSH1 0x1F NOT PUSH1 0x3F RETURNDATASIZE ADD AND DUP3 ADD PUSH1 0x40 MSTORE RETURNDATASIZE DUP3 MSTORE RETURNDATASIZE PUSH1 0x0 PUSH1 0x20 DUP5 ADD RETURNDATACOPY PUSH3 0x24D4 JUMP JUMPDEST PUSH1 0x60 SWAP2 POP JUMPDEST POP POP SWAP1 POP DUP1 PUSH3 0x251B JUMPI PUSH1 0x40 MLOAD PUSH32 0x8C379A000000000000000000000000000000000000000000000000000000000 DUP2 MSTORE PUSH1 0x4 ADD PUSH3 0x2512 SWAP1 PUSH3 0x3417 JUMP JUMPDEST PUSH1 0x40 MLOAD DUP1 SWAP2 SUB SWAP1 REVERT JUMPDEST POP POP POP POP POP JUMP JUMPDEST PUSH1 0x0 DUP1 PUSH3 0x2530 DUP5 PUSH3 0x27AA JUMP JUMPDEST SWAP1 POP PUSH3 0x253D DUP2 PUSH3 0x2815 JUMP JUMPDEST PUSH3 0x254F JUMPI PUSH1 0x0 DUP1 SHL SWAP2 POP POP PUSH3 0x2696 JUMP JUMPDEST PUSH1 0x0 DUP1 DUP3 PUSH20 0xFFFFFFFFFFFFFFFFFFFFFFFFFFFFFFFFFFFFFFFF AND PUSH4 0x61DA1439 PUSH1 0xE0 SHL DUP7 PUSH1 0x40 MLOAD PUSH1 0x24 ADD PUSH3 0x2584 SWAP2 SWAP1 PUSH3 0x327D JUMP JUMPDEST PUSH1 0x40 MLOAD PUSH1 0x20 DUP2 DUP4 SUB SUB DUP2 MSTORE SWAP1 PUSH1 0x40 MSTORE SWAP1 PUSH28 0xFFFFFFFFFFFFFFFFFFFFFFFFFFFFFFFFFFFFFFFFFFFFFFFFFFFFFFFF NOT AND PUSH1 0x20 DUP3 ADD DUP1 MLOAD PUSH28 0xFFFFFFFFFFFFFFFFFFFFFFFFFFFFFFFFFFFFFFFFFFFFFFFFFFFFFFFF DUP4 DUP2 DUP4 AND OR DUP4 MSTORE POP POP POP POP PUSH1 0x40 MLOAD PUSH3 0x25F0 SWAP2 SWAP1 PUSH3 0x314F JUMP JUMPDEST PUSH1 0x0 PUSH1 0x40 MLOAD DUP1 DUP4 SUB DUP2 DUP6 GAS STATICCALL SWAP2 POP POP RETURNDATASIZE DUP1 PUSH1 0x0 DUP2 EQ PUSH3 0x262D JUMPI PUSH1 0x40 MLOAD SWAP2 POP PUSH1 0x1F NOT PUSH1 0x3F RETURNDATASIZE ADD AND DUP3 ADD PUSH1 0x40 MSTORE RETURNDATASIZE DUP3 MSTORE RETURNDATASIZE PUSH1 0x0 PUSH1 0x20 DUP5 ADD RETURNDATACOPY PUSH3 0x2632 JUMP JUMPDEST PUSH1 0x60 SWAP2 POP JUMPDEST POP SWAP2 POP SWAP2 POP DUP2 PUSH3 0x267A JUMPI PUSH1 0x40 MLOAD PUSH32 0x8C379A000000000000000000000000000000000000000000000000000000000 DUP2 MSTORE PUSH1 0x4 ADD PUSH3 0x2671 SWAP1 PUSH3 0x33D3 JUMP JUMPDEST PUSH1 0x40 MLOAD DUP1 SWAP2 SUB SWAP1 REVERT JUMPDEST DUP1 DUP1 PUSH1 0x20 ADD SWAP1 MLOAD DUP2 ADD SWAP1 PUSH3 0x2690 SWAP2 SWAP1 PUSH3 0x2C00 JUMP JUMPDEST SWAP4 POP POP POP POP JUMPDEST SWAP3 SWAP2 POP POP JUMP JUMPDEST PUSH1 0x0 DUP1 PUSH32 0xFFFFFFFFFFFFFFFFFFFFFFFFFFFFFFFFFFFFFFFFFFFFFFFFFFFFFFFFFFFFFFFF SWAP1 POP PUSH1 0x0 DUP4 SWAP1 POP JUMPDEST PUSH1 0xA DUP2 PUSH3 0x26D7 SWAP2 SWAP1 PUSH3 0x35B5 JUMP JUMPDEST SWAP1 POP DUP2 DUP1 PUSH3 0x26E6 SWAP1 PUSH3 0x37E1 JUMP JUMPDEST SWAP3 POP POP PUSH1 0x0 DUP2 EQ ISZERO PUSH3 0x26C8 JUMPI DUP2 SWAP3 POP POP POP SWAP2 SWAP1 POP JUMP JUMPDEST PUSH3 0x2749 DUP3 PUSH1 0x40 MLOAD PUSH1 0x20 ADD PUSH3 0x2714 SWAP2 SWAP1 PUSH3 0x3168 JUMP JUMPDEST PUSH1 0x40 MLOAD PUSH1 0x20 DUP2 DUP4 SUB SUB DUP2 MSTORE SWAP1 PUSH1 0x40 MSTORE DUP1 MLOAD SWAP1 PUSH1 0x20 ADD KECCAK256 DUP3 PUSH1 0x0 SHL PUSH3 0x2739 DUP7 PUSH3 0x23A0 JUMP JUMPDEST PUSH3 0x23C3 SWAP1 SWAP3 SWAP2 SWAP1 PUSH4 0xFFFFFFFF AND JUMP JUMPDEST POP POP POP JUMP JUMPDEST PUSH1 0x0 DUP1 DUP6 DUP6 DUP6 PUSH1 0x40 MLOAD PUSH1 0x20 ADD PUSH3 0x2768 SWAP4 SWAP3 SWAP2 SWAP1 PUSH3 0x3099 JUMP JUMPDEST PUSH1 0x40 MLOAD PUSH1 0x20 DUP2 DUP4 SUB SUB DUP2 MSTORE SWAP1 PUSH1 0x40 MSTORE DUP1 MLOAD SWAP1 PUSH1 0x20 ADD KECCAK256 PUSH1 0x0 SHR SWAP1 POP PUSH1 0x1 DUP4 PUSH3 0x2792 SWAP2 SWAP1 PUSH3 0x3558 JUMP JUMPDEST DUP2 PUSH3 0x279F SWAP2 SWAP1 PUSH3 0x3875 JUMP JUMPDEST SWAP2 POP POP SWAP5 SWAP4 POP POP POP POP JUMP JUMPDEST PUSH1 0x0 PUSH1 0xFF PUSH1 0xF8 SHL ADDRESS DUP4 PUSH1 0x40 MLOAD DUP1 PUSH1 0x20 ADD PUSH3 0x27C5 SWAP1 PUSH3 0x2933 JUMP JUMPDEST PUSH1 0x20 DUP3 ADD DUP2 SUB DUP3 MSTORE PUSH1 0x1F NOT PUSH1 0x1F DUP3 ADD AND PUSH1 0x40 MSTORE POP DUP1 MLOAD SWAP1 PUSH1 0x20 ADD KECCAK256 PUSH1 0x40 MLOAD PUSH1 0x20 ADD PUSH3 0x27F5 SWAP5 SWAP4 SWAP3 SWAP2 SWAP1 PUSH3 0x30DC JUMP JUMPDEST PUSH1 0x40 MLOAD PUSH1 0x20 DUP2 DUP4 SUB SUB DUP2 MSTORE SWAP1 PUSH1 0x40 MSTORE DUP1 MLOAD SWAP1 PUSH1 0x20 ADD KECCAK256 PUSH1 0x0 SHR SWAP1 POP SWAP2 SWAP1 POP JUMP JUMPDEST PUSH1 0x0 DUP1 DUP3 EXTCODEHASH SWAP1 POP PUSH1 0x0 DUP1 SHL DUP2 EQ ISZERO DUP1 ISZERO PUSH3 0x2853 JUMPI POP PUSH32 0xC5D2460186F7233C927E7DB2DCC703C0E500B653CA82273B7BFAD8045D85A470 PUSH1 0x0 SHL DUP2 EQ ISZERO JUMPDEST SWAP2 POP POP SWAP2 SWAP1 POP JUMP JUMPDEST PUSH1 0x0 PUSH1 0x40 MLOAD DUP1 PUSH1 0x20 ADD PUSH3 0x286F SWAP1 PUSH3 0x2933 JUMP JUMPDEST PUSH1 0x20 DUP3 ADD DUP2 SUB DUP3 MSTORE PUSH1 0x1F NOT PUSH1 0x1F DUP3 ADD AND PUSH1 0x40 MSTORE POP SWAP1 POP DUP2 DUP2 MLOAD PUSH1 0x20 DUP4 ADD PUSH1 0x0 CREATE2 POP POP POP JUMP JUMPDEST PUSH2 0x1B49 DUP1 PUSH3 0x3B75 DUP4 CODECOPY ADD SWAP1 JUMP JUMPDEST DUP3 DUP1 SLOAD PUSH3 0x28B0 SWAP1 PUSH3 0x37AB JUMP JUMPDEST SWAP1 PUSH1 0x0 MSTORE PUSH1 0x20 PUSH1 0x0 KECCAK256 SWAP1 PUSH1 0x1F ADD PUSH1 0x20 SWAP1 DIV DUP2 ADD SWAP3 DUP3 PUSH3 0x28D4 JUMPI PUSH1 0x0 DUP6 SSTORE PUSH3 0x2920 JUMP JUMPDEST DUP3 PUSH1 0x1F LT PUSH3 0x28EF JUMPI DUP1 CALLDATALOAD PUSH1 0xFF NOT AND DUP4 DUP1 ADD OR DUP6 SSTORE PUSH3 0x2920 JUMP JUMPDEST DUP3 DUP1 ADD PUSH1 0x1 ADD DUP6 SSTORE DUP3 ISZERO PUSH3 0x2920 JUMPI SWAP2 DUP3 ADD JUMPDEST DUP3 DUP2 GT ISZERO PUSH3 0x291F JUMPI DUP3 CALLDATALOAD DUP3 SSTORE SWAP2 PUSH1 0x20 ADD SWAP2 SWAP1 PUSH1 0x1 ADD SWAP1 PUSH3 0x2902 JUMP JUMPDEST JUMPDEST POP SWAP1 POP PUSH3 0x292F SWAP2 SWAP1 PUSH3 0x2941 JUMP JUMPDEST POP SWAP1 JUMP JUMPDEST PUSH2 0x273 DUP1 PUSH3 0x56BE DUP4 CODECOPY ADD SWAP1 JUMP JUMPDEST JUMPDEST DUP1 DUP3 GT ISZERO PUSH3 0x295C JUMPI PUSH1 0x0 DUP2 PUSH1 0x0 SWAP1 SSTORE POP PUSH1 0x1 ADD PUSH3 0x2942 JUMP JUMPDEST POP SWAP1 JUMP JUMPDEST PUSH1 0x0 DUP2 CALLDATALOAD SWAP1 POP PUSH3 0x2971 DUP2 PUSH3 0x3AF2 JUMP JUMPDEST SWAP3 SWAP2 POP POP JUMP JUMPDEST PUSH1 0x0 DUP2 MLOAD SWAP1 POP PUSH3 0x2988 DUP2 PUSH3 0x3AF2 JUMP JUMPDEST SWAP3 SWAP2 POP POP JUMP JUMPDEST PUSH1 0x0 DUP2 CALLDATALOAD SWAP1 POP PUSH3 0x299F DUP2 PUSH3 0x3B0C JUMP JUMPDEST SWAP3 SWAP2 POP POP JUMP JUMPDEST PUSH1 0x0 DUP2 MLOAD SWAP1 POP PUSH3 0x29B6 DUP2 PUSH3 0x3B26 JUMP JUMPDEST SWAP3 SWAP2 POP POP JUMP JUMPDEST PUSH1 0x0 DUP2 CALLDATALOAD SWAP1 POP PUSH3 0x29CD DUP2 PUSH3 0x3B40 JUMP JUMPDEST SWAP3 SWAP2 POP POP JUMP JUMPDEST PUSH1 0x0 DUP1 DUP4 PUSH1 0x1F DUP5 ADD SLT PUSH3 0x29E6 JUMPI PUSH1 0x0 DUP1 REVERT JUMPDEST DUP3 CALLDATALOAD SWAP1 POP PUSH8 0xFFFFFFFFFFFFFFFF DUP2 GT ISZERO PUSH3 0x2A00 JUMPI PUSH1 0x0 DUP1 REVERT JUMPDEST PUSH1 0x20 DUP4 ADD SWAP2 POP DUP4 PUSH1 0x1 DUP3 MUL DUP4 ADD GT ISZERO PUSH3 0x2A19 JUMPI PUSH1 0x0 DUP1 REVERT JUMPDEST SWAP3 POP SWAP3 SWAP1 POP JUMP JUMPDEST PUSH1 0x0 DUP2 CALLDATALOAD SWAP1 POP PUSH3 0x2A31 DUP2 PUSH3 0x3B5A JUMP JUMPDEST SWAP3 SWAP2 POP POP JUMP JUMPDEST PUSH1 0x0 DUP2 MLOAD SWAP1 POP PUSH3 0x2A48 DUP2 PUSH3 0x3B5A JUMP JUMPDEST SWAP3 SWAP2 POP POP JUMP JUMPDEST PUSH1 0x0 PUSH1 0x20 DUP3 DUP5 SUB SLT ISZERO PUSH3 0x2A61 JUMPI PUSH1 0x0 DUP1 REVERT JUMPDEST PUSH1 0x0 PUSH3 0x2A71 DUP5 DUP3 DUP6 ADD PUSH3 0x2960 JUMP JUMPDEST SWAP2 POP POP SWAP3 SWAP2 POP POP JUMP JUMPDEST PUSH1 0x0 PUSH1 0x20 DUP3 DUP5 SUB SLT ISZERO PUSH3 0x2A8D JUMPI PUSH1 0x0 DUP1 REVERT JUMPDEST PUSH1 0x0 PUSH3 0x2A9D DUP5 DUP3 DUP6 ADD PUSH3 0x2977 JUMP JUMPDEST SWAP2 POP POP SWAP3 SWAP2 POP POP JUMP JUMPDEST PUSH1 0x0 DUP1 PUSH1 0x40 DUP4 DUP6 SUB SLT ISZERO PUSH3 0x2ABA JUMPI PUSH1 0x0 DUP1 REVERT JUMPDEST PUSH1 0x0 PUSH3 0x2ACA DUP6 DUP3 DUP7 ADD PUSH3 0x2960 JUMP JUMPDEST SWAP3 POP POP PUSH1 0x20 PUSH3 0x2ADD DUP6 DUP3 DUP7 ADD PUSH3 0x2960 JUMP JUMPDEST SWAP2 POP POP SWAP3 POP SWAP3 SWAP1 POP JUMP JUMPDEST PUSH1 0x0 DUP1 PUSH1 0x0 PUSH1 0x60 DUP5 DUP7 SUB SLT ISZERO PUSH3 0x2AFD JUMPI PUSH1 0x0 DUP1 REVERT JUMPDEST PUSH1 0x0 PUSH3 0x2B0D DUP7 DUP3 DUP8 ADD PUSH3 0x2960 JUMP JUMPDEST SWAP4 POP POP PUSH1 0x20 PUSH3 0x2B20 DUP7 DUP3 DUP8 ADD PUSH3 0x2960 JUMP JUMPDEST SWAP3 POP POP PUSH1 0x40 PUSH3 0x2B33 DUP7 DUP3 DUP8 ADD PUSH3 0x2A20 JUMP JUMPDEST SWAP2 POP POP SWAP3 POP SWAP3 POP SWAP3 JUMP JUMPDEST PUSH1 0x0 DUP1 PUSH1 0x40 DUP4 DUP6 SUB SLT ISZERO PUSH3 0x2B51 JUMPI PUSH1 0x0 DUP1 REVERT JUMPDEST PUSH1 0x0 PUSH3 0x2B61 DUP6 DUP3 DUP7 ADD PUSH3 0x2960 JUMP JUMPDEST SWAP3 POP POP PUSH1 0x20 PUSH3 0x2B74 DUP6 DUP3 DUP7 ADD PUSH3 0x298E JUMP JUMPDEST SWAP2 POP POP SWAP3 POP SWAP3 SWAP1 POP JUMP JUMPDEST PUSH1 0x0 DUP1 PUSH1 0x40 DUP4 DUP6 SUB SLT ISZERO PUSH3 0x2B92 JUMPI PUSH1 0x0 DUP1 REVERT JUMPDEST PUSH1 0x0 PUSH3 0x2BA2 DUP6 DUP3 DUP7 ADD PUSH3 0x2960 JUMP JUMPDEST SWAP3 POP POP PUSH1 0x20 PUSH3 0x2BB5 DUP6 DUP3 DUP7 ADD PUSH3 0x2A20 JUMP JUMPDEST SWAP2 POP POP SWAP3 POP SWAP3 SWAP1 POP JUMP JUMPDEST PUSH1 0x0 DUP1 PUSH1 0x40 DUP4 DUP6 SUB SLT ISZERO PUSH3 0x2BD3 JUMPI PUSH1 0x0 DUP1 REVERT JUMPDEST PUSH1 0x0 PUSH3 0x2BE3 DUP6 DUP3 DUP7 ADD PUSH3 0x2977 JUMP JUMPDEST SWAP3 POP POP PUSH1 0x20 PUSH3 0x2BF6 DUP6 DUP3 DUP7 ADD PUSH3 0x2A37 JUMP JUMPDEST SWAP2 POP POP SWAP3 POP SWAP3 SWAP1 POP JUMP JUMPDEST PUSH1 0x0 PUSH1 0x20 DUP3 DUP5 SUB SLT ISZERO PUSH3 0x2C13 JUMPI PUSH1 0x0 DUP1 REVERT JUMPDEST PUSH1 0x0 PUSH3 0x2C23 DUP5 DUP3 DUP6 ADD PUSH3 0x29A5 JUMP JUMPDEST SWAP2 POP POP SWAP3 SWAP2 POP POP JUMP JUMPDEST PUSH1 0x0 PUSH1 0x20 DUP3 DUP5 SUB SLT ISZERO PUSH3 0x2C3F JUMPI PUSH1 0x0 DUP1 REVERT JUMPDEST PUSH1 0x0 PUSH3 0x2C4F DUP5 DUP3 DUP6 ADD PUSH3 0x29BC JUMP JUMPDEST SWAP2 POP POP SWAP3 SWAP2 POP POP JUMP JUMPDEST PUSH1 0x0 DUP1 PUSH1 0x20 DUP4 DUP6 SUB SLT ISZERO PUSH3 0x2C6C JUMPI PUSH1 0x0 DUP1 REVERT JUMPDEST PUSH1 0x0 DUP4 ADD CALLDATALOAD PUSH8 0xFFFFFFFFFFFFFFFF DUP2 GT ISZERO PUSH3 0x2C87 JUMPI PUSH1 0x0 DUP1 REVERT JUMPDEST PUSH3 0x2C95 DUP6 DUP3 DUP7 ADD PUSH3 0x29D3 JUMP JUMPDEST SWAP3 POP SWAP3 POP POP SWAP3 POP SWAP3 SWAP1 POP JUMP JUMPDEST PUSH1 0x0 PUSH1 0x20 DUP3 DUP5 SUB SLT ISZERO PUSH3 0x2CB4 JUMPI PUSH1 0x0 DUP1 REVERT JUMPDEST PUSH1 0x0 PUSH3 0x2CC4 DUP5 DUP3 DUP6 ADD PUSH3 0x2A20 JUMP JUMPDEST SWAP2 POP POP SWAP3 SWAP2 POP POP JUMP JUMPDEST PUSH1 0x0 PUSH1 0x20 DUP3 DUP5 SUB SLT ISZERO PUSH3 0x2CE0 JUMPI PUSH1 0x0 DUP1 REVERT JUMPDEST PUSH1 0x0 PUSH3 0x2CF0 DUP5 DUP3 DUP6 ADD PUSH3 0x2A37 JUMP JUMPDEST SWAP2 POP POP SWAP3 SWAP2 POP POP JUMP JUMPDEST PUSH3 0x2D04 DUP2 PUSH3 0x3689 JUMP JUMPDEST DUP3 MSTORE POP POP JUMP JUMPDEST PUSH3 0x2D1F PUSH3 0x2D19 DUP3 PUSH3 0x3689 JUMP JUMPDEST PUSH3 0x382F JUMP JUMPDEST DUP3 MSTORE POP POP JUMP JUMPDEST PUSH3 0x2D30 DUP2 PUSH3 0x369D JUMP JUMPDEST DUP3 MSTORE POP POP JUMP JUMPDEST PUSH3 0x2D4B PUSH3 0x2D45 DUP3 PUSH3 0x36A9 JUMP JUMPDEST PUSH3 0x3843 JUMP JUMPDEST DUP3 MSTORE POP POP JUMP JUMPDEST PUSH3 0x2D5C DUP2 PUSH3 0x36D5 JUMP JUMPDEST DUP3 MSTORE POP POP JUMP JUMPDEST PUSH3 0x2D77 PUSH3 0x2D71 DUP3 PUSH3 0x36D5 JUMP JUMPDEST PUSH3 0x384D JUMP JUMPDEST DUP3 MSTORE POP POP JUMP JUMPDEST PUSH1 0x0 PUSH3 0x2D8A DUP3 PUSH3 0x351B JUMP JUMPDEST PUSH3 0x2D96 DUP2 DUP6 PUSH3 0x3531 JUMP JUMPDEST SWAP4 POP PUSH3 0x2DA8 DUP2 DUP6 PUSH1 0x20 DUP7 ADD PUSH3 0x3775 JUMP JUMPDEST DUP1 DUP5 ADD SWAP2 POP POP SWAP3 SWAP2 POP POP JUMP JUMPDEST PUSH3 0x2DBF DUP2 PUSH3 0x372A JUMP JUMPDEST DUP3 MSTORE POP POP JUMP JUMPDEST PUSH3 0x2DD0 DUP2 PUSH3 0x3752 JUMP JUMPDEST DUP3 MSTORE POP POP JUMP JUMPDEST PUSH1 0x0 PUSH3 0x2DE4 DUP4 DUP6 PUSH3 0x353C JUMP JUMPDEST SWAP4 POP PUSH3 0x2DF3 DUP4 DUP6 DUP5 PUSH3 0x3766 JUMP JUMPDEST PUSH3 0x2DFE DUP4 PUSH3 0x393A JUMP JUMPDEST DUP5 ADD SWAP1 POP SWAP4 SWAP3 POP POP POP JUMP JUMPDEST PUSH1 0x0 PUSH3 0x2E16 DUP3 PUSH3 0x3526 JUMP JUMPDEST PUSH3 0x2E22 DUP2 DUP6 PUSH3 0x353C JUMP JUMPDEST SWAP4 POP PUSH3 0x2E34 DUP2 DUP6 PUSH1 0x20 DUP7 ADD PUSH3 0x3775 JUMP JUMPDEST PUSH3 0x2E3F DUP2 PUSH3 0x393A JUMP JUMPDEST DUP5 ADD SWAP2 POP POP SWAP3 SWAP2 POP POP JUMP JUMPDEST PUSH1 0x0 DUP2 SLOAD PUSH3 0x2E59 DUP2 PUSH3 0x37AB JUMP JUMPDEST PUSH3 0x2E65 DUP2 DUP7 PUSH3 0x353C JUMP JUMPDEST SWAP5 POP PUSH1 0x1 DUP3 AND PUSH1 0x0 DUP2 EQ PUSH3 0x2E83 JUMPI PUSH1 0x1 DUP2 EQ PUSH3 0x2E96 JUMPI PUSH3 0x2ECD JUMP JUMPDEST PUSH1 0xFF NOT DUP4 AND DUP7 MSTORE PUSH1 0x20 DUP7 ADD SWAP4 POP PUSH3 0x2ECD JUMP JUMPDEST PUSH3 0x2EA1 DUP6 PUSH3 0x3506 JUMP JUMPDEST PUSH1 0x0 JUMPDEST DUP4 DUP2 LT ISZERO PUSH3 0x2EC5 JUMPI DUP2 SLOAD DUP2 DUP10 ADD MSTORE PUSH1 0x1 DUP3 ADD SWAP2 POP PUSH1 0x20 DUP2 ADD SWAP1 POP PUSH3 0x2EA4 JUMP JUMPDEST DUP1 DUP9 ADD SWAP6 POP POP POP JUMPDEST POP POP POP SWAP3 SWAP2 POP POP JUMP JUMPDEST PUSH1 0x0 PUSH3 0x2EE5 PUSH1 0xB DUP4 PUSH3 0x353C JUMP JUMPDEST SWAP2 POP PUSH3 0x2EF2 DUP3 PUSH3 0x3958 JUMP JUMPDEST PUSH1 0x20 DUP3 ADD SWAP1 POP SWAP2 SWAP1 POP JUMP JUMPDEST PUSH1 0x0 PUSH3 0x2F0C PUSH1 0x12 DUP4 PUSH3 0x353C JUMP JUMPDEST SWAP2 POP PUSH3 0x2F19 DUP3 PUSH3 0x3981 JUMP JUMPDEST PUSH1 0x20 DUP3 ADD SWAP1 POP SWAP2 SWAP1 POP JUMP JUMPDEST PUSH1 0x0 PUSH3 0x2F33 PUSH1 0x15 DUP4 PUSH3 0x353C JUMP JUMPDEST SWAP2 POP PUSH3 0x2F40 DUP3 PUSH3 0x39AA JUMP JUMPDEST PUSH1 0x20 DUP3 ADD SWAP1 POP SWAP2 SWAP1 POP JUMP JUMPDEST PUSH1 0x0 PUSH3 0x2F5A PUSH1 0xD DUP4 PUSH3 0x353C JUMP JUMPDEST SWAP2 POP PUSH3 0x2F67 DUP3 PUSH3 0x39D3 JUMP JUMPDEST PUSH1 0x20 DUP3 ADD SWAP1 POP SWAP2 SWAP1 POP JUMP JUMPDEST PUSH1 0x0 PUSH3 0x2F81 PUSH1 0x15 DUP4 PUSH3 0x353C JUMP JUMPDEST SWAP2 POP PUSH3 0x2F8E DUP3 PUSH3 0x39FC JUMP JUMPDEST PUSH1 0x20 DUP3 ADD SWAP1 POP SWAP2 SWAP1 POP JUMP JUMPDEST PUSH1 0x0 PUSH3 0x2FA8 PUSH1 0x5 DUP4 PUSH3 0x354D JUMP JUMPDEST SWAP2 POP PUSH3 0x2FB5 DUP3 PUSH3 0x3A25 JUMP JUMPDEST PUSH1 0x5 DUP3 ADD SWAP1 POP SWAP2 SWAP1 POP JUMP JUMPDEST PUSH1 0x0 PUSH3 0x2FCF PUSH1 0x14 DUP4 PUSH3 0x353C JUMP JUMPDEST SWAP2 POP PUSH3 0x2FDC DUP3 PUSH3 0x3A4E JUMP JUMPDEST PUSH1 0x20 DUP3 ADD SWAP1 POP SWAP2 SWAP1 POP JUMP JUMPDEST PUSH1 0x0 PUSH3 0x2FF6 PUSH1 0xC DUP4 PUSH3 0x353C JUMP JUMPDEST SWAP2 POP PUSH3 0x3003 DUP3 PUSH3 0x3A77 JUMP JUMPDEST PUSH1 0x20 DUP3 ADD SWAP1 POP SWAP2 SWAP1 POP JUMP JUMPDEST PUSH1 0x0 PUSH3 0x301D PUSH1 0xA DUP4 PUSH3 0x353C JUMP JUMPDEST SWAP2 POP PUSH3 0x302A DUP3 PUSH3 0x3AA0 JUMP JUMPDEST PUSH1 0x20 DUP3 ADD SWAP1 POP SWAP2 SWAP1 POP JUMP JUMPDEST PUSH1 0x0 PUSH3 0x3044 PUSH1 0x9 DUP4 PUSH3 0x354D JUMP JUMPDEST SWAP2 POP PUSH3 0x3051 DUP3 PUSH3 0x3AC9 JUMP JUMPDEST PUSH1 0x9 DUP3 ADD SWAP1 POP SWAP2 SWAP1 POP JUMP JUMPDEST PUSH3 0x3067 DUP2 PUSH3 0x3713 JUMP JUMPDEST DUP3 MSTORE POP POP JUMP JUMPDEST PUSH3 0x3082 PUSH3 0x307C DUP3 PUSH3 0x3713 JUMP JUMPDEST PUSH3 0x386B JUMP JUMPDEST DUP3 MSTORE POP POP JUMP JUMPDEST PUSH3 0x3093 DUP2 PUSH3 0x371D JUMP JUMPDEST DUP3 MSTORE POP POP JUMP JUMPDEST PUSH1 0x0 PUSH3 0x30A7 DUP3 DUP7 PUSH3 0x2D0A JUMP JUMPDEST PUSH1 0x14 DUP3 ADD SWAP2 POP PUSH3 0x30B9 DUP3 DUP6 PUSH3 0x306D JUMP JUMPDEST PUSH1 0x20 DUP3 ADD SWAP2 POP PUSH3 0x30CB DUP3 DUP5 PUSH3 0x306D JUMP JUMPDEST PUSH1 0x20 DUP3 ADD SWAP2 POP DUP2 SWAP1 POP SWAP5 SWAP4 POP POP POP POP JUMP JUMPDEST PUSH1 0x0 PUSH3 0x30EA DUP3 DUP8 PUSH3 0x2D36 JUMP JUMPDEST PUSH1 0x1 DUP3 ADD SWAP2 POP PUSH3 0x30FC DUP3 DUP7 PUSH3 0x2D0A JUMP JUMPDEST PUSH1 0x14 DUP3 ADD SWAP2 POP PUSH3 0x310E DUP3 DUP6 PUSH3 0x2D62 JUMP JUMPDEST PUSH1 0x20 DUP3 ADD SWAP2 POP PUSH3 0x3120 DUP3 DUP5 PUSH3 0x2D62 JUMP JUMPDEST PUSH1 0x20 DUP3 ADD SWAP2 POP DUP2 SWAP1 POP SWAP6 SWAP5 POP POP POP POP POP JUMP JUMPDEST PUSH1 0x0 PUSH3 0x3140 DUP3 DUP5 PUSH3 0x2D62 JUMP JUMPDEST PUSH1 0x20 DUP3 ADD SWAP2 POP DUP2 SWAP1 POP SWAP3 SWAP2 POP POP JUMP JUMPDEST PUSH1 0x0 PUSH3 0x315D DUP3 DUP5 PUSH3 0x2D7D JUMP JUMPDEST SWAP2 POP DUP2 SWAP1 POP SWAP3 SWAP2 POP POP JUMP JUMPDEST PUSH1 0x0 PUSH3 0x3175 DUP3 PUSH3 0x2F99 JUMP JUMPDEST SWAP2 POP PUSH3 0x3183 DUP3 DUP5 PUSH3 0x306D JUMP JUMPDEST PUSH1 0x20 DUP3 ADD SWAP2 POP DUP2 SWAP1 POP SWAP3 SWAP2 POP POP JUMP JUMPDEST PUSH1 0x0 PUSH3 0x319F DUP3 PUSH3 0x3035 JUMP JUMPDEST SWAP2 POP PUSH3 0x31AD DUP3 DUP5 PUSH3 0x2D0A JUMP JUMPDEST PUSH1 0x14 DUP3 ADD SWAP2 POP DUP2 SWAP1 POP SWAP3 SWAP2 POP POP JUMP JUMPDEST PUSH1 0x0 PUSH1 0x20 DUP3 ADD SWAP1 POP PUSH3 0x31D3 PUSH1 0x0 DUP4 ADD DUP5 PUSH3 0x2CF9 JUMP JUMPDEST SWAP3 SWAP2 POP POP JUMP JUMPDEST PUSH1 0x0 PUSH1 0x40 DUP3 ADD SWAP1 POP PUSH3 0x31F0 PUSH1 0x0 DUP4 ADD DUP6 PUSH3 0x2CF9 JUMP JUMPDEST PUSH3 0x31FF PUSH1 0x20 DUP4 ADD DUP5 PUSH3 0x2CF9 JUMP JUMPDEST SWAP4 SWAP3 POP POP POP JUMP JUMPDEST PUSH1 0x0 PUSH1 0x40 DUP3 ADD SWAP1 POP PUSH3 0x321D PUSH1 0x0 DUP4 ADD DUP6 PUSH3 0x2CF9 JUMP JUMPDEST PUSH3 0x322C PUSH1 0x20 DUP4 ADD DUP5 PUSH3 0x2D25 JUMP JUMPDEST SWAP4 SWAP3 POP POP POP JUMP JUMPDEST PUSH1 0x0 PUSH1 0x40 DUP3 ADD SWAP1 POP PUSH3 0x324A PUSH1 0x0 DUP4 ADD DUP6 PUSH3 0x2CF9 JUMP JUMPDEST PUSH3 0x3259 PUSH1 0x20 DUP4 ADD DUP5 PUSH3 0x305C JUMP JUMPDEST SWAP4 SWAP3 POP POP POP JUMP JUMPDEST PUSH1 0x0 PUSH1 0x20 DUP3 ADD SWAP1 POP PUSH3 0x3277 PUSH1 0x0 DUP4 ADD DUP5 PUSH3 0x2D25 JUMP JUMPDEST SWAP3 SWAP2 POP POP JUMP JUMPDEST PUSH1 0x0 PUSH1 0x20 DUP3 ADD SWAP1 POP PUSH3 0x3294 PUSH1 0x0 DUP4 ADD DUP5 PUSH3 0x2D51 JUMP JUMPDEST SWAP3 SWAP2 POP POP JUMP JUMPDEST PUSH1 0x0 PUSH1 0x40 DUP3 ADD SWAP1 POP PUSH3 0x32B1 PUSH1 0x0 DUP4 ADD DUP6 PUSH3 0x2D51 JUMP JUMPDEST PUSH3 0x32C0 PUSH1 0x20 DUP4 ADD DUP5 PUSH3 0x2D51 JUMP JUMPDEST SWAP4 SWAP3 POP POP POP JUMP JUMPDEST PUSH1 0x0 PUSH1 0x20 DUP3 ADD SWAP1 POP PUSH3 0x32DE PUSH1 0x0 DUP4 ADD DUP5 PUSH3 0x2DB4 JUMP JUMPDEST SWAP3 SWAP2 POP POP JUMP JUMPDEST PUSH1 0x0 PUSH1 0x20 DUP3 ADD SWAP1 POP PUSH3 0x32FB PUSH1 0x0 DUP4 ADD DUP5 PUSH3 0x2DC5 JUMP JUMPDEST SWAP3 SWAP2 POP POP JUMP JUMPDEST PUSH1 0x0 PUSH1 0x40 DUP3 ADD SWAP1 POP PUSH3 0x3318 PUSH1 0x0 DUP4 ADD DUP6 PUSH3 0x2DC5 JUMP JUMPDEST PUSH3 0x3327 PUSH1 0x20 DUP4 ADD DUP5 PUSH3 0x305C JUMP JUMPDEST SWAP4 SWAP3 POP POP POP JUMP JUMPDEST PUSH1 0x0 PUSH1 0x20 DUP3 ADD SWAP1 POP DUP2 DUP2 SUB PUSH1 0x0 DUP4 ADD MSTORE PUSH3 0x334A DUP2 DUP5 PUSH3 0x2E09 JUMP JUMPDEST SWAP1 POP SWAP3 SWAP2 POP POP JUMP JUMPDEST PUSH1 0x0 PUSH1 0x40 DUP3 ADD SWAP1 POP DUP2 DUP2 SUB PUSH1 0x0 DUP4 ADD MSTORE PUSH3 0x336E DUP2 DUP7 PUSH3 0x2E4A JUMP JUMPDEST SWAP1 POP DUP2 DUP2 SUB PUSH1 0x20 DUP4 ADD MSTORE PUSH3 0x3385 DUP2 DUP5 DUP7 PUSH3 0x2DD6 JUMP JUMPDEST SWAP1 POP SWAP5 SWAP4 POP POP POP POP JUMP JUMPDEST PUSH1 0x0 PUSH1 0x20 DUP3 ADD SWAP1 POP DUP2 DUP2 SUB PUSH1 0x0 DUP4 ADD MSTORE PUSH3 0x33AA DUP2 PUSH3 0x2ED6 JUMP JUMPDEST SWAP1 POP SWAP2 SWAP1 POP JUMP JUMPDEST PUSH1 0x0 PUSH1 0x20 DUP3 ADD SWAP1 POP DUP2 DUP2 SUB PUSH1 0x0 DUP4 ADD MSTORE PUSH3 0x33CC DUP2 PUSH3 0x2EFD JUMP JUMPDEST SWAP1 POP SWAP2 SWAP1 POP JUMP JUMPDEST PUSH1 0x0 PUSH1 0x20 DUP3 ADD SWAP1 POP DUP2 DUP2 SUB PUSH1 0x0 DUP4 ADD MSTORE PUSH3 0x33EE DUP2 PUSH3 0x2F24 JUMP JUMPDEST SWAP1 POP SWAP2 SWAP1 POP JUMP JUMPDEST PUSH1 0x0 PUSH1 0x20 DUP3 ADD SWAP1 POP DUP2 DUP2 SUB PUSH1 0x0 DUP4 ADD MSTORE PUSH3 0x3410 DUP2 PUSH3 0x2F4B JUMP JUMPDEST SWAP1 POP SWAP2 SWAP1 POP JUMP JUMPDEST PUSH1 0x0 PUSH1 0x20 DUP3 ADD SWAP1 POP DUP2 DUP2 SUB PUSH1 0x0 DUP4 ADD MSTORE PUSH3 0x3432 DUP2 PUSH3 0x2F72 JUMP JUMPDEST SWAP1 POP SWAP2 SWAP1 POP JUMP JUMPDEST PUSH1 0x0 PUSH1 0x20 DUP3 ADD SWAP1 POP DUP2 DUP2 SUB PUSH1 0x0 DUP4 ADD MSTORE PUSH3 0x3454 DUP2 PUSH3 0x2FC0 JUMP JUMPDEST SWAP1 POP SWAP2 SWAP1 POP JUMP JUMPDEST PUSH1 0x0 PUSH1 0x20 DUP3 ADD SWAP1 POP DUP2 DUP2 SUB PUSH1 0x0 DUP4 ADD MSTORE PUSH3 0x3476 DUP2 PUSH3 0x2FE7 JUMP JUMPDEST SWAP1 POP SWAP2 SWAP1 POP JUMP JUMPDEST PUSH1 0x0 PUSH1 0x20 DUP3 ADD SWAP1 POP DUP2 DUP2 SUB PUSH1 0x0 DUP4 ADD MSTORE PUSH3 0x3498 DUP2 PUSH3 0x300E JUMP JUMPDEST SWAP1 POP SWAP2 SWAP1 POP JUMP JUMPDEST PUSH1 0x0 PUSH1 0x20 DUP3 ADD SWAP1 POP PUSH3 0x34B6 PUSH1 0x0 DUP4 ADD DUP5 PUSH3 0x305C JUMP JUMPDEST SWAP3 SWAP2 POP POP JUMP JUMPDEST PUSH1 0x0 PUSH1 0x40 DUP3 ADD SWAP1 POP PUSH3 0x34D3 PUSH1 0x0 DUP4 ADD DUP6 PUSH3 0x305C JUMP JUMPDEST PUSH3 0x34E2 PUSH1 0x20 DUP4 ADD DUP5 PUSH3 0x305C JUMP JUMPDEST SWAP4 SWAP3 POP POP POP JUMP JUMPDEST PUSH1 0x0 PUSH1 0x20 DUP3 ADD SWAP1 POP PUSH3 0x3500 PUSH1 0x0 DUP4 ADD DUP5 PUSH3 0x3088 JUMP JUMPDEST SWAP3 SWAP2 POP POP JUMP JUMPDEST PUSH1 0x0 DUP2 SWAP1 POP DUP2 PUSH1 0x0 MSTORE PUSH1 0x20 PUSH1 0x0 KECCAK256 SWAP1 POP SWAP2 SWAP1 POP JUMP JUMPDEST PUSH1 0x0 DUP2 MLOAD SWAP1 POP SWAP2 SWAP1 POP JUMP JUMPDEST PUSH1 0x0 DUP2 MLOAD SWAP1 POP SWAP2 SWAP1 POP JUMP JUMPDEST PUSH1 0x0 DUP2 SWAP1 POP SWAP3 SWAP2 POP POP JUMP JUMPDEST PUSH1 0x0 DUP3 DUP3 MSTORE PUSH1 0x20 DUP3 ADD SWAP1 POP SWAP3 SWAP2 POP POP JUMP JUMPDEST PUSH1 0x0 DUP2 SWAP1 POP SWAP3 SWAP2 POP POP JUMP JUMPDEST PUSH1 0x0 PUSH3 0x3565 DUP3 PUSH3 0x3713 JUMP JUMPDEST SWAP2 POP PUSH3 0x3572 DUP4 PUSH3 0x3713 JUMP JUMPDEST SWAP3 POP DUP3 PUSH32 0xFFFFFFFFFFFFFFFFFFFFFFFFFFFFFFFFFFFFFFFFFFFFFFFFFFFFFFFFFFFFFFFF SUB DUP3 GT ISZERO PUSH3 0x35AA JUMPI PUSH3 0x35A9 PUSH3 0x38AD JUMP JUMPDEST JUMPDEST DUP3 DUP3 ADD SWAP1 POP SWAP3 SWAP2 POP POP JUMP JUMPDEST PUSH1 0x0 PUSH3 0x35C2 DUP3 PUSH3 0x3713 JUMP JUMPDEST SWAP2 POP PUSH3 0x35CF DUP4 PUSH3 0x3713 JUMP JUMPDEST SWAP3 POP DUP3 PUSH3 0x35E2 JUMPI PUSH3 0x35E1 PUSH3 0x38DC JUMP JUMPDEST JUMPDEST DUP3 DUP3 DIV SWAP1 POP SWAP3 SWAP2 POP POP JUMP JUMPDEST PUSH1 0x0 PUSH3 0x35FA DUP3 PUSH3 0x3713 JUMP JUMPDEST SWAP2 POP PUSH3 0x3607 DUP4 PUSH3 0x3713 JUMP JUMPDEST SWAP3 POP DUP2 PUSH32 0xFFFFFFFFFFFFFFFFFFFFFFFFFFFFFFFFFFFFFFFFFFFFFFFFFFFFFFFFFFFFFFFF DIV DUP4 GT DUP3 ISZERO ISZERO AND ISZERO PUSH3 0x3643 JUMPI PUSH3 0x3642 PUSH3 0x38AD JUMP JUMPDEST JUMPDEST DUP3 DUP3 MUL SWAP1 POP SWAP3 SWAP2 POP POP JUMP JUMPDEST PUSH1 0x0 PUSH3 0x365B DUP3 PUSH3 0x3713 JUMP JUMPDEST SWAP2 POP PUSH3 0x3668 DUP4 PUSH3 0x3713 JUMP JUMPDEST SWAP3 POP DUP3 DUP3 LT ISZERO PUSH3 0x367E JUMPI PUSH3 0x367D PUSH3 0x38AD JUMP JUMPDEST JUMPDEST DUP3 DUP3 SUB SWAP1 POP SWAP3 SWAP2 POP POP JUMP JUMPDEST PUSH1 0x0 PUSH3 0x3696 DUP3 PUSH3 0x36F3 JUMP JUMPDEST SWAP1 POP SWAP2 SWAP1 POP JUMP JUMPDEST PUSH1 0x0 DUP2 ISZERO ISZERO SWAP1 POP SWAP2 SWAP1 POP JUMP JUMPDEST PUSH1 0x0 PUSH32 0xFF00000000000000000000000000000000000000000000000000000000000000 DUP3 AND SWAP1 POP SWAP2 SWAP1 POP JUMP JUMPDEST PUSH1 0x0 DUP2 SWAP1 POP SWAP2 SWAP1 POP JUMP JUMPDEST PUSH1 0x0 PUSH3 0x36EC DUP3 PUSH3 0x3689 JUMP JUMPDEST SWAP1 POP SWAP2 SWAP1 POP JUMP JUMPDEST PUSH1 0x0 PUSH20 0xFFFFFFFFFFFFFFFFFFFFFFFFFFFFFFFFFFFFFFFF DUP3 AND SWAP1 POP SWAP2 SWAP1 POP JUMP JUMPDEST PUSH1 0x0 DUP2 SWAP1 POP SWAP2 SWAP1 POP JUMP JUMPDEST PUSH1 0x0 PUSH1 0xFF DUP3 AND SWAP1 POP SWAP2 SWAP1 POP JUMP JUMPDEST PUSH1 0x0 PUSH3 0x3737 DUP3 PUSH3 0x373E JUMP JUMPDEST SWAP1 POP SWAP2 SWAP1 POP JUMP JUMPDEST PUSH1 0x0 PUSH3 0x374B DUP3 PUSH3 0x36F3 JUMP JUMPDEST SWAP1 POP SWAP2 SWAP1 POP JUMP JUMPDEST PUSH1 0x0 PUSH3 0x375F DUP3 PUSH3 0x3713 JUMP JUMPDEST SWAP1 POP SWAP2 SWAP1 POP JUMP JUMPDEST DUP3 DUP2 DUP4 CALLDATACOPY PUSH1 0x0 DUP4 DUP4 ADD MSTORE POP POP POP JUMP JUMPDEST PUSH1 0x0 JUMPDEST DUP4 DUP2 LT ISZERO PUSH3 0x3795 JUMPI DUP1 DUP3 ADD MLOAD DUP2 DUP5 ADD MSTORE PUSH1 0x20 DUP2 ADD SWAP1 POP PUSH3 0x3778 JUMP JUMPDEST DUP4 DUP2 GT ISZERO PUSH3 0x37A5 JUMPI PUSH1 0x0 DUP5 DUP5 ADD MSTORE JUMPDEST POP POP POP POP JUMP JUMPDEST PUSH1 0x0 PUSH1 0x2 DUP3 DIV SWAP1 POP PUSH1 0x1 DUP3 AND DUP1 PUSH3 0x37C4 JUMPI PUSH1 0x7F DUP3 AND SWAP2 POP JUMPDEST PUSH1 0x20 DUP3 LT DUP2 EQ ISZERO PUSH3 0x37DB JUMPI PUSH3 0x37DA PUSH3 0x390B JUMP JUMPDEST JUMPDEST POP SWAP2 SWAP1 POP JUMP JUMPDEST PUSH1 0x0 PUSH3 0x37EE DUP3 PUSH3 0x3713 JUMP JUMPDEST SWAP2 POP PUSH32 0xFFFFFFFFFFFFFFFFFFFFFFFFFFFFFFFFFFFFFFFFFFFFFFFFFFFFFFFFFFFFFFFF DUP3 EQ ISZERO PUSH3 0x3824 JUMPI PUSH3 0x3823 PUSH3 0x38AD JUMP JUMPDEST JUMPDEST PUSH1 0x1 DUP3 ADD SWAP1 POP SWAP2 SWAP1 POP JUMP JUMPDEST PUSH1 0x0 PUSH3 0x383C DUP3 PUSH3 0x3857 JUMP JUMPDEST SWAP1 POP SWAP2 SWAP1 POP JUMP JUMPDEST PUSH1 0x0 DUP2 SWAP1 POP SWAP2 SWAP1 POP JUMP JUMPDEST PUSH1 0x0 DUP2 SWAP1 POP SWAP2 SWAP1 POP JUMP JUMPDEST PUSH1 0x0 PUSH3 0x3864 DUP3 PUSH3 0x394B JUMP JUMPDEST SWAP1 POP SWAP2 SWAP1 POP JUMP JUMPDEST PUSH1 0x0 DUP2 SWAP1 POP SWAP2 SWAP1 POP JUMP JUMPDEST PUSH1 0x0 PUSH3 0x3882 DUP3 PUSH3 0x3713 JUMP JUMPDEST SWAP2 POP PUSH3 0x388F DUP4 PUSH3 0x3713 JUMP JUMPDEST SWAP3 POP DUP3 PUSH3 0x38A2 JUMPI PUSH3 0x38A1 PUSH3 0x38DC JUMP JUMPDEST JUMPDEST DUP3 DUP3 MOD SWAP1 POP SWAP3 SWAP2 POP POP JUMP JUMPDEST PUSH32 0x4E487B7100000000000000000000000000000000000000000000000000000000 PUSH1 0x0 MSTORE PUSH1 0x11 PUSH1 0x4 MSTORE PUSH1 0x24 PUSH1 0x0 REVERT JUMPDEST PUSH32 0x4E487B7100000000000000000000000000000000000000000000000000000000 PUSH1 0x0 MSTORE PUSH1 0x12 PUSH1 0x4 MSTORE PUSH1 0x24 PUSH1 0x0 REVERT JUMPDEST PUSH32 0x4E487B7100000000000000000000000000000000000000000000000000000000 PUSH1 0x0 MSTORE PUSH1 0x22 PUSH1 0x4 MSTORE PUSH1 0x24 PUSH1 0x0 REVERT JUMPDEST PUSH1 0x0 PUSH1 0x1F NOT PUSH1 0x1F DUP4 ADD AND SWAP1 POP SWAP2 SWAP1 POP JUMP JUMPDEST PUSH1 0x0 DUP2 PUSH1 0x60 SHL SWAP1 POP SWAP2 SWAP1 POP JUMP JUMPDEST PUSH32 0x446976206279207A65726F000000000000000000000000000000000000000000 PUSH1 0x0 DUP3 ADD MSTORE POP JUMP JUMPDEST PUSH32 0x62616C616E6365206E6F7420656E6F7567680000000000000000000000000000 PUSH1 0x0 DUP3 ADD MSTORE POP JUMP JUMPDEST PUSH32 0x6572726F722072656164696E672073746F726167650000000000000000000000 PUSH1 0x0 DUP3 ADD MSTORE POP JUMP JUMPDEST PUSH32 0x53756220756E646572666C6F7700000000000000000000000000000000000000 PUSH1 0x0 DUP3 ADD MSTORE POP JUMP JUMPDEST PUSH32 0x6572726F722077726974696E672073746F726167650000000000000000000000 PUSH1 0x0 DUP3 ADD MSTORE POP JUMP JUMPDEST PUSH32 0x6E6F6E6365000000000000000000000000000000000000000000000000000000 PUSH1 0x0 DUP3 ADD MSTORE POP JUMP JUMPDEST PUSH32 0x616C6C6F77616E6365206E6F7420656E6F756768000000000000000000000000 PUSH1 0x0 DUP3 ADD MSTORE POP JUMP JUMPDEST PUSH32 0x416464206F766572666C6F770000000000000000000000000000000000000000 PUSH1 0x0 DUP3 ADD MSTORE POP JUMP JUMPDEST PUSH32 0x6F6E6C79206F776E657200000000000000000000000000000000000000000000 PUSH1 0x0 DUP3 ADD MSTORE POP JUMP JUMPDEST PUSH32 0x616C6C6F77616E63650000000000000000000000000000000000000000000000 PUSH1 0x0 DUP3 ADD MSTORE POP JUMP JUMPDEST PUSH3 0x3AFD DUP2 PUSH3 0x3689 JUMP JUMPDEST DUP2 EQ PUSH3 0x3B09 JUMPI PUSH1 0x0 DUP1 REVERT JUMPDEST POP JUMP JUMPDEST PUSH3 0x3B17 DUP2 PUSH3 0x369D JUMP JUMPDEST DUP2 EQ PUSH3 0x3B23 JUMPI PUSH1 0x0 DUP1 REVERT JUMPDEST POP JUMP JUMPDEST PUSH3 0x3B31 DUP2 PUSH3 0x36D5 JUMP JUMPDEST DUP2 EQ PUSH3 0x3B3D JUMPI PUSH1 0x0 DUP1 REVERT JUMPDEST POP JUMP JUMPDEST PUSH3 0x3B4B DUP2 PUSH3 0x36DF JUMP JUMPDEST DUP2 EQ PUSH3 0x3B57 JUMPI PUSH1 0x0 DUP1 REVERT JUMPDEST POP JUMP JUMPDEST PUSH3 0x3B65 DUP2 PUSH3 0x3713 JUMP JUMPDEST DUP2 EQ PUSH3 0x3B71 JUMPI PUSH1 0x0 DUP1 REVERT JUMPDEST POP JUMP INVALID PUSH1 0x80 PUSH1 0x40 MSTORE CALLVALUE DUP1 ISZERO PUSH3 0x11 JUMPI PUSH1 0x0 DUP1 REVERT JUMPDEST POP CALLER PUSH1 0x0 DUP1 PUSH2 0x100 EXP DUP2 SLOAD DUP2 PUSH20 0xFFFFFFFFFFFFFFFFFFFFFFFFFFFFFFFFFFFFFFFF MUL NOT AND SWAP1 DUP4 PUSH20 0xFFFFFFFFFFFFFFFFFFFFFFFFFFFFFFFFFFFFFFFF AND MUL OR SWAP1 SSTORE POP PUSH32 0x5C486528EC3E3F0EA91181CFF8116F02BFA350E03B8B6F12E00765ADBB5AF85C PUSH1 0x0 CALLER PUSH1 0x40 MLOAD PUSH3 0x86 SWAP3 SWAP2 SWAP1 PUSH3 0x15F JUMP JUMPDEST PUSH1 0x40 MLOAD DUP1 SWAP2 SUB SWAP1 LOG1 PUSH3 0xA5 PUSH1 0x1 PUSH3 0xAB PUSH1 0x20 SHL PUSH3 0x6CB OR PUSH1 0x20 SHR JUMP JUMPDEST PUSH3 0x21C JUMP JUMPDEST PUSH1 0x0 DUP2 PUSH1 0x0 ADD DUP1 SLOAD SWAP1 POP EQ PUSH3 0xF8 JUMPI PUSH1 0x40 MLOAD PUSH32 0x8C379A000000000000000000000000000000000000000000000000000000000 DUP2 MSTORE PUSH1 0x4 ADD PUSH3 0xEF SWAP1 PUSH3 0x18C JUMP JUMPDEST PUSH1 0x40 MLOAD DUP1 SWAP2 SUB SWAP1 REVERT JUMPDEST DUP1 PUSH1 0x0 ADD PUSH1 0x0 SWAP1 DUP1 PUSH1 0x1 DUP2 SLOAD ADD DUP1 DUP3 SSTORE DUP1 SWAP2 POP POP PUSH1 0x1 SWAP1 SUB SWAP1 PUSH1 0x0 MSTORE PUSH1 0x20 PUSH1 0x0 KECCAK256 ADD PUSH1 0x0 SWAP1 SWAP2 SWAP1 SWAP2 SWAP1 SWAP2 POP SSTORE POP JUMP JUMPDEST PUSH3 0x132 DUP2 PUSH3 0x1BF JUMP JUMPDEST DUP3 MSTORE POP POP JUMP JUMPDEST PUSH1 0x0 PUSH3 0x147 PUSH1 0x13 DUP4 PUSH3 0x1AE JUMP JUMPDEST SWAP2 POP PUSH3 0x154 DUP3 PUSH3 0x1F3 JUMP JUMPDEST PUSH1 0x20 DUP3 ADD SWAP1 POP SWAP2 SWAP1 POP JUMP JUMPDEST PUSH1 0x0 PUSH1 0x40 DUP3 ADD SWAP1 POP PUSH3 0x176 PUSH1 0x0 DUP4 ADD DUP6 PUSH3 0x127 JUMP JUMPDEST PUSH3 0x185 PUSH1 0x20 DUP4 ADD DUP5 PUSH3 0x127 JUMP JUMPDEST SWAP4 SWAP3 POP POP POP JUMP JUMPDEST PUSH1 0x0 PUSH1 0x20 DUP3 ADD SWAP1 POP DUP2 DUP2 SUB PUSH1 0x0 DUP4 ADD MSTORE PUSH3 0x1A7 DUP2 PUSH3 0x138 JUMP JUMPDEST SWAP1 POP SWAP2 SWAP1 POP JUMP JUMPDEST PUSH1 0x0 DUP3 DUP3 MSTORE PUSH1 0x20 DUP3 ADD SWAP1 POP SWAP3 SWAP2 POP POP JUMP JUMPDEST PUSH1 0x0 PUSH3 0x1CC DUP3 PUSH3 0x1D3 JUMP JUMPDEST SWAP1 POP SWAP2 SWAP1 POP JUMP JUMPDEST PUSH1 0x0 PUSH20 0xFFFFFFFFFFFFFFFFFFFFFFFFFFFFFFFFFFFFFFFF DUP3 AND SWAP1 POP SWAP2 SWAP1 POP JUMP JUMPDEST PUSH32 0x616C726561647920696E697469616C697A656400000000000000000000000000 PUSH1 0x0 DUP3 ADD MSTORE POP JUMP JUMPDEST PUSH2 0x191D DUP1 PUSH3 0x22C PUSH1 0x0 CODECOPY PUSH1 0x0 RETURN INVALID PUSH1 0x80 PUSH1 0x40 MSTORE CALLVALUE DUP1 ISZERO PUSH2 0x10 JUMPI PUSH1 0x0 DUP1 REVERT JUMPDEST POP PUSH1 0x4 CALLDATASIZE LT PUSH2 0x9E JUMPI PUSH1 0x0 CALLDATALOAD PUSH1 0xE0 SHR DUP1 PUSH4 0x949D225D GT PUSH2 0x66 JUMPI DUP1 PUSH4 0x949D225D EQ PUSH2 0x149 JUMPI DUP1 PUSH4 0xA2D83B5E EQ PUSH2 0x167 JUMPI DUP1 PUSH4 0xE2095C07 EQ PUSH2 0x183 JUMPI DUP1 PUSH4 0xFD6AAD25 EQ PUSH2 0x1B4 JUMPI DUP1 PUSH4 0xFE6DCDBA EQ PUSH2 0x1E4 JUMPI PUSH2 0x9E JUMP JUMPDEST DUP1 PUSH4 0xAF2B3E5 EQ PUSH2 0xA3 JUMPI DUP1 PUSH4 0x13AF4035 EQ PUSH2 0xD3 JUMPI DUP1 PUSH4 0x31FB7127 EQ PUSH2 0xEF JUMPI DUP1 PUSH4 0x7C32CDD1 EQ PUSH2 0x10D JUMPI DUP1 PUSH4 0x8DA5CB5B EQ PUSH2 0x12B JUMPI JUMPDEST PUSH1 0x0 DUP1 REVERT JUMPDEST PUSH2 0xBD PUSH1 0x4 DUP1 CALLDATASIZE SUB DUP2 ADD SWAP1 PUSH2 0xB8 SWAP2 SWAP1 PUSH2 0x1372 JUMP JUMPDEST PUSH2 0x203 JUMP JUMPDEST PUSH1 0x40 MLOAD PUSH2 0xCA SWAP2 SWAP1 PUSH2 0x1477 JUMP JUMPDEST PUSH1 0x40 MLOAD DUP1 SWAP2 SUB SWAP1 RETURN JUMPDEST PUSH2 0xED PUSH1 0x4 DUP1 CALLDATASIZE SUB DUP2 ADD SWAP1 PUSH2 0xE8 SWAP2 SWAP1 PUSH2 0x130D JUMP JUMPDEST PUSH2 0x223 JUMP JUMPDEST STOP JUMPDEST PUSH2 0xF7 PUSH2 0x34D JUMP JUMPDEST PUSH1 0x40 MLOAD PUSH2 0x104 SWAP2 SWAP1 PUSH2 0x15AD JUMP JUMPDEST PUSH1 0x40 MLOAD DUP1 SWAP2 SUB SWAP1 RETURN JUMPDEST PUSH2 0x115 PUSH2 0x353 JUMP JUMPDEST PUSH1 0x40 MLOAD PUSH2 0x122 SWAP2 SWAP1 PUSH2 0x15AD JUMP JUMPDEST PUSH1 0x40 MLOAD DUP1 SWAP2 SUB SWAP1 RETURN JUMPDEST PUSH2 0x133 PUSH2 0x35D JUMP JUMPDEST PUSH1 0x40 MLOAD PUSH2 0x140 SWAP2 SWAP1 PUSH2 0x1477 JUMP JUMPDEST PUSH1 0x40 MLOAD DUP1 SWAP2 SUB SWAP1 RETURN JUMPDEST PUSH2 0x151 PUSH2 0x381 JUMP JUMPDEST PUSH1 0x40 MLOAD PUSH2 0x15E SWAP2 SWAP1 PUSH2 0x15AD JUMP JUMPDEST PUSH1 0x40 MLOAD DUP1 SWAP2 SUB SWAP1 RETURN JUMPDEST PUSH2 0x181 PUSH1 0x4 DUP1 CALLDATASIZE SUB DUP2 ADD SWAP1 PUSH2 0x17C SWAP2 SWAP1 PUSH2 0x1336 JUMP JUMPDEST PUSH2 0x392 JUMP JUMPDEST STOP JUMPDEST PUSH2 0x19D PUSH1 0x4 DUP1 CALLDATASIZE SUB DUP2 ADD SWAP1 PUSH2 0x198 SWAP2 SWAP1 PUSH2 0x1372 JUMP JUMPDEST PUSH2 0x64B JUMP JUMPDEST PUSH1 0x40 MLOAD PUSH2 0x1AB SWAP3 SWAP2 SWAP1 PUSH2 0x14BB JUMP JUMPDEST PUSH1 0x40 MLOAD DUP1 SWAP2 SUB SWAP1 RETURN JUMPDEST PUSH2 0x1CE PUSH1 0x4 DUP1 CALLDATASIZE SUB DUP2 ADD SWAP1 PUSH2 0x1C9 SWAP2 SWAP1 PUSH2 0x130D JUMP JUMPDEST PUSH2 0x66B JUMP JUMPDEST PUSH1 0x40 MLOAD PUSH2 0x1DB SWAP2 SWAP1 PUSH2 0x15AD JUMP JUMPDEST PUSH1 0x40 MLOAD DUP1 SWAP2 SUB SWAP1 RETURN JUMPDEST PUSH2 0x1EC PUSH2 0x6B6 JUMP JUMPDEST PUSH1 0x40 MLOAD PUSH2 0x1FA SWAP3 SWAP2 SWAP1 PUSH2 0x14BB JUMP JUMPDEST PUSH1 0x40 MLOAD DUP1 SWAP2 SUB SWAP1 RETURN JUMPDEST PUSH1 0x0 PUSH2 0x219 DUP3 PUSH1 0x1 PUSH2 0x744 SWAP1 SWAP2 SWAP1 PUSH4 0xFFFFFFFF AND JUMP JUMPDEST POP DUP1 SWAP2 POP POP SWAP2 SWAP1 POP JUMP JUMPDEST PUSH1 0x0 DUP1 SLOAD SWAP1 PUSH2 0x100 EXP SWAP1 DIV PUSH20 0xFFFFFFFFFFFFFFFFFFFFFFFFFFFFFFFFFFFFFFFF AND PUSH20 0xFFFFFFFFFFFFFFFFFFFFFFFFFFFFFFFFFFFFFFFF AND CALLER PUSH20 0xFFFFFFFFFFFFFFFFFFFFFFFFFFFFFFFFFFFFFFFF AND EQ PUSH2 0x2B1 JUMPI PUSH1 0x40 MLOAD PUSH32 0x8C379A000000000000000000000000000000000000000000000000000000000 DUP2 MSTORE PUSH1 0x4 ADD PUSH2 0x2A8 SWAP1 PUSH2 0x156D JUMP JUMPDEST PUSH1 0x40 MLOAD DUP1 SWAP2 SUB SWAP1 REVERT JUMPDEST PUSH32 0x5C486528EC3E3F0EA91181CFF8116F02BFA350E03B8B6F12E00765ADBB5AF85C PUSH1 0x0 DUP1 SLOAD SWAP1 PUSH2 0x100 EXP SWAP1 DIV PUSH20 0xFFFFFFFFFFFFFFFFFFFFFFFFFFFFFFFFFFFFFFFF AND DUP3 PUSH1 0x40 MLOAD PUSH2 0x302 SWAP3 SWAP2 SWAP1 PUSH2 0x1492 JUMP JUMPDEST PUSH1 0x40 MLOAD DUP1 SWAP2 SUB SWAP1 LOG1 DUP1 PUSH1 0x0 DUP1 PUSH2 0x100 EXP DUP2 SLOAD DUP2 PUSH20 0xFFFFFFFFFFFFFFFFFFFFFFFFFFFFFFFFFFFFFFFF MUL NOT AND SWAP1 DUP4 PUSH20 0xFFFFFFFFFFFFFFFFFFFFFFFFFFFFFFFFFFFFFFFF AND MUL OR SWAP1 SSTORE POP POP JUMP JUMPDEST PUSH2 0x200 DUP2 JUMP JUMPDEST PUSH1 0x0 PUSH2 0x200 SWAP1 POP SWAP1 JUMP JUMPDEST PUSH1 0x0 DUP1 SLOAD SWAP1 PUSH2 0x100 EXP SWAP1 DIV PUSH20 0xFFFFFFFFFFFFFFFFFFFFFFFFFFFFFFFFFFFFFFFF AND DUP2 JUMP JUMPDEST PUSH1 0x0 PUSH2 0x38D PUSH1 0x1 PUSH2 0x7AD JUMP JUMPDEST SWAP1 POP SWAP1 JUMP JUMPDEST PUSH1 0x0 DUP1 SLOAD SWAP1 PUSH2 0x100 EXP SWAP1 DIV PUSH20 0xFFFFFFFFFFFFFFFFFFFFFFFFFFFFFFFFFFFFFFFF AND PUSH20 0xFFFFFFFFFFFFFFFFFFFFFFFFFFFFFFFFFFFFFFFF AND CALLER PUSH20 0xFFFFFFFFFFFFFFFFFFFFFFFFFFFFFFFFFFFFFFFF AND EQ PUSH2 0x420 JUMPI PUSH1 0x40 MLOAD PUSH32 0x8C379A000000000000000000000000000000000000000000000000000000000 DUP2 MSTORE PUSH1 0x4 ADD PUSH2 0x417 SWAP1 PUSH2 0x156D JUMP JUMPDEST PUSH1 0x40 MLOAD DUP1 SWAP2 SUB SWAP1 REVERT JUMPDEST PUSH1 0x0 PUSH2 0x42C PUSH1 0x1 PUSH2 0x7AD JUMP JUMPDEST SWAP1 POP PUSH1 0x0 DUP2 EQ ISZERO PUSH2 0x4A4 JUMPI DUP3 PUSH20 0xFFFFFFFFFFFFFFFFFFFFFFFFFFFFFFFFFFFFFFFF AND PUSH32 0xB7C8EB45E695579273671351C1EE88509AF6EC27E061176B10F5F9FB145EFF93 DUP4 PUSH1 0x0 PUSH1 0x40 MLOAD PUSH2 0x480 SWAP3 SWAP2 SWAP1 PUSH2 0x15C8 JUMP JUMPDEST PUSH1 0x40 MLOAD DUP1 SWAP2 SUB SWAP1 LOG2 PUSH2 0x49E DUP4 DUP4 PUSH1 0x1 PUSH2 0x7CA SWAP1 SWAP3 SWAP2 SWAP1 PUSH4 0xFFFFFFFF AND JUMP JUMPDEST POP PUSH2 0x647 JUMP JUMPDEST PUSH1 0x0 PUSH2 0x4B0 PUSH1 0x1 PUSH2 0x903 JUMP JUMPDEST SWAP2 POP POP PUSH2 0x4C7 DUP5 PUSH1 0x1 PUSH2 0x97C SWAP1 SWAP2 SWAP1 PUSH4 0xFFFFFFFF AND JUMP JUMPDEST ISZERO PUSH2 0x54E JUMPI PUSH2 0x4E2 DUP5 DUP5 PUSH1 0x1 PUSH2 0x9CB SWAP1 SWAP3 SWAP2 SWAP1 PUSH4 0xFFFFFFFF AND JUMP JUMPDEST PUSH1 0x0 DUP4 EQ ISZERO PUSH2 0x549 JUMPI PUSH2 0x4F5 PUSH1 0x1 PUSH2 0xBA5 JUMP JUMPDEST POP POP DUP4 PUSH20 0xFFFFFFFFFFFFFFFFFFFFFFFFFFFFFFFFFFFFFFFF AND PUSH32 0x61072AF1539E7159A567565AB0A7863C5AD61AA8DAA91CF3843C3BB8BCCB00E7 PUSH1 0x0 DUP5 PUSH1 0x40 MLOAD PUSH2 0x540 SWAP3 SWAP2 SWAP1 PUSH2 0x14E4 JUMP JUMPDEST PUSH1 0x40 MLOAD DUP1 SWAP2 SUB SWAP1 LOG2 JUMPDEST PUSH2 0x644 JUMP JUMPDEST PUSH1 0x0 DUP4 EQ ISZERO DUP1 ISZERO PUSH2 0x56A JUMPI POP PUSH2 0x200 DUP3 LT DUP1 PUSH2 0x569 JUMPI POP DUP3 DUP2 LT JUMPDEST JUMPDEST ISZERO PUSH2 0x643 JUMPI PUSH2 0x200 DUP3 LT PUSH2 0x5DC JUMPI PUSH1 0x0 DUP1 PUSH2 0x585 PUSH1 0x1 PUSH2 0xBA5 JUMP JUMPDEST SWAP2 POP SWAP2 POP DUP2 PUSH20 0xFFFFFFFFFFFFFFFFFFFFFFFFFFFFFFFFFFFFFFFF AND PUSH32 0x61072AF1539E7159A567565AB0A7863C5AD61AA8DAA91CF3843C3BB8BCCB00E7 DUP3 DUP7 PUSH1 0x40 MLOAD PUSH2 0x5D1 SWAP3 SWAP2 SWAP1 PUSH2 0x15F1 JUMP JUMPDEST PUSH1 0x40 MLOAD DUP1 SWAP2 SUB SWAP1 LOG2 POP POP JUMPDEST PUSH2 0x5F2 DUP5 DUP5 PUSH1 0x1 PUSH2 0x7CA SWAP1 SWAP3 SWAP2 SWAP1 PUSH4 0xFFFFFFFF AND JUMP JUMPDEST DUP4 PUSH20 0xFFFFFFFFFFFFFFFFFFFFFFFFFFFFFFFFFFFFFFFF AND PUSH32 0xB7C8EB45E695579273671351C1EE88509AF6EC27E061176B10F5F9FB145EFF93 DUP5 DUP5 PUSH1 0x40 MLOAD PUSH2 0x63A SWAP3 SWAP2 SWAP1 PUSH2 0x15F1 JUMP JUMPDEST PUSH1 0x40 MLOAD DUP1 SWAP2 SUB SWAP1 LOG2 JUMPDEST JUMPDEST POP POP JUMPDEST POP POP JUMP JUMPDEST PUSH1 0x0 DUP1 PUSH2 0x662 DUP4 PUSH1 0x1 PUSH2 0x744 SWAP1 SWAP2 SWAP1 PUSH4 0xFFFFFFFF AND JUMP JUMPDEST SWAP2 POP SWAP2 POP SWAP2 POP SWAP2 JUMP JUMPDEST PUSH1 0x0 PUSH1 0x1 DUP1 ADD PUSH1 0x0 DUP4 PUSH20 0xFFFFFFFFFFFFFFFFFFFFFFFFFFFFFFFFFFFFFFFF AND PUSH20 0xFFFFFFFFFFFFFFFFFFFFFFFFFFFFFFFFFFFFFFFF AND DUP2 MSTORE PUSH1 0x20 ADD SWAP1 DUP2 MSTORE PUSH1 0x20 ADD PUSH1 0x0 KECCAK256 SLOAD SWAP1 POP SWAP2 SWAP1 POP JUMP JUMPDEST PUSH1 0x0 DUP1 PUSH2 0x6C3 PUSH1 0x1 PUSH2 0x903 JUMP JUMPDEST SWAP2 POP SWAP2 POP SWAP1 SWAP2 JUMP JUMPDEST PUSH1 0x0 DUP2 PUSH1 0x0 ADD DUP1 SLOAD SWAP1 POP EQ PUSH2 0x715 JUMPI PUSH1 0x40 MLOAD PUSH32 0x8C379A000000000000000000000000000000000000000000000000000000000 DUP2 MSTORE PUSH1 0x4 ADD PUSH2 0x70C SWAP1 PUSH2 0x152D JUMP JUMPDEST PUSH1 0x40 MLOAD DUP1 SWAP2 SUB SWAP1 REVERT JUMPDEST DUP1 PUSH1 0x0 ADD PUSH1 0x0 SWAP1 DUP1 PUSH1 0x1 DUP2 SLOAD ADD DUP1 DUP3 SSTORE DUP1 SWAP2 POP POP PUSH1 0x1 SWAP1 SUB SWAP1 PUSH1 0x0 MSTORE PUSH1 0x20 PUSH1 0x0 KECCAK256 ADD PUSH1 0x0 SWAP1 SWAP2 SWAP1 SWAP2 SWAP1 SWAP2 POP SSTORE POP JUMP JUMPDEST PUSH1 0x0 DUP1 PUSH2 0x7A2 DUP5 PUSH1 0x0 ADD PUSH1 0x1 DUP6 PUSH2 0x75B SWAP2 SWAP1 PUSH2 0x162B JUMP JUMPDEST DUP2 SLOAD DUP2 LT PUSH2 0x792 JUMPI PUSH32 0x4E487B7100000000000000000000000000000000000000000000000000000000 PUSH1 0x0 MSTORE PUSH1 0x32 PUSH1 0x4 MSTORE PUSH1 0x24 PUSH1 0x0 REVERT JUMPDEST SWAP1 PUSH1 0x0 MSTORE PUSH1 0x20 PUSH1 0x0 KECCAK256 ADD SLOAD PUSH2 0xE5B JUMP JUMPDEST SWAP2 POP SWAP2 POP SWAP3 POP SWAP3 SWAP1 POP JUMP JUMPDEST PUSH1 0x0 PUSH1 0x1 DUP3 PUSH1 0x0 ADD DUP1 SLOAD SWAP1 POP PUSH2 0x7C3 SWAP2 SWAP1 PUSH2 0x170C JUMP JUMPDEST SWAP1 POP SWAP2 SWAP1 POP JUMP JUMPDEST PUSH1 0x0 DUP4 PUSH1 0x1 ADD PUSH1 0x0 DUP5 PUSH20 0xFFFFFFFFFFFFFFFFFFFFFFFFFFFFFFFFFFFFFFFF AND PUSH20 0xFFFFFFFFFFFFFFFFFFFFFFFFFFFFFFFFFFFFFFFF AND DUP2 MSTORE PUSH1 0x20 ADD SWAP1 DUP2 MSTORE PUSH1 0x20 ADD PUSH1 0x0 KECCAK256 SLOAD EQ PUSH2 0x84E JUMPI PUSH1 0x40 MLOAD PUSH32 0x8C379A000000000000000000000000000000000000000000000000000000000 DUP2 MSTORE PUSH1 0x4 ADD PUSH2 0x845 SWAP1 PUSH2 0x150D JUMP JUMPDEST PUSH1 0x40 MLOAD DUP1 SWAP2 SUB SWAP1 REVERT JUMPDEST PUSH1 0x0 PUSH2 0x85A DUP4 DUP4 PUSH2 0xE85 JUMP JUMPDEST SWAP1 POP DUP4 PUSH1 0x0 ADD DUP2 SWAP1 DUP1 PUSH1 0x1 DUP2 SLOAD ADD DUP1 DUP3 SSTORE DUP1 SWAP2 POP POP PUSH1 0x1 SWAP1 SUB SWAP1 PUSH1 0x0 MSTORE PUSH1 0x20 PUSH1 0x0 KECCAK256 ADD PUSH1 0x0 SWAP1 SWAP2 SWAP1 SWAP2 SWAP1 SWAP2 POP SSTORE PUSH1 0x0 PUSH1 0x1 DUP6 PUSH1 0x0 ADD DUP1 SLOAD SWAP1 POP PUSH2 0x89D SWAP2 SWAP1 PUSH2 0x170C JUMP JUMPDEST SWAP1 POP PUSH2 0x8B4 DUP2 DUP4 DUP8 PUSH2 0xEAC SWAP1 SWAP3 SWAP2 SWAP1 PUSH4 0xFFFFFFFF AND JUMP JUMPDEST SWAP1 POP DUP1 DUP6 PUSH1 0x1 ADD PUSH1 0x0 DUP7 PUSH20 0xFFFFFFFFFFFFFFFFFFFFFFFFFFFFFFFFFFFFFFFF AND PUSH20 0xFFFFFFFFFFFFFFFFFFFFFFFFFFFFFFFFFFFFFFFF AND DUP2 MSTORE PUSH1 0x20 ADD SWAP1 DUP2 MSTORE PUSH1 0x20 ADD PUSH1 0x0 KECCAK256 DUP2 SWAP1 SSTORE POP POP POP POP POP POP JUMP JUMPDEST PUSH1 0x0 DUP1 PUSH1 0x2 DUP4 PUSH1 0x0 ADD DUP1 SLOAD SWAP1 POP LT ISZERO PUSH2 0x922 JUMPI PUSH1 0x0 DUP1 SWAP2 POP SWAP2 POP PUSH2 0x977 JUMP JUMPDEST PUSH2 0x972 DUP4 PUSH1 0x0 ADD PUSH1 0x1 DUP2 SLOAD DUP2 LT PUSH2 0x962 JUMPI PUSH32 0x4E487B7100000000000000000000000000000000000000000000000000000000 PUSH1 0x0 MSTORE PUSH1 0x32 PUSH1 0x4 MSTORE PUSH1 0x24 PUSH1 0x0 REVERT JUMPDEST SWAP1 PUSH1 0x0 MSTORE PUSH1 0x20 PUSH1 0x0 KECCAK256 ADD SLOAD PUSH2 0xE5B JUMP JUMPDEST SWAP2 POP SWAP2 POP JUMPDEST SWAP2 POP SWAP2 JUMP JUMPDEST PUSH1 0x0 DUP1 DUP4 PUSH1 0x1 ADD PUSH1 0x0 DUP5 PUSH20 0xFFFFFFFFFFFFFFFFFFFFFFFFFFFFFFFFFFFFFFFF AND PUSH20 0xFFFFFFFFFFFFFFFFFFFFFFFFFFFFFFFFFFFFFFFF AND DUP2 MSTORE PUSH1 0x20 ADD SWAP1 DUP2 MSTORE PUSH1 0x20 ADD PUSH1 0x0 KECCAK256 SLOAD EQ ISZERO SWAP1 POP SWAP3 SWAP2 POP POP JUMP JUMPDEST PUSH1 0x0 DUP4 PUSH1 0x1 ADD PUSH1 0x0 DUP5 PUSH20 0xFFFFFFFFFFFFFFFFFFFFFFFFFFFFFFFFFFFFFFFF AND PUSH20 0xFFFFFFFFFFFFFFFFFFFFFFFFFFFFFFFFFFFFFFFF AND DUP2 MSTORE PUSH1 0x20 ADD SWAP1 DUP2 MSTORE PUSH1 0x20 ADD PUSH1 0x0 KECCAK256 SLOAD SWAP1 POP PUSH1 0x0 DUP2 EQ ISZERO PUSH2 0xA55 JUMPI PUSH1 0x40 MLOAD PUSH32 0x8C379A000000000000000000000000000000000000000000000000000000000 DUP2 MSTORE PUSH1 0x4 ADD PUSH2 0xA4C SWAP1 PUSH2 0x158D JUMP JUMPDEST PUSH1 0x40 MLOAD DUP1 SWAP2 SUB SWAP1 REVERT JUMPDEST PUSH1 0x0 PUSH2 0xA61 DUP5 DUP5 PUSH2 0xE85 JUMP JUMPDEST SWAP1 POP PUSH1 0x0 DUP6 PUSH1 0x0 ADD DUP4 DUP2 SLOAD DUP2 LT PUSH2 0xAA1 JUMPI PUSH32 0x4E487B7100000000000000000000000000000000000000000000000000000000 PUSH1 0x0 MSTORE PUSH1 0x32 PUSH1 0x4 MSTORE PUSH1 0x24 PUSH1 0x0 REVERT JUMPDEST SWAP1 PUSH1 0x0 MSTORE PUSH1 0x20 PUSH1 0x0 KECCAK256 ADD SLOAD SWAP1 POP PUSH1 0x0 DUP2 DUP4 LT ISZERO PUSH2 0xAD4 JUMPI PUSH2 0xACD DUP5 DUP5 DUP10 PUSH2 0x1091 SWAP1 SWAP3 SWAP2 SWAP1 PUSH4 0xFFFFFFFF AND JUMP JUMPDEST SWAP1 POP PUSH2 0xB02 JUMP JUMPDEST DUP2 DUP4 GT ISZERO PUSH2 0xAF8 JUMPI PUSH2 0xAF1 DUP5 DUP5 DUP10 PUSH2 0xEAC SWAP1 SWAP3 SWAP2 SWAP1 PUSH4 0xFFFFFFFF AND JUMP JUMPDEST SWAP1 POP PUSH2 0xB01 JUMP JUMPDEST POP POP POP POP PUSH2 0xBA0 JUMP JUMPDEST JUMPDEST DUP3 DUP8 PUSH1 0x0 ADD DUP3 DUP2 SLOAD DUP2 LT PUSH2 0xB3F JUMPI PUSH32 0x4E487B7100000000000000000000000000000000000000000000000000000000 PUSH1 0x0 MSTORE PUSH1 0x32 PUSH1 0x4 MSTORE PUSH1 0x24 PUSH1 0x0 REVERT JUMPDEST SWAP1 PUSH1 0x0 MSTORE PUSH1 0x20 PUSH1 0x0 KECCAK256 ADD DUP2 SWAP1 SSTORE POP DUP4 DUP2 EQ PUSH2 0xB9B JUMPI DUP1 DUP8 PUSH1 0x1 ADD PUSH1 0x0 DUP9 PUSH20 0xFFFFFFFFFFFFFFFFFFFFFFFFFFFFFFFFFFFFFFFF AND PUSH20 0xFFFFFFFFFFFFFFFFFFFFFFFFFFFFFFFFFFFFFFFF AND DUP2 MSTORE PUSH1 0x20 ADD SWAP1 DUP2 MSTORE PUSH1 0x20 ADD PUSH1 0x0 KECCAK256 DUP2 SWAP1 SSTORE POP JUMPDEST POP POP POP POP JUMPDEST POP POP POP JUMP JUMPDEST PUSH1 0x0 DUP1 PUSH1 0x0 DUP4 PUSH1 0x0 ADD DUP1 SLOAD SWAP1 POP SWAP1 POP PUSH1 0x1 DUP2 GT PUSH2 0xBF7 JUMPI PUSH1 0x40 MLOAD PUSH32 0x8C379A000000000000000000000000000000000000000000000000000000000 DUP2 MSTORE PUSH1 0x4 ADD PUSH2 0xBEE SWAP1 PUSH2 0x154D JUMP JUMPDEST PUSH1 0x40 MLOAD DUP1 SWAP2 SUB SWAP1 REVERT JUMPDEST PUSH2 0xC47 DUP5 PUSH1 0x0 ADD PUSH1 0x1 DUP2 SLOAD DUP2 LT PUSH2 0xC37 JUMPI PUSH32 0x4E487B7100000000000000000000000000000000000000000000000000000000 PUSH1 0x0 MSTORE PUSH1 0x32 PUSH1 0x4 MSTORE PUSH1 0x24 PUSH1 0x0 REVERT JUMPDEST SWAP1 PUSH1 0x0 MSTORE PUSH1 0x20 PUSH1 0x0 KECCAK256 ADD SLOAD PUSH2 0xE5B JUMP JUMPDEST DUP1 SWAP4 POP DUP2 SWAP5 POP POP POP PUSH1 0x0 DUP5 PUSH1 0x1 ADD PUSH1 0x0 DUP6 PUSH20 0xFFFFFFFFFFFFFFFFFFFFFFFFFFFFFFFFFFFFFFFF AND PUSH20 0xFFFFFFFFFFFFFFFFFFFFFFFFFFFFFFFFFFFFFFFF AND DUP2 MSTORE PUSH1 0x20 ADD SWAP1 DUP2 MSTORE PUSH1 0x20 ADD PUSH1 0x0 KECCAK256 DUP2 SWAP1 SSTORE POP PUSH1 0x2 DUP2 EQ ISZERO PUSH2 0xCF4 JUMPI DUP4 PUSH1 0x0 ADD DUP1 SLOAD DUP1 PUSH2 0xCD9 JUMPI PUSH32 0x4E487B7100000000000000000000000000000000000000000000000000000000 PUSH1 0x0 MSTORE PUSH1 0x31 PUSH1 0x4 MSTORE PUSH1 0x24 PUSH1 0x0 REVERT JUMPDEST PUSH1 0x1 SWAP1 SUB DUP2 DUP2 SWAP1 PUSH1 0x0 MSTORE PUSH1 0x20 PUSH1 0x0 KECCAK256 ADD PUSH1 0x0 SWAP1 SSTORE SWAP1 SSTORE PUSH2 0xE55 JUMP JUMPDEST PUSH1 0x0 DUP5 PUSH1 0x0 ADD PUSH1 0x1 DUP4 PUSH2 0xD07 SWAP2 SWAP1 PUSH2 0x170C JUMP JUMPDEST DUP2 SLOAD DUP2 LT PUSH2 0xD3E JUMPI PUSH32 0x4E487B7100000000000000000000000000000000000000000000000000000000 PUSH1 0x0 MSTORE PUSH1 0x32 PUSH1 0x4 MSTORE PUSH1 0x24 PUSH1 0x0 REVERT JUMPDEST SWAP1 PUSH1 0x0 MSTORE PUSH1 0x20 PUSH1 0x0 KECCAK256 ADD SLOAD SWAP1 POP DUP1 DUP6 PUSH1 0x0 ADD PUSH1 0x1 DUP2 SLOAD DUP2 LT PUSH2 0xD89 JUMPI PUSH32 0x4E487B7100000000000000000000000000000000000000000000000000000000 PUSH1 0x0 MSTORE PUSH1 0x32 PUSH1 0x4 MSTORE PUSH1 0x24 PUSH1 0x0 REVERT JUMPDEST SWAP1 PUSH1 0x0 MSTORE PUSH1 0x20 PUSH1 0x0 KECCAK256 ADD DUP2 SWAP1 SSTORE POP DUP5 PUSH1 0x0 ADD DUP1 SLOAD DUP1 PUSH2 0xDD1 JUMPI PUSH32 0x4E487B7100000000000000000000000000000000000000000000000000000000 PUSH1 0x0 MSTORE PUSH1 0x31 PUSH1 0x4 MSTORE PUSH1 0x24 PUSH1 0x0 REVERT JUMPDEST PUSH1 0x1 SWAP1 SUB DUP2 DUP2 SWAP1 PUSH1 0x0 MSTORE PUSH1 0x20 PUSH1 0x0 KECCAK256 ADD PUSH1 0x0 SWAP1 SSTORE SWAP1 SSTORE PUSH1 0x0 PUSH1 0x1 SWAP1 POP PUSH2 0xE02 DUP2 DUP4 DUP9 PUSH2 0x1091 SWAP1 SWAP3 SWAP2 SWAP1 PUSH4 0xFFFFFFFF AND JUMP JUMPDEST SWAP1 POP DUP1 DUP7 PUSH1 0x1 ADD PUSH1 0x0 PUSH2 0xE14 DUP6 PUSH2 0x12C2 JUMP JUMPDEST PUSH20 0xFFFFFFFFFFFFFFFFFFFFFFFFFFFFFFFFFFFFFFFF AND PUSH20 0xFFFFFFFFFFFFFFFFFFFFFFFFFFFFFFFFFFFFFFFF AND DUP2 MSTORE PUSH1 0x20 ADD SWAP1 DUP2 MSTORE PUSH1 0x20 ADD PUSH1 0x0 KECCAK256 DUP2 SWAP1 SSTORE POP POP POP JUMPDEST POP SWAP2 POP SWAP2 JUMP JUMPDEST PUSH1 0x0 DUP1 DUP3 NOT PUSH20 0xFFFFFFFFFFFFFFFFFFFFFFFFFFFFFFFFFFFFFFFF DUP2 AND SWAP3 POP DUP1 PUSH1 0xA0 SHR SWAP2 POP POP SWAP2 POP SWAP2 JUMP JUMPDEST PUSH1 0x0 DUP2 PUSH1 0xA0 SHL DUP4 PUSH20 0xFFFFFFFFFFFFFFFFFFFFFFFFFFFFFFFFFFFFFFFF AND OR NOT SWAP1 POP SWAP3 SWAP2 POP POP JUMP JUMPDEST PUSH1 0x0 DUP3 SWAP1 POP PUSH1 0x1 DUP2 EQ PUSH2 0x108A JUMPI PUSH1 0x0 DUP5 PUSH1 0x0 ADD PUSH1 0x2 DUP4 PUSH2 0xECC SWAP2 SWAP1 PUSH2 0x1681 JUMP JUMPDEST DUP2 SLOAD DUP2 LT PUSH2 0xF03 JUMPI PUSH32 0x4E487B7100000000000000000000000000000000000000000000000000000000 PUSH1 0x0 MSTORE PUSH1 0x32 PUSH1 0x4 MSTORE PUSH1 0x24 PUSH1 0x0 REVERT JUMPDEST SWAP1 PUSH1 0x0 MSTORE PUSH1 0x20 PUSH1 0x0 KECCAK256 ADD SLOAD SWAP1 POP JUMPDEST DUP3 DUP2 LT ISZERO PUSH2 0x1088 JUMPI DUP3 DUP2 DUP7 PUSH1 0x0 ADD PUSH1 0x2 DUP6 PUSH2 0xF2C SWAP2 SWAP1 PUSH2 0x1681 JUMP JUMPDEST DUP2 SLOAD DUP2 LT PUSH2 0xF63 JUMPI PUSH32 0x4E487B7100000000000000000000000000000000000000000000000000000000 PUSH1 0x0 MSTORE PUSH1 0x32 PUSH1 0x4 MSTORE PUSH1 0x24 PUSH1 0x0 REVERT JUMPDEST SWAP1 PUSH1 0x0 MSTORE PUSH1 0x20 PUSH1 0x0 KECCAK256 ADD PUSH1 0x0 DUP9 PUSH1 0x0 ADD DUP7 DUP2 SLOAD DUP2 LT PUSH2 0xFAB JUMPI PUSH32 0x4E487B7100000000000000000000000000000000000000000000000000000000 PUSH1 0x0 MSTORE PUSH1 0x32 PUSH1 0x4 MSTORE PUSH1 0x24 PUSH1 0x0 REVERT JUMPDEST SWAP1 PUSH1 0x0 MSTORE PUSH1 0x20 PUSH1 0x0 KECCAK256 ADD PUSH1 0x0 DUP5 SWAP2 SWAP1 POP SSTORE DUP4 SWAP2 SWAP1 POP SSTORE POP POP DUP2 DUP6 PUSH1 0x1 ADD PUSH1 0x0 PUSH2 0xFD3 DUP5 PUSH2 0x12C2 JUMP JUMPDEST PUSH20 0xFFFFFFFFFFFFFFFFFFFFFFFFFFFFFFFFFFFFFFFF AND PUSH20 0xFFFFFFFFFFFFFFFFFFFFFFFFFFFFFFFFFFFFFFFF AND DUP2 MSTORE PUSH1 0x20 ADD SWAP1 DUP2 MSTORE PUSH1 0x20 ADD PUSH1 0x0 KECCAK256 DUP2 SWAP1 SSTORE POP PUSH1 0x2 DUP3 PUSH2 0x101E SWAP2 SWAP1 PUSH2 0x1681 JUMP JUMPDEST SWAP2 POP PUSH1 0x1 DUP3 EQ ISZERO PUSH2 0x102E JUMPI PUSH2 0x1088 JUMP JUMPDEST DUP5 PUSH1 0x0 ADD PUSH1 0x2 DUP4 PUSH2 0x103F SWAP2 SWAP1 PUSH2 0x1681 JUMP JUMPDEST DUP2 SLOAD DUP2 LT PUSH2 0x1076 JUMPI PUSH32 0x4E487B7100000000000000000000000000000000000000000000000000000000 PUSH1 0x0 MSTORE PUSH1 0x32 PUSH1 0x4 MSTORE PUSH1 0x24 PUSH1 0x0 REVERT JUMPDEST SWAP1 PUSH1 0x0 MSTORE PUSH1 0x20 PUSH1 0x0 KECCAK256 ADD SLOAD SWAP1 POP PUSH2 0xF11 JUMP JUMPDEST POP JUMPDEST SWAP4 SWAP3 POP POP POP JUMP JUMPDEST PUSH1 0x0 DUP3 SWAP1 POP PUSH1 0x0 DUP5 PUSH1 0x0 ADD DUP1 SLOAD SWAP1 POP SWAP1 POP PUSH1 0x0 PUSH1 0x1 DUP3 PUSH2 0x10B1 SWAP2 SWAP1 PUSH2 0x170C JUMP JUMPDEST SWAP1 POP JUMPDEST DUP2 PUSH1 0x2 DUP5 PUSH2 0x10C2 SWAP2 SWAP1 PUSH2 0x16B2 JUMP JUMPDEST LT ISZERO PUSH2 0x12B9 JUMPI PUSH1 0x0 PUSH1 0x2 DUP5 PUSH2 0x10D7 SWAP2 SWAP1 PUSH2 0x16B2 JUMP JUMPDEST SWAP1 POP PUSH1 0x0 DUP8 PUSH1 0x0 ADD DUP3 DUP2 SLOAD DUP2 LT PUSH2 0x1117 JUMPI PUSH32 0x4E487B7100000000000000000000000000000000000000000000000000000000 PUSH1 0x0 MSTORE PUSH1 0x32 PUSH1 0x4 MSTORE PUSH1 0x24 PUSH1 0x0 REVERT JUMPDEST SWAP1 PUSH1 0x0 MSTORE PUSH1 0x20 PUSH1 0x0 KECCAK256 ADD SLOAD SWAP1 POP PUSH1 0x0 DUP3 DUP5 GT ISZERO PUSH2 0x11AE JUMPI PUSH1 0x0 DUP10 PUSH1 0x0 ADD PUSH1 0x1 DUP6 PUSH2 0x1141 SWAP2 SWAP1 PUSH2 0x162B JUMP JUMPDEST DUP2 SLOAD DUP2 LT PUSH2 0x1178 JUMPI PUSH32 0x4E487B7100000000000000000000000000000000000000000000000000000000 PUSH1 0x0 MSTORE PUSH1 0x32 PUSH1 0x4 MSTORE PUSH1 0x24 PUSH1 0x0 REVERT JUMPDEST SWAP1 PUSH1 0x0 MSTORE PUSH1 0x20 PUSH1 0x0 KECCAK256 ADD SLOAD SWAP1 POP DUP1 DUP4 LT ISZERO PUSH2 0x11A4 JUMPI DUP1 SWAP2 POP PUSH1 0x1 DUP5 PUSH2 0x119D SWAP2 SWAP1 PUSH2 0x162B JUMP JUMPDEST SWAP4 POP PUSH2 0x11A8 JUMP JUMPDEST DUP3 SWAP2 POP JUMPDEST POP PUSH2 0x11B2 JUMP JUMPDEST DUP2 SWAP1 POP JUMPDEST DUP1 DUP8 GT ISZERO PUSH2 0x11C2 JUMPI POP POP POP PUSH2 0x12B9 JUMP JUMPDEST DUP1 DUP8 DUP11 PUSH1 0x0 ADD DUP9 DUP2 SLOAD DUP2 LT PUSH2 0x1200 JUMPI PUSH32 0x4E487B7100000000000000000000000000000000000000000000000000000000 PUSH1 0x0 MSTORE PUSH1 0x32 PUSH1 0x4 MSTORE PUSH1 0x24 PUSH1 0x0 REVERT JUMPDEST SWAP1 PUSH1 0x0 MSTORE PUSH1 0x20 PUSH1 0x0 KECCAK256 ADD PUSH1 0x0 DUP13 PUSH1 0x0 ADD DUP8 DUP2 SLOAD DUP2 LT PUSH2 0x1248 JUMPI PUSH32 0x4E487B7100000000000000000000000000000000000000000000000000000000 PUSH1 0x0 MSTORE PUSH1 0x32 PUSH1 0x4 MSTORE PUSH1 0x24 PUSH1 0x0 REVERT JUMPDEST SWAP1 PUSH1 0x0 MSTORE PUSH1 0x20 PUSH1 0x0 KECCAK256 ADD PUSH1 0x0 DUP5 SWAP2 SWAP1 POP SSTORE DUP4 SWAP2 SWAP1 POP SSTORE POP POP DUP6 DUP10 PUSH1 0x1 ADD PUSH1 0x0 PUSH2 0x1270 DUP5 PUSH2 0x12C2 JUMP JUMPDEST PUSH20 0xFFFFFFFFFFFFFFFFFFFFFFFFFFFFFFFFFFFFFFFF AND PUSH20 0xFFFFFFFFFFFFFFFFFFFFFFFFFFFFFFFFFFFFFFFF AND DUP2 MSTORE PUSH1 0x20 ADD SWAP1 DUP2 MSTORE PUSH1 0x20 ADD PUSH1 0x0 KECCAK256 DUP2 SWAP1 SSTORE POP DUP3 SWAP6 POP POP POP POP PUSH2 0x10B4 JUMP JUMPDEST POP POP SWAP4 SWAP3 POP POP POP JUMP JUMPDEST PUSH1 0x0 PUSH20 0xFFFFFFFFFFFFFFFFFFFFFFFFFFFFFFFFFFFFFFFF DUP3 NOT AND SWAP1 POP SWAP2 SWAP1 POP JUMP JUMPDEST PUSH1 0x0 DUP2 CALLDATALOAD SWAP1 POP PUSH2 0x12F2 DUP2 PUSH2 0x18B9 JUMP JUMPDEST SWAP3 SWAP2 POP POP JUMP JUMPDEST PUSH1 0x0 DUP2 CALLDATALOAD SWAP1 POP PUSH2 0x1307 DUP2 PUSH2 0x18D0 JUMP JUMPDEST SWAP3 SWAP2 POP POP JUMP JUMPDEST PUSH1 0x0 PUSH1 0x20 DUP3 DUP5 SUB SLT ISZERO PUSH2 0x131F JUMPI PUSH1 0x0 DUP1 REVERT JUMPDEST PUSH1 0x0 PUSH2 0x132D DUP5 DUP3 DUP6 ADD PUSH2 0x12E3 JUMP JUMPDEST SWAP2 POP POP SWAP3 SWAP2 POP POP JUMP JUMPDEST PUSH1 0x0 DUP1 PUSH1 0x40 DUP4 DUP6 SUB SLT ISZERO PUSH2 0x1349 JUMPI PUSH1 0x0 DUP1 REVERT JUMPDEST PUSH1 0x0 PUSH2 0x1357 DUP6 DUP3 DUP7 ADD PUSH2 0x12E3 JUMP JUMPDEST SWAP3 POP POP PUSH1 0x20 PUSH2 0x1368 DUP6 DUP3 DUP7 ADD PUSH2 0x12F8 JUMP JUMPDEST SWAP2 POP POP SWAP3 POP SWAP3 SWAP1 POP JUMP JUMPDEST PUSH1 0x0 PUSH1 0x20 DUP3 DUP5 SUB SLT ISZERO PUSH2 0x1384 JUMPI PUSH1 0x0 DUP1 REVERT JUMPDEST PUSH1 0x0 PUSH2 0x1392 DUP5 DUP3 DUP6 ADD PUSH2 0x12F8 JUMP JUMPDEST SWAP2 POP POP SWAP3 SWAP2 POP POP JUMP JUMPDEST PUSH2 0x13A4 DUP2 PUSH2 0x1740 JUMP JUMPDEST DUP3 MSTORE POP POP JUMP JUMPDEST PUSH2 0x13B3 DUP2 PUSH2 0x177C JUMP JUMPDEST DUP3 MSTORE POP POP JUMP JUMPDEST PUSH1 0x0 PUSH2 0x13C6 PUSH1 0x18 DUP4 PUSH2 0x161A JUMP JUMPDEST SWAP2 POP PUSH2 0x13D1 DUP3 PUSH2 0x17EC JUMP JUMPDEST PUSH1 0x20 DUP3 ADD SWAP1 POP SWAP2 SWAP1 POP JUMP JUMPDEST PUSH1 0x0 PUSH2 0x13E9 PUSH1 0x13 DUP4 PUSH2 0x161A JUMP JUMPDEST SWAP2 POP PUSH2 0x13F4 DUP3 PUSH2 0x1815 JUMP JUMPDEST PUSH1 0x20 DUP3 ADD SWAP1 POP SWAP2 SWAP1 POP JUMP JUMPDEST PUSH1 0x0 PUSH2 0x140C PUSH1 0x18 DUP4 PUSH2 0x161A JUMP JUMPDEST SWAP2 POP PUSH2 0x1417 DUP3 PUSH2 0x183E JUMP JUMPDEST PUSH1 0x20 DUP3 ADD SWAP1 POP SWAP2 SWAP1 POP JUMP JUMPDEST PUSH1 0x0 PUSH2 0x142F PUSH1 0xA DUP4 PUSH2 0x161A JUMP JUMPDEST SWAP2 POP PUSH2 0x143A DUP3 PUSH2 0x1867 JUMP JUMPDEST PUSH1 0x20 DUP3 ADD SWAP1 POP SWAP2 SWAP1 POP JUMP JUMPDEST PUSH1 0x0 PUSH2 0x1452 PUSH1 0x19 DUP4 PUSH2 0x161A JUMP JUMPDEST SWAP2 POP PUSH2 0x145D DUP3 PUSH2 0x1890 JUMP JUMPDEST PUSH1 0x20 DUP3 ADD SWAP1 POP SWAP2 SWAP1 POP JUMP JUMPDEST PUSH2 0x1471 DUP2 PUSH2 0x1772 JUMP JUMPDEST DUP3 MSTORE POP POP JUMP JUMPDEST PUSH1 0x0 PUSH1 0x20 DUP3 ADD SWAP1 POP PUSH2 0x148C PUSH1 0x0 DUP4 ADD DUP5 PUSH2 0x139B JUMP JUMPDEST SWAP3 SWAP2 POP POP JUMP JUMPDEST PUSH1 0x0 PUSH1 0x40 DUP3 ADD SWAP1 POP PUSH2 0x14A7 PUSH1 0x0 DUP4 ADD DUP6 PUSH2 0x139B JUMP JUMPDEST PUSH2 0x14B4 PUSH1 0x20 DUP4 ADD DUP5 PUSH2 0x139B JUMP JUMPDEST SWAP4 SWAP3 POP POP POP JUMP JUMPDEST PUSH1 0x0 PUSH1 0x40 DUP3 ADD SWAP1 POP PUSH2 0x14D0 PUSH1 0x0 DUP4 ADD DUP6 PUSH2 0x139B JUMP JUMPDEST PUSH2 0x14DD PUSH1 0x20 DUP4 ADD DUP5 PUSH2 0x1468 JUMP JUMPDEST SWAP4 SWAP3 POP POP POP JUMP JUMPDEST PUSH1 0x0 PUSH1 0x40 DUP3 ADD SWAP1 POP PUSH2 0x14F9 PUSH1 0x0 DUP4 ADD DUP6 PUSH2 0x13AA JUMP JUMPDEST PUSH2 0x1506 PUSH1 0x20 DUP4 ADD DUP5 PUSH2 0x1468 JUMP JUMPDEST SWAP4 SWAP3 POP POP POP JUMP JUMPDEST PUSH1 0x0 PUSH1 0x20 DUP3 ADD SWAP1 POP DUP2 DUP2 SUB PUSH1 0x0 DUP4 ADD MSTORE PUSH2 0x1526 DUP2 PUSH2 0x13B9 JUMP JUMPDEST SWAP1 POP SWAP2 SWAP1 POP JUMP JUMPDEST PUSH1 0x0 PUSH1 0x20 DUP3 ADD SWAP1 POP DUP2 DUP2 SUB PUSH1 0x0 DUP4 ADD MSTORE PUSH2 0x1546 DUP2 PUSH2 0x13DC JUMP JUMPDEST SWAP1 POP SWAP2 SWAP1 POP JUMP JUMPDEST PUSH1 0x0 PUSH1 0x20 DUP3 ADD SWAP1 POP DUP2 DUP2 SUB PUSH1 0x0 DUP4 ADD MSTORE PUSH2 0x1566 DUP2 PUSH2 0x13FF JUMP JUMPDEST SWAP1 POP SWAP2 SWAP1 POP JUMP JUMPDEST PUSH1 0x0 PUSH1 0x20 DUP3 ADD SWAP1 POP DUP2 DUP2 SUB PUSH1 0x0 DUP4 ADD MSTORE PUSH2 0x1586 DUP2 PUSH2 0x1422 JUMP JUMPDEST SWAP1 POP SWAP2 SWAP1 POP JUMP JUMPDEST PUSH1 0x0 PUSH1 0x20 DUP3 ADD SWAP1 POP DUP2 DUP2 SUB PUSH1 0x0 DUP4 ADD MSTORE PUSH2 0x15A6 DUP2 PUSH2 0x1445 JUMP JUMPDEST SWAP1 POP SWAP2 SWAP1 POP JUMP JUMPDEST PUSH1 0x0 PUSH1 0x20 DUP3 ADD SWAP1 POP PUSH2 0x15C2 PUSH1 0x0 DUP4 ADD DUP5 PUSH2 0x1468 JUMP JUMPDEST SWAP3 SWAP2 POP POP JUMP JUMPDEST PUSH1 0x0 PUSH1 0x40 DUP3 ADD SWAP1 POP PUSH2 0x15DD PUSH1 0x0 DUP4 ADD DUP6 PUSH2 0x1468 JUMP JUMPDEST PUSH2 0x15EA PUSH1 0x20 DUP4 ADD DUP5 PUSH2 0x13AA JUMP JUMPDEST SWAP4 SWAP3 POP POP POP JUMP JUMPDEST PUSH1 0x0 PUSH1 0x40 DUP3 ADD SWAP1 POP PUSH2 0x1606 PUSH1 0x0 DUP4 ADD DUP6 PUSH2 0x1468 JUMP JUMPDEST PUSH2 0x1613 PUSH1 0x20 DUP4 ADD DUP5 PUSH2 0x1468 JUMP JUMPDEST SWAP4 SWAP3 POP POP POP JUMP JUMPDEST PUSH1 0x0 DUP3 DUP3 MSTORE PUSH1 0x20 DUP3 ADD SWAP1 POP SWAP3 SWAP2 POP POP JUMP JUMPDEST PUSH1 0x0 PUSH2 0x1636 DUP3 PUSH2 0x1772 JUMP JUMPDEST SWAP2 POP PUSH2 0x1641 DUP4 PUSH2 0x1772 JUMP JUMPDEST SWAP3 POP DUP3 PUSH32 0xFFFFFFFFFFFFFFFFFFFFFFFFFFFFFFFFFFFFFFFFFFFFFFFFFFFFFFFFFFFFFFFF SUB DUP3 GT ISZERO PUSH2 0x1676 JUMPI PUSH2 0x1675 PUSH2 0x178E JUMP JUMPDEST JUMPDEST DUP3 DUP3 ADD SWAP1 POP SWAP3 SWAP2 POP POP JUMP JUMPDEST PUSH1 0x0 PUSH2 0x168C DUP3 PUSH2 0x1772 JUMP JUMPDEST SWAP2 POP PUSH2 0x1697 DUP4 PUSH2 0x1772 JUMP JUMPDEST SWAP3 POP DUP3 PUSH2 0x16A7 JUMPI PUSH2 0x16A6 PUSH2 0x17BD JUMP JUMPDEST JUMPDEST DUP3 DUP3 DIV SWAP1 POP SWAP3 SWAP2 POP POP JUMP JUMPDEST PUSH1 0x0 PUSH2 0x16BD DUP3 PUSH2 0x1772 JUMP JUMPDEST SWAP2 POP PUSH2 0x16C8 DUP4 PUSH2 0x1772 JUMP JUMPDEST SWAP3 POP DUP2 PUSH32 0xFFFFFFFFFFFFFFFFFFFFFFFFFFFFFFFFFFFFFFFFFFFFFFFFFFFFFFFFFFFFFFFF DIV DUP4 GT DUP3 ISZERO ISZERO AND ISZERO PUSH2 0x1701 JUMPI PUSH2 0x1700 PUSH2 0x178E JUMP JUMPDEST JUMPDEST DUP3 DUP3 MUL SWAP1 POP SWAP3 SWAP2 POP POP JUMP JUMPDEST PUSH1 0x0 PUSH2 0x1717 DUP3 PUSH2 0x1772 JUMP JUMPDEST SWAP2 POP PUSH2 0x1722 DUP4 PUSH2 0x1772 JUMP JUMPDEST SWAP3 POP DUP3 DUP3 LT ISZERO PUSH2 0x1735 JUMPI PUSH2 0x1734 PUSH2 0x178E JUMP JUMPDEST JUMPDEST DUP3 DUP3 SUB SWAP1 POP SWAP3 SWAP2 POP POP JUMP JUMPDEST PUSH1 0x0 PUSH2 0x174B DUP3 PUSH2 0x1752 JUMP JUMPDEST SWAP1 POP SWAP2 SWAP1 POP JUMP JUMPDEST PUSH1 0x0 PUSH20 0xFFFFFFFFFFFFFFFFFFFFFFFFFFFFFFFFFFFFFFFF DUP3 AND SWAP1 POP SWAP2 SWAP1 POP JUMP JUMPDEST PUSH1 0x0 DUP2 SWAP1 POP SWAP2 SWAP1 POP JUMP JUMPDEST PUSH1 0x0 PUSH2 0x1787 DUP3 PUSH2 0x1772 JUMP JUMPDEST SWAP1 POP SWAP2 SWAP1 POP JUMP JUMPDEST PUSH32 0x4E487B7100000000000000000000000000000000000000000000000000000000 PUSH1 0x0 MSTORE PUSH1 0x11 PUSH1 0x4 MSTORE PUSH1 0x24 PUSH1 0x0 REVERT JUMPDEST PUSH32 0x4E487B7100000000000000000000000000000000000000000000000000000000 PUSH1 0x0 MSTORE PUSH1 0x12 PUSH1 0x4 MSTORE PUSH1 0x24 PUSH1 0x0 REVERT JUMPDEST PUSH32 0x54686520656E74727920616C7265616479206578697374730000000000000000 PUSH1 0x0 DUP3 ADD MSTORE POP JUMP JUMPDEST PUSH32 0x616C726561647920696E697469616C697A656400000000000000000000000000 PUSH1 0x0 DUP3 ADD MSTORE POP JUMP JUMPDEST PUSH32 0x546865206865617020646F6573206E6F74206578697374730000000000000000 PUSH1 0x0 DUP3 ADD MSTORE POP JUMP JUMPDEST PUSH32 0x6F6E6C79206F776E657200000000000000000000000000000000000000000000 PUSH1 0x0 DUP3 ADD MSTORE POP JUMP JUMPDEST PUSH32 0x54686520656E74727920646F6573206E6F742065786973747300000000000000 PUSH1 0x0 DUP3 ADD MSTORE POP JUMP JUMPDEST PUSH2 0x18C2 DUP2 PUSH2 0x1740 JUMP JUMPDEST DUP2 EQ PUSH2 0x18CD JUMPI PUSH1 0x0 DUP1 REVERT JUMPDEST POP JUMP JUMPDEST PUSH2 0x18D9 DUP2 PUSH2 0x1772 JUMP JUMPDEST DUP2 EQ PUSH2 0x18E4 JUMPI PUSH1 0x0 DUP1 REVERT JUMPDEST POP JUMP INVALID LOG2 PUSH5 0x6970667358 0x22 SLT KECCAK256 0x49 SHR STOP 0xEC CALLDATALOAD GT 0xDB 0xB0 0x1E 0x2C DUP16 SWAP11 0xD SWAP8 SAR 0x49 SWAP3 GASPRICE 0x2C DUP10 CALL COINBASE 0xCD 0x21 0xC0 0xC7 0xAB 0xDC PUSH20 0xA4BD0464736F6C63430008020033608060405234 DUP1 ISZERO PUSH2 0x10 JUMPI PUSH1 0x0 DUP1 REVERT JUMPDEST POP CALLER PUSH1 0x0 DUP1 PUSH2 0x100 EXP DUP2 SLOAD DUP2 PUSH20 0xFFFFFFFFFFFFFFFFFFFFFFFFFFFFFFFFFFFFFFFF MUL NOT AND SWAP1 DUP4 PUSH20 0xFFFFFFFFFFFFFFFFFFFFFFFFFFFFFFFFFFFFFFFF AND MUL OR SWAP1 SSTORE POP PUSH2 0x213 DUP1 PUSH2 0x60 PUSH1 0x0 CODECOPY PUSH1 0x0 RETURN INVALID PUSH1 0x80 PUSH1 0x40 MSTORE CALLVALUE DUP1 ISZERO PUSH2 0x10 JUMPI PUSH1 0x0 DUP1 REVERT JUMPDEST POP PUSH1 0x4 CALLDATASIZE LT PUSH2 0x36 JUMPI PUSH1 0x0 CALLDATALOAD PUSH1 0xE0 SHR DUP1 PUSH4 0x61DA1439 EQ PUSH2 0x3B JUMPI DUP1 PUSH4 0xE2E52EC1 EQ PUSH2 0x6B JUMPI JUMPDEST PUSH1 0x0 DUP1 REVERT JUMPDEST PUSH2 0x55 PUSH1 0x4 DUP1 CALLDATASIZE SUB DUP2 ADD SWAP1 PUSH2 0x50 SWAP2 SWAP1 PUSH2 0x12D JUMP JUMPDEST PUSH2 0x87 JUMP JUMPDEST PUSH1 0x40 MLOAD PUSH2 0x62 SWAP2 SWAP1 PUSH2 0x1A1 JUMP JUMPDEST PUSH1 0x40 MLOAD DUP1 SWAP2 SUB SWAP1 RETURN JUMPDEST PUSH2 0x85 PUSH1 0x4 DUP1 CALLDATASIZE SUB DUP2 ADD SWAP1 PUSH2 0x80 SWAP2 SWAP1 PUSH2 0x156 JUMP JUMPDEST PUSH2 0xA4 JUMP JUMPDEST STOP JUMPDEST PUSH1 0x0 PUSH1 0x1 PUSH1 0x0 DUP4 DUP2 MSTORE PUSH1 0x20 ADD SWAP1 DUP2 MSTORE PUSH1 0x20 ADD PUSH1 0x0 KECCAK256 SLOAD SWAP1 POP SWAP2 SWAP1 POP JUMP JUMPDEST PUSH1 0x0 DUP1 SLOAD SWAP1 PUSH2 0x100 EXP SWAP1 DIV PUSH20 0xFFFFFFFFFFFFFFFFFFFFFFFFFFFFFFFFFFFFFFFF AND PUSH20 0xFFFFFFFFFFFFFFFFFFFFFFFFFFFFFFFFFFFFFFFF AND CALLER PUSH20 0xFFFFFFFFFFFFFFFFFFFFFFFFFFFFFFFFFFFFFFFF AND EQ PUSH2 0xFC JUMPI PUSH1 0x0 DUP1 REVERT JUMPDEST DUP1 PUSH1 0x1 PUSH1 0x0 DUP5 DUP2 MSTORE PUSH1 0x20 ADD SWAP1 DUP2 MSTORE PUSH1 0x20 ADD PUSH1 0x0 KECCAK256 DUP2 SWAP1 SSTORE POP POP POP JUMP JUMPDEST PUSH1 0x0 DUP2 CALLDATALOAD SWAP1 POP PUSH2 0x127 DUP2 PUSH2 0x1C6 JUMP JUMPDEST SWAP3 SWAP2 POP POP JUMP JUMPDEST PUSH1 0x0 PUSH1 0x20 DUP3 DUP5 SUB SLT ISZERO PUSH2 0x13F JUMPI PUSH1 0x0 DUP1 REVERT JUMPDEST PUSH1 0x0 PUSH2 0x14D DUP5 DUP3 DUP6 ADD PUSH2 0x118 JUMP JUMPDEST SWAP2 POP POP SWAP3 SWAP2 POP POP JUMP JUMPDEST PUSH1 0x0 DUP1 PUSH1 0x40 DUP4 DUP6 SUB SLT ISZERO PUSH2 0x169 JUMPI PUSH1 0x0 DUP1 REVERT JUMPDEST PUSH1 0x0 PUSH2 0x177 DUP6 DUP3 DUP7 ADD PUSH2 0x118 JUMP JUMPDEST SWAP3 POP POP PUSH1 0x20 PUSH2 0x188 DUP6 DUP3 DUP7 ADD PUSH2 0x118 JUMP JUMPDEST SWAP2 POP POP SWAP3 POP SWAP3 SWAP1 POP JUMP JUMPDEST PUSH2 0x19B DUP2 PUSH2 0x1BC JUMP JUMPDEST DUP3 MSTORE POP POP JUMP JUMPDEST PUSH1 0x0 PUSH1 0x20 DUP3 ADD SWAP1 POP PUSH2 0x1B6 PUSH1 0x0 DUP4 ADD DUP5 PUSH2 0x192 JUMP JUMPDEST SWAP3 SWAP2 POP POP JUMP JUMPDEST PUSH1 0x0 DUP2 SWAP1 POP SWAP2 SWAP1 POP JUMP JUMPDEST PUSH2 0x1CF DUP2 PUSH2 0x1BC JUMP JUMPDEST DUP2 EQ PUSH2 0x1DA JUMPI PUSH1 0x0 DUP1 REVERT JUMPDEST POP JUMP INVALID LOG2 PUSH5 0x6970667358 0x22 SLT KECCAK256 0xC8 0xDE SAR SWAP12 EXTCODEHASH NOT 0xDD JUMP LT SWAP3 0x4A 0xC6 0xE9 PUSH22 0x8B8E6222627A7ABDD692AB4CC521365FDEE564736F6C PUSH4 0x43000802 STOP CALLER LOG2 PUSH5 0x6970667358 0x22 SLT KECCAK256 0x24 0x4A 0xEE MSTORE8 0xC8 SIGNEXTEND 0xAC CREATE2 AND 0xC0 SWAP7 DIV 0x29 0x4C 0xCF 0xC8 0xC DUP1 0x4A 0xF8 EXP 0xA9 0xAF SWAP9 0xD6 SWAP5 ISZERO PUSH26 0x90BA42A364736F6C634300080200330000000000000000000000 "
		},
		"gasEstimates": {
			"creation": {
				"codeDepositCost": "4577200",
				"executionCost": "infinite",
				"totalCost": "infinite"
			},
			"external": {
				"FEE()": "373",
				"allowance(address,address)": "infinite",
				"approve(address,uint256)": "infinite",
				"balanceOf(address)": "infinite",
				"decimals()": "403",
				"extraGas()": "1219",
				"getNonce(address,uint256)": "infinite",
				"heap()": "1346",
				"heapEntry(uint256)": "infinite",
				"heapIndex(address)": "infinite",
				"heapSize()": "infinite",
				"heapTop()": "infinite",
				"init(address,uint256)": "infinite",
				"name()": "infinite",
				"owner()": "1256",
				"setExtraGas(uint256)": "infinite",
				"setHeap(address)": "infinite",
				"setName(string)": "infinite",
				"setOwner(address)": "infinite",
				"setWhitelistedFrom(address,bool)": "infinite",
				"setWhitelistedTo(address,bool)": "infinite",
				"symbol()": "infinite",
				"topSize()": "infinite",
				"totalSupply()": "1241",
				"transfer(address,uint256)": "infinite",
				"transferFrom(address,address,uint256)": "infinite",
				"transferFromWithFee(address,address,uint256)": "infinite",
				"transferWithFee(address,uint256)": "infinite",
				"whitelistFrom(address)": "1590",
				"whitelistTo(address)": "1635"
			},
			"internal": {
				"_allowance(address,address)": "infinite",
				"_balanceOf(address)": "infinite",
				"_isWhitelisted(address,address)": "1910",
				"_nonce(address,uint256)": "infinite",
				"_pickWinner(address,uint256)": "infinite",
				"_random(address,uint256,uint256,uint256)": "infinite",
				"_setAllowance(address,address,uint256)": "infinite",
				"_setBalance(address,uint256)": "infinite",
				"_setNonce(address,uint256,uint256)": "infinite",
				"_toKey(address)": "40",
				"_transferFrom(address,address,address,uint256,bool)": "infinite"
			}
		},
		"methodIdentifiers": {
			"FEE()": "c57981b5",
			"allowance(address,address)": "dd62ed3e",
			"approve(address,uint256)": "095ea7b3",
			"balanceOf(address)": "70a08231",
			"decimals()": "313ce567",
			"extraGas()": "3767e339",
			"getNonce(address,uint256)": "89535803",
			"heap()": "a12ab770",
			"heapEntry(uint256)": "08eaae4d",
			"heapIndex(address)": "b00cf049",
			"heapSize()": "fa7e8dc7",
			"heapTop()": "4849f5c8",
			"init(address,uint256)": "399ae724",
			"name()": "06fdde03",
			"owner()": "8da5cb5b",
			"setExtraGas(uint256)": "8cec9993",
			"setHeap(address)": "bbac1193",
			"setName(string)": "c47f0027",
			"setOwner(address)": "13af4035",
			"setWhitelistedFrom(address,bool)": "ff12bbf4",
			"setWhitelistedTo(address,bool)": "a486309d",
			"symbol()": "95d89b41",
			"topSize()": "7c32cdd1",
			"totalSupply()": "18160ddd",
			"transfer(address,uint256)": "a9059cbb",
			"transferFrom(address,address,uint256)": "23b872dd",
			"transferFromWithFee(address,address,uint256)": "89f35468",
			"transferWithFee(address,uint256)": "08acece2",
			"whitelistFrom(address)": "43684b21",
			"whitelistTo(address)": "16b627d1"
		}
	},
	"abi": [
		{
			"anonymous": false,
			"inputs": [
				{
					"indexed": true,
					"internalType": "address",
					"name": "_owner",
					"type": "address"
				},
				{
					"indexed": true,
					"internalType": "address",
					"name": "_spender",
					"type": "address"
				},
				{
					"indexed": false,
					"internalType": "uint256",
					"name": "_value",
					"type": "uint256"
				}
			],
			"name": "Approval",
			"type": "event"
		},
		{
			"anonymous": false,
			"inputs": [
				{
					"indexed": false,
					"internalType": "uint256",
					"name": "_prev",
					"type": "uint256"
				},
				{
					"indexed": false,
					"internalType": "uint256",
					"name": "_new",
					"type": "uint256"
				}
			],
			"name": "SetExtraGas",
			"type": "event"
		},
		{
			"anonymous": false,
			"inputs": [
				{
					"indexed": false,
					"internalType": "address",
					"name": "_prev",
					"type": "address"
				},
				{
					"indexed": false,
					"internalType": "address",
					"name": "_new",
					"type": "address"
				}
			],
			"name": "SetHeap",
			"type": "event"
		},
		{
			"anonymous": false,
			"inputs": [
				{
					"indexed": false,
					"internalType": "string",
					"name": "_prev",
					"type": "string"
				},
				{
					"indexed": false,
					"internalType": "string",
					"name": "_new",
					"type": "string"
				}
			],
			"name": "SetName",
			"type": "event"
		},
		{
			"anonymous": false,
			"inputs": [
				{
					"indexed": true,
					"internalType": "address",
					"name": "_from",
					"type": "address"
				},
				{
					"indexed": true,
					"internalType": "address",
					"name": "_to",
					"type": "address"
				},
				{
					"indexed": false,
					"internalType": "uint256",
					"name": "_value",
					"type": "uint256"
				}
			],
			"name": "Transfer",
			"type": "event"
		},
		{
			"anonymous": false,
			"inputs": [
				{
					"indexed": false,
					"internalType": "address",
					"name": "_from",
					"type": "address"
				},
				{
					"indexed": false,
					"internalType": "address",
					"name": "_to",
					"type": "address"
				}
			],
			"name": "TransferOwnership",
			"type": "event"
		},
		{
			"anonymous": false,
			"inputs": [
				{
					"indexed": false,
					"internalType": "address",
					"name": "_addr",
					"type": "address"
				},
				{
					"indexed": false,
					"internalType": "bool",
					"name": "_whitelisted",
					"type": "bool"
				}
			],
			"name": "WhitelistFrom",
			"type": "event"
		},
		{
			"anonymous": false,
			"inputs": [
				{
					"indexed": false,
					"internalType": "address",
					"name": "_addr",
					"type": "address"
				},
				{
					"indexed": false,
					"internalType": "bool",
					"name": "_whitelisted",
					"type": "bool"
				}
			],
			"name": "WhitelistTo",
			"type": "event"
		},
		{
			"anonymous": false,
			"inputs": [
				{
					"indexed": true,
					"internalType": "address",
					"name": "_addr",
					"type": "address"
				},
				{
					"indexed": false,
					"internalType": "uint256",
					"name": "_value",
					"type": "uint256"
				}
			],
			"name": "Winner",
			"type": "event"
		},
		{
			"inputs": [],
			"name": "FEE",
			"outputs": [
				{
					"internalType": "uint256",
					"name": "",
					"type": "uint256"
				}
			],
			"stateMutability": "view",
			"type": "function"
		},
		{
			"inputs": [
				{
					"internalType": "address",
					"name": "_addr",
					"type": "address"
				},
				{
					"internalType": "address",
					"name": "_spender",
					"type": "address"
				}
			],
			"name": "allowance",
			"outputs": [
				{
					"internalType": "uint256",
					"name": "",
					"type": "uint256"
				}
			],
			"stateMutability": "view",
			"type": "function"
		},
		{
			"inputs": [
				{
					"internalType": "address",
					"name": "_spender",
					"type": "address"
				},
				{
					"internalType": "uint256",
					"name": "_value",
					"type": "uint256"
				}
			],
			"name": "approve",
			"outputs": [
				{
					"internalType": "bool",
					"name": "",
					"type": "bool"
				}
			],
			"stateMutability": "nonpayable",
			"type": "function"
		},
		{
			"inputs": [
				{
					"internalType": "address",
					"name": "_addr",
					"type": "address"
				}
			],
			"name": "balanceOf",
			"outputs": [
				{
					"internalType": "uint256",
					"name": "",
					"type": "uint256"
				}
			],
			"stateMutability": "view",
			"type": "function"
		},
		{
			"inputs": [],
			"name": "decimals",
			"outputs": [
				{
					"internalType": "uint8",
					"name": "",
					"type": "uint8"
				}
			],
			"stateMutability": "view",
			"type": "function"
		},
		{
			"inputs": [],
			"name": "extraGas",
			"outputs": [
				{
					"internalType": "uint256",
					"name": "",
					"type": "uint256"
				}
			],
			"stateMutability": "view",
			"type": "function"
		},
		{
			"inputs": [
				{
					"internalType": "address",
					"name": "_addr",
					"type": "address"
				},
				{
					"internalType": "uint256",
					"name": "_cat",
					"type": "uint256"
				}
			],
			"name": "getNonce",
			"outputs": [
				{
					"internalType": "uint256",
					"name": "",
					"type": "uint256"
				}
			],
			"stateMutability": "view",
			"type": "function"
		},
		{
			"inputs": [],
			"name": "heap",
			"outputs": [
				{
					"internalType": "contract Heap",
					"name": "",
					"type": "address"
				}
			],
			"stateMutability": "view",
			"type": "function"
		},
		{
			"inputs": [
				{
					"internalType": "uint256",
					"name": "_i",
					"type": "uint256"
				}
			],
			"name": "heapEntry",
			"outputs": [
				{
					"internalType": "address",
					"name": "",
					"type": "address"
				},
				{
					"internalType": "uint256",
					"name": "",
					"type": "uint256"
				}
			],
			"stateMutability": "view",
			"type": "function"
		},
		{
			"inputs": [
				{
					"internalType": "address",
					"name": "_addr",
					"type": "address"
				}
			],
			"name": "heapIndex",
			"outputs": [
				{
					"internalType": "uint256",
					"name": "",
					"type": "uint256"
				}
			],
			"stateMutability": "view",
			"type": "function"
		},
		{
			"inputs": [],
			"name": "heapSize",
			"outputs": [
				{
					"internalType": "uint256",
					"name": "",
					"type": "uint256"
				}
			],
			"stateMutability": "view",
			"type": "function"
		},
		{
			"inputs": [],
			"name": "heapTop",
			"outputs": [
				{
					"internalType": "address",
					"name": "",
					"type": "address"
				},
				{
					"internalType": "uint256",
					"name": "",
					"type": "uint256"
				}
			],
			"stateMutability": "view",
			"type": "function"
		},
		{
			"inputs": [
				{
					"internalType": "address",
					"name": "_to",
					"type": "address"
				},
				{
					"internalType": "uint256",
					"name": "_amount",
					"type": "uint256"
				}
			],
			"name": "init",
			"outputs": [],
			"stateMutability": "nonpayable",
			"type": "function"
		},
		{
			"inputs": [],
			"name": "name",
			"outputs": [
				{
					"internalType": "string",
					"name": "",
					"type": "string"
				}
			],
			"stateMutability": "view",
			"type": "function"
		},
		{
			"inputs": [],
			"name": "owner",
			"outputs": [
				{
					"internalType": "address",
					"name": "",
					"type": "address"
				}
			],
			"stateMutability": "view",
			"type": "function"
		},
		{
			"inputs": [
				{
					"internalType": "uint256",
					"name": "_gas",
					"type": "uint256"
				}
			],
			"name": "setExtraGas",
			"outputs": [],
			"stateMutability": "nonpayable",
			"type": "function"
		},
		{
			"inputs": [
				{
					"internalType": "contract Heap",
					"name": "_heap",
					"type": "address"
				}
			],
			"name": "setHeap",
			"outputs": [],
			"stateMutability": "nonpayable",
			"type": "function"
		},
		{
			"inputs": [
				{
					"internalType": "string",
					"name": "_name",
					"type": "string"
				}
			],
			"name": "setName",
			"outputs": [],
			"stateMutability": "nonpayable",
			"type": "function"
		},
		{
			"inputs": [
				{
					"internalType": "address",
					"name": "_owner",
					"type": "address"
				}
			],
			"name": "setOwner",
			"outputs": [],
			"stateMutability": "nonpayable",
			"type": "function"
		},
		{
			"inputs": [
				{
					"internalType": "address",
					"name": "_addr",
					"type": "address"
				},
				{
					"internalType": "bool",
					"name": "_whitelisted",
					"type": "bool"
				}
			],
			"name": "setWhitelistedFrom",
			"outputs": [],
			"stateMutability": "nonpayable",
			"type": "function"
		},
		{
			"inputs": [
				{
					"internalType": "address",
					"name": "_addr",
					"type": "address"
				},
				{
					"internalType": "bool",
					"name": "_whitelisted",
					"type": "bool"
				}
			],
			"name": "setWhitelistedTo",
			"outputs": [],
			"stateMutability": "nonpayable",
			"type": "function"
		},
		{
			"inputs": [],
			"name": "symbol",
			"outputs": [
				{
					"internalType": "string",
					"name": "",
					"type": "string"
				}
			],
			"stateMutability": "view",
			"type": "function"
		},
		{
			"inputs": [],
			"name": "topSize",
			"outputs": [
				{
					"internalType": "uint256",
					"name": "",
					"type": "uint256"
				}
			],
			"stateMutability": "view",
			"type": "function"
		},
		{
			"inputs": [],
			"name": "totalSupply",
			"outputs": [
				{
					"internalType": "uint256",
					"name": "",
					"type": "uint256"
				}
			],
			"stateMutability": "view",
			"type": "function"
		},
		{
			"inputs": [
				{
					"internalType": "address",
					"name": "_to",
					"type": "address"
				},
				{
					"internalType": "uint256",
					"name": "_value",
					"type": "uint256"
				}
			],
			"name": "transfer",
			"outputs": [
				{
					"internalType": "bool",
					"name": "",
					"type": "bool"
				}
			],
			"stateMutability": "nonpayable",
			"type": "function"
		},
		{
			"inputs": [
				{
					"internalType": "address",
					"name": "_from",
					"type": "address"
				},
				{
					"internalType": "address",
					"name": "_to",
					"type": "address"
				},
				{
					"internalType": "uint256",
					"name": "_value",
					"type": "uint256"
				}
			],
			"name": "transferFrom",
			"outputs": [
				{
					"internalType": "bool",
					"name": "",
					"type": "bool"
				}
			],
			"stateMutability": "nonpayable",
			"type": "function"
		},
		{
			"inputs": [
				{
					"internalType": "address",
					"name": "_from",
					"type": "address"
				},
				{
					"internalType": "address",
					"name": "_to",
					"type": "address"
				},
				{
					"internalType": "uint256",
					"name": "_value",
					"type": "uint256"
				}
			],
			"name": "transferFromWithFee",
			"outputs": [
				{
					"internalType": "bool",
					"name": "",
					"type": "bool"
				}
			],
			"stateMutability": "nonpayable",
			"type": "function"
		},
		{
			"inputs": [
				{
					"internalType": "address",
					"name": "_to",
					"type": "address"
				},
				{
					"internalType": "uint256",
					"name": "_value",
					"type": "uint256"
				}
			],
			"name": "transferWithFee",
			"outputs": [
				{
					"internalType": "bool",
					"name": "",
					"type": "bool"
				}
			],
			"stateMutability": "nonpayable",
			"type": "function"
		},
		{
			"inputs": [
				{
					"internalType": "address",
					"name": "",
					"type": "address"
				}
			],
			"name": "whitelistFrom",
			"outputs": [
				{
					"internalType": "bool",
					"name": "",
					"type": "bool"
				}
			],
			"stateMutability": "view",
			"type": "function"
		},
		{
			"inputs": [
				{
					"internalType": "address",
					"name": "",
					"type": "address"
				}
			],
			"name": "whitelistTo",
			"outputs": [
				{
					"internalType": "bool",
					"name": "",
					"type": "bool"
				}
			],
			"stateMutability": "view",
			"type": "function"
		}
	]
}